:020000040800F2
:10000000500F0020B5010008C12900089D1C000800
:10001000BD290008BD0200085130000800000000A2
:100020000000000000000000000000004530000853
:10003000CD020008000000004130000849300008EF
:10004000CF010008CF010008CF010008CF01000850
:10005000CF010008CF010008CF010008CF01000840
:10006000CF010008CF010008CF010008CF01000830
:10007000CF010008CF010008CF010008CF01000820
:10008000C1020008CF010008CF010008CF0100081D
:10009000CF010008CF010008CF010008CF01000800
:1000A000CF010008CF010008CF010008CF010008F0
:1000B000CF010008CF010008CF010008A11C0008F3
:1000C000CF010008CF010008CF010008CF010008D0
:1000D000CF010008CF010008CF010008CF010008C0
:1000E000CF010008CF010008CF01000800F002F89E
:1000F00000F050F814A696E8000CB244B344DA4578
:1001000001D100F047F8BAE80F000FA696E83000DA
:10011000A5EB040504EB0607AAEB0704A7F101070A
:100120004FEA15154FEA3414A4F10104AC4201D38F
:1001300000F030F813F0010F18BFFB1A43F0010371
:1001400000F001F8DBE71847AC330000CC330000C7
:10015000103A24BF78C878C1FAD8520724BF30C8F3
:1001600030C144BF04680C60704700007047000055
:100170000023002400250026103A28BF78C1FBD8B0
:10018000520728BF30C148BF0B6070471FB51FBD65
:1001900010B510BD00F058F81146FFF7F7FF02F058
:1001A00059FF00F076F803B4FFF7F2FF03BC00F04C
:1001B0007DF800000948804709480047FEE7FEE750
:1001C000FEE7FEE7FEE7FEE7FEE7FEE7FEE7FEE707
:1001D00004480549054A064B704700004D300008A9
:1001E000ED00000850090020500F0020500B0020A7
:1001F000500B00204FF0000200B51346944696467F
:10020000203922BFA0E80C50A0E80C50B1F1200129
:10021000BFF4F7AF090728BFA0E80C5048BF0CC0D7
:100220005DF804EB890028BF40F8042B08BF704735
:1002300048BF20F8022B11F0804F18BF00F8012BA7
:100240007047704770477047754600F02BF8AE4610
:1002500005006946534620F00700854618B020B5D2
:10026000FFF7B6FFBDE820404FF000064FF0000753
:100270004FF000084FF0000BAC46ACE8C009ACE80A
:10028000C009ACE8C009ACE8C00921F007018D46FF
:10029000704710B50446AFF300802046BDE810401B
:1002A000FFF781BF00487047300000200149182047
:1002B000ABBEFEE72600020070470000FEE700002C
:1002C00040F6B400C2F2000000F066B870470000CB
:1002D000EFF3108072B600BFFEE7000090F8211027
:1002E000022923D10268116821F00E0111602F212B
:1002F0001368C4F202018A4240F20401C4F202010E
:1003000023F00103136015DD3023C4F202039A4287
:100310001CD04423C4F202039A421BD05823C4F2D7
:1003200002039A421CD14FF4803321E004218163FF
:10033000012070470823C4F202039A420ED01C2306
:10034000C4F202039A420BD1102311E04FF48073E0
:100350000EE000BF4FF480530AE000BF012307E026
:1003600001F1680C4FF08073624508BF4FF48013B1
:100370000B60012180F82110426B002180F82010D1
:1003800022B180B590470021BDE880400846704703
:1003900090F821007047000010B5D0E90FCE016839
:1003A000DCF800300A6823FA0EF35C072AD512F055
:1003B000040427D00A68920603D40A6822F00402D3
:1003C0000A602F22C4F20202914240F20402C4F2F7
:1003D00002025BDD3023C4F20203994272D044234F
:1003E000C4F20203994273D05823C4F20203994223
:1003F00040F07A804FF480231360C16A002940F0F6
:1004000098806FE09C0727D512F0020424D00A6878
:10041000920606D40A6822F00A020A60012280F8D5
:1004200021202F22C4F20202914240F20402C4F2BF
:1004300002023BDD3023C4F20203994260D0442320
:10044000C4F2020399425FD05823C4F202039942D6
:1004500060D14FF4003365E01B0743D512F008026A
:1004600008BF10BD0A6822F00E020A60012101FADD
:100470000EF2CCF80420816380F82110016B002279
:10048000002980F8202054D12CE000BF0823C4F2BA
:100490000203994222D01C23C4F20203994223D1C1
:1004A00040231360C16A002943D11BE00823C4F232
:1004B000020399422CD01C23C4F20203994229D191
:1004C00020232FE04FF480631360C16A89BB09E0E9
:1004D0004FF480431360C16A59BB03E004231360E7
:1004E000C16A31BB10BD00BF02F168044FF08063E8
:1004F000A14208BF4FF480031360C16AC9B9F1E794
:100500004FF400730EE000BF4FF400530AE000BF49
:10051000022307E002F168044FF00073A14208BF14
:100520004FF400131360816A0022002980F8202014
:10053000D8D0BDE810400847014600284FF0010020
:1005400008BF70472DE9F0470A684FF6F873CBF6FD
:10055000FD7302EB030C4CF6CD43CCF6CC43ACFB65
:10056000033C6FF00307002607EA9C07C4F202066B
:1005700001F10C0AC1E90F670227D1E9013E9AE8AF
:100580003004D1E9069881F82170176843F6F076B7
:10059000B7433B4343EA0E0323432B4343EA0A0397
:1005A00043EA090343EA0803136000228A6381F8DF
:1005B000210081F820200020BDE8F04770470000AE
:1005C00090F820C0BCF1010F04BF02207047F0B5C5
:1005D0004FF0010E80F820E090F821C0BCF1010F2F
:1005E00026D14FF0020C80F821C04FF0000CC0F86B
:1005F00038C0D0E900C4C56AC66BDCF80070102CA6
:1006000027F00107CCF80070006C0EFA00F0706063
:100610000846CCF8043004BF10460A46CCF808005F
:10062000CCF80C20DCF8000045B140F00E000DE0E5
:10063000002180F820100220F0BD00BF20F004004F
:10064000CCF80000DCF8000040F00A00CCF8000014
:10065000DCF8000040F00100CCF800000020F0BD04
:100660002DE9F04F82B00E68002E00F0FD8041F2BF
:100670000042C4F20102042340F2004E904208BF3F
:1006800003234FF6FF7CC4F2010E009300240123E4
:10069000C1F2100C4FF0000A4FF0000944E000BF17
:1006A000012704F00C030F229A402BEA020207FAFA
:1006B00003F34FEA9A051A4346F825204E6840F2A4
:1006C0000C45F202DEF8082054BF22EA080242EA92
:1006D0000802C4F20105CEF808202A68B30254BF0C
:1006E00022EA080242EA08022A60B303DEF8042084
:1006F00054BF22EA080242EA0802F303CEF80420BB
:10070000DEF800204FF0010354BF22EA080242EA5B
:100710000802CEF800200E680AF1010A36FA0AF241
:1007200004F1040400F0A08003FA0AFB16EA0B08A7
:10073000F1D04E68664511DC122E55D8DFE806F080
:10074000340A4448545454545454545454545454EF
:10075000544C5000D1F80C9046E000BF4FF6FF72A9
:10076000C1F2210296420FDC0022C1F21102964230
:100770001AD00022C1F21202964215D00022C1F214
:100780002102964210D02FE00022C1F222029642AE
:100790000AD00022C1F23102964205D00022C1F2F5
:1007A0003202964220D100BF8A684AB1012A14BFA2
:1007B000C0F814B0C0F810B04FF0080914E000BF42
:1007C0004FF0040910E000BFCA6802F108090BE00D
:1007D0004FF0000908E000BFCA6802F1040903E015
:1007E000CA6802F10C0900BF22460646B8F5807FB0
:1007F00024BF203A043637680F25954027EA0505BF
:1008000009FA02F22A433260CA79D2067FF583AF31
:1008100041F21803C4F202031A68AEF57E7642F084
:1008200001021A601A6802F001020192019A2AF08C
:10083000030256F802B040F60002C4F201029042F0
:1008400010D040F60042C4F2010290423FF428AFBB
:1008500041F20002C4F20102009F904208BF022749
:100860001FE700BF00271CE702B0BDE8F08F0000C3
:1008700040F64C10C2F2000000687047704700005C
:1008800070470000F0B581B0076804467868E26AF6
:1008900094F83E3094F83DE0402B01D0102B1BD152
:1008A000BD697E69F10745D1B2F12A4F00F060823F
:1008B000B2F52A0F00F05C82310700F4007240F1BB
:1008C0000981002A00F00681606B616C0028C9B2C2
:1008D000396140F0EE80EEE0216C00F400730029F5
:1008E0000CBFBD6900257E69B1073DD5E3B3206C1F
:1008F000002818BFBD6994F83D0000F028002828A2
:1009000074D17868012120F48060786005F00400DB
:1009100081EA900128064FF0180058BF0C20225A97
:100920000023204684F83C3001B0BDE8F040FFF7DA
:10093000A7BF00BF810541D44FF0010C79686A0759
:1009400042D4090500F1148206F04401402940F028
:10095000318110F4806000F02D81204601B0BDE8A7
:10096000F04001F01FBC00BFF1064BD5002B49D071
:1009700094F83D50786820F4E060786000200090A2
:1009800078690090386840F0010038600098386855
:1009900020F4806038607868000540F1508105F0EF
:1009A000F7002646222840F0298156F8380F0168C2
:1009B000496826F80E1C36F80E1C27E1E06AB0F5EF
:1009C0002A0F51D1012054E0090500F1D18106F030
:1009D0008401802940F0FE8010F4806000F0FA80ED
:1009E000204601B0BDE8F04001F0BCBC0020009002
:1009F00079690091B9690091009984F83C0001B0CF
:100A0000F0BD00BF0EF0F701212940F0958006F0FF
:100A10008401802940F0648110F4806000F06081DE
:100A200094F83D00618D002900F0A281616A11F8FF
:100A3000012B3A616162618D01396185618D002907
:100A400008BF292840F094817868282120F480602C
:100A5000786021202063204684F83D1001B0BDE875
:100A6000F04000F057BD00BFE06AB0F12A4F01D15D
:100A70000820E06294F83E0040280BD1206D616CA4
:100A8000002801F0FE0018BF40F00100386101B0FD
:100A9000F0BD00BF2069B0F5804F7BD194F83D00D8
:100AA000616C212801F0FE0118BF01313961606BD2
:100AB00008B1806A38B9A06B002800F05981806ABB
:100AC000002800F05581786840F40060786001B03B
:100AD000F0BD00BF4FF0010CB1078CEA522C7FF53E
:100AE0002DAF002A3FF42AAF94F83E30E06A226B23
:100AF00094F83D10222940F0FF80216D002908BFA5
:100B0000402B00F0F980216D002940F033812169EC
:100B1000B1F5404F40F02E810020009078690090A0
:100B2000B86900900098386840F480703860206D93
:100B30000130206501B0F0BD06F04401402940F0CD
:100B4000E58010F4806000F0E18094F83D00618D54
:100B5000002900F00D813969626A1170616A013102
:100B60006162618D01396185618D002908BF2A2884
:100B700040F0FE802068416821F4806141602220BD
:100B800028212063204684F83D1001B0BDE8F040E4
:100B900000F0BEBC206D002800F0C880206D012848
:100BA00040F0E680606C062101EAD010F130386137
:100BB00001B0F0BD06F00400012181EA900050EA86
:100BC0000C0040F0D580204601B0BDE8F04001F0B7
:100BD00075BA00BF06F00400012181EA900050EAD6
:100BE0000C0040F0C580BEF1210F40F0B9802046D6
:100BF00001B0BDE8F04001F073BB00BF56F8340F00
:100C00000168496826F80A1C36F80A1C19B1216CDB
:100C100041F004012164796821F400617960FFF7F3
:100C2000B7FB01280BD0306841F6AD41C0F600019A
:100C30004163FFF753FB10B13068416B8847608D0B
:100C400060B120684169490730D4416949063AD406
:100C5000608D18B1206C40F004002064206C28B135
:100C6000204601B0BDE8F04001F062B92A2D07D15D
:100C700000202063282084F83D00204600F048FC36
:100C800094F83D00282859D10020CFF6FF70E0628B
:100C900000212020216384F83D00204684F83E1086
:100CA00001B0BDE8F04000F0C1B900BF0069616A61
:100CB0000870616A206801316162618D0139618566
:100CC00041694906C4D50069616A0870606A0130EB
:100CD0006062608D01386085608D0028BAD1BDE703
:100CE000700745D5002B43D0608D002840D0606A46
:100CF00010F8011B396113E0002000907869009022
:100D0000B8690090009801B0F0BD00BF70072FD502
:100D100073B3608D60B33869616A0870606A0130CE
:100D20006062608D0138608522E000BF606C062142
:100D300001EAD010F030386101B0F0BD206B2228FC
:100D400018BF222D14D100212020216384F83D00FA
:100D5000204684F83E1001B0BDE8F04000F0D8BB5A
:100D6000402B05D1204601B0BDE8F04001F054BB56
:100D700001B0F0BD618D51B1618D012916D12028DE
:100D800018BF082842D1386820F4806038600020FD
:100D9000009078690090B86900900098386840F435
:100DA000007038600020206501B0F0BD618D02291F
:100DB00014D110284ED8012114228140C0F2010222
:100DC000114247D0396841F48061396000210091B7
:100DD00079690091B969009100994AE0396841F454
:100DE00080613960796809055DD5421E1F2A57D890
:100DF0000121914048F28102C8F2000211424FD015
:100E0000786840F4805078604DE000BF10F5803F76
:100E10000CD1386820F48060386078680005B6D559
:100E2000386820F4806038603DE000BF122A01D1AC
:100E30000128A8D11028F3D8012101FA00F01421CB
:100E4000C0F201010842EBD0386840F4806038609D
:100E500029E000BF396841F4006139600021009148
:100E600079690091B96900910099396821F480612C
:100E70003960796809051DD5421E1F2A1ED8012137
:100E8000914048F28102C8F20002114216D07868FF
:100E900040F4805078600020206501B0F0BD00BFB4
:100EA00010F5803FACD00020009078690090B869C0
:100EB000009000980020206501B0F0BD10F5803F43
:100EC000E5D0F7E770470000002804BF0120704715
:100ED000F0B581B0044690F83D0028B9002084F8B0
:100EE0003C00204600F0C2FA242084F83D0020682F
:100EF000016821F001010160016841F400410160D5
:100F0000016821F40041016000F09EFC636848F232
:100F1000A16CC0F2010C40F60011C0F23D01634526
:100F20003CBF48F28041C0F21E01884202D201203B
:100F300001B0F0BD4DF68361C4F21B31A0FB01127C
:100F40002168970CD1F804E04FF496762EF03F0517
:100F500045EA92454D60774348F638160D6AC0F26F
:100F60004106A7FB067625F03F07634538BF960C80
:100F7000721C3A430A62CA6948F2A0664CF6FF77CF
:100F8000C0F20106B34222EA07020BD801385B0027
:100F9000B0FBF3F001306FF31F30042898BF04203A
:100FA0001BE000BFA768013857B119277B43B0FB8E
:100FB000F3F001306FF31F3070B100F5804007E0AF
:100FC00003EB4303B0FBF3F001306FF31F3018B1B4
:100FD00000F5004001E000BF01201043C86108682F
:100FE000D4E9072320F0C000104318430860886844
:100FF00048F2FF3204F10C0790438CCF18431043A2
:10100000A6698860C86820F0FF0038433043C86094
:10101000086840F00100086000202021206484F866
:101020003D10206384F83E0001B0F0BD7047000021
:101030007047000040F29000C2F2000041780029A1
:1010400008BF704780B582B0007840F2B441C2F268
:10105000000101EBC01C40F6F8004FF0800EC2F218
:101060000000782140220123CDE900CE00F0FEF8F7
:1010700002B080BD70B582B004460020019094F8A3
:101080003D00202837D140F22800C2F2000000685D
:101090004BF28956C008C1F2F846A0FB0606300A9A
:1010A000192670430190019801380190019838B3D6
:1010B0002568A86980071AD5019801380190019820
:1010C000F0B12568A869800711D501980138019011
:1010D0000198A8B12568A869800708D5019801384A
:1010E0000190019860B12568A8698007DBD494F865
:1010F0003C00012814D10226304602B070BD00BF6A
:1011000000202021206384F83D1084F83E00206CEC
:10111000022640F020002064304602B070BD00BFBF
:10112000012084F83C002868C00703D1286840F0FB
:10113000010028602868002620F400602860212033
:1011400084F83D00102084F83E00266462626385C6
:10115000638D0020CFF6FF702385E06261642BB3BE
:10116000606BA8B341F60D6141F6D15CC0F6000199
:10117000C0F6000C00F1280E8EE8421005F1100CAC
:10118000114662464663FFF71BFA88B3202084F8B5
:101190003D0084F83E60206C40F01000206484F82C
:1011A0003C600126304602B070BD00BF286840F4A4
:1011B00080602860286840F48070286084F83C6073
:1011C000686840F4E0606860304602B070BD00BFFF
:1011D000202084F83D00002084F83E00216C012688
:1011E00041F08001216484F83C00304602B070BDBB
:1011F000206884F83C60416841F440714160416876
:1012000041F400614160016841F48061016001685E
:1012100041F480710160304602B070BD704700003B
:1012200040F2900CC2F2000C9CF80000072803D199
:101230000020ACF8000070479CF80110002908BF9E
:10124000704780B500F1010E5FFA8EF00CEB800064
:10125000821C40F6F800C2F20000782104238CF8CA
:1012600000E0BDE88040FFF705BF00002DE9F04336
:1012700085B0044600201D4616460F460490FFF731
:10128000F7FA94F83D10202940F09580804640F20E
:101290002800C2F2000000684BF28951C008C1F278
:1012A000F841A0FB0102DDE90C13100A192250439A
:1012B00004900498013804900498002870D02268A3
:1012C000906980071DD5049801380490049800287F
:1012D00066D022689069800713D50498013804907D
:1012E000049800285CD022689069800709D504988A
:1012F000013804900498002852D022689069800731
:10130000D7D494F83C00012855D0012084F83C0043
:101310001068C00703D1106840F001001060106829
:101320004FF0000C20F400601060212084F83D0094
:10133000402084F83E00C4F840C061626385638D3C
:101340000020CFF6FF702385E0626764A664E56441
:10135000C4F850C0A3B3606B002841D041F60D6CB7
:1013600041F6D15EC0F6000CC0F6000E4FF0000949
:101370001032C0E90AC9C0E90CE9FFF721F90028D9
:101380003ED0202084F83D0084F83E90206C40F050
:101390001000206484F83C90012005B0BDE8F08383
:1013A00000202021206384F83D1084F83E00206C4A
:1013B00040F020002064022005B0BDE8F08300BFAB
:1013C000202084F83D0084F83EC0206C40F04000AE
:1013D000206484F83CC0012005B0BDE8F08300BF64
:1013E000202084F83D00002084F83E00216C41F06C
:1013F0008001216484F83C00012005B0BDE8F08341
:101400004FF0230C2046394632462B46CDE900C822
:1014100001F062F8A0B1606BFEF760FF616B2068BD
:1014200000228A62016821F4806101602285628560
:10143000016821F001010160012005B0BDE8F083E1
:101440000020039021684A6903928A690392039AF3
:1014500084F83C004A6842F480724A604A6842F468
:1014600000624A6005B0BDE8F083000070B586B048
:10147000044645F200402168C4F200000026814283
:10148000049601D006B070BD41F21805C4F2020501
:10149000296800F5384041F008012960296801F009
:1014A000080101910199C0210291122103910321A8
:1014B000059102A9FFF7D4F86868102140F40010E4
:1014C0006860686840F6B40500F400100190019867
:1014D0006C20C2F20005C4F20200802285E84300BD
:1014E0002846C5E90326C5E90566EE61FFF724F83D
:1014F000002818BFFEF7ECFE1F20002100226563C4
:101500006C6200F083F81F2000F06EF806B070BD2A
:10151000704700007047000040F2000040F64C1198
:10152000C2F20000C2F2000100780A6810440860AC
:101530007047000080B542F20000C4F2020001686A
:1015400041F010010160032000F08CF80F2000F042
:1015500005F800F027F8002080BD000070B540F2CB
:101560000006C2F2000640F228013278C2F2000101
:101570004FF47A730968B3FBF2F20446B1FBF2F15F
:10158000084600F075FB0F2C4FF0010508D838B95C
:101590004FF0FF3021460022002500F037F874603C
:1015A000284670BD82B041F21800C4F20200016802
:1015B000022241F001010160016801F00101019185
:1015C0000199416841F080514160406800F08050CD
:1015D000009000980420C4F20100016862F31A61CF
:1015E000016002B070470000002848BF704700F05B
:1015F0001F01012202FA01F11C2202EAD0004EF280
:101600000012CEF2000281507047000010B54EF675
:101610000C5CCEF2000CDCF80030C3F3022E8EF02E
:101620000704042C28BF0424BEF103034FF0FF3E3F
:101630000EFA04F438BF0023A14399400EFA03F3D5
:101640009A43114300F00F0200F160430901043A8C
:1016500003F564436244002848BF02F10C0319708B
:1016600010BD00004EF60C51CEF200010A684FF694
:10167000FF031A4060F30A2242F0806040F0FD70E0
:1016800008607047002804BF012070472DE9F0432F
:1016900081B042F20008C4F202080446D8F8000003
:1016A0000D4600F0070088420CD2D8F8000020F068
:1016B00007002843C8F80000D8F8000000F0070031
:1016C000A8426CD1206841F204098107C4F20209E2
:1016D00017D5410705D5D9F8001041F4E061C9F8E4
:1016E0000010010705D5D9F8001041F46051C9F880
:1016F0000010D9F80010A26821F0F0011143C9F8D8
:101700000010C00742D1D8F8000000F00700A8423E
:101710000CD9D8F8000020F007002843C8F80000D2
:10172000D8F8000000F00700A84238D1206841072F
:1017300007D5D9F80010E26821F4E0611143C9F837
:101740000010000708D5D9F80000216920F4605086
:1017500040EAC100C9F80000D9F8002002F00C00EE
:10176000082841F20020C0F27A0051D143F2E4434C
:10177000C2F38341C0F60003595CD2033CD440F667
:101780000010C0F23D00484342E000BF60680228FC
:101790000AD001282AD159F8041C890308D4012051
:1017A00001B0BDE8F08300BF59F8041C8901F6D5EB
:1017B000D9F8001021F003010843C9F80000FFF731
:1017C00057F8064641F28837D9F80000616800F002
:1017D0000C00B0EB810F96D0FFF74AF8801BB8429F
:1017E000F2D9032001B0BDE8F08300BF59F8041C12
:1017F0008907D4D5DCE700BFD9F8002043F2E20323
:10180000C2F34042C0F600039A5C4843B0FBF2F0DA
:10181000D9F8001043F2CA02C1F30311C0F6000266
:10182000515C40F2280220FA01F140F20400C2F2B9
:1018300000000068C2F200021160FFF78FFE002076
:1018400001B0BDE8F083000040F2280041F204013D
:10185000C2F20000C4F202010068096843F2DA0231
:10186000C1F30221C0F60002515CC840704700007D
:10187000002804BF012070472DE9F04182B00446E2
:10188000007841F20006C007C4F202060CD070686E
:1018900000F00C00042840F081803068800303D5FC
:1018A0006068002800F04E81207880071BD57068A2
:1018B00010F00C0F09D0706800F00C00082840F000
:1018C0008B807068C00300F187803068800703D583
:1018D0002069012840F036813068616920F0F80005
:1018E00040EAC10030602078000713D42078400718
:1018F0002CD4E569002D00F02081706800F00C0008
:10190000082840F0AF80012D40F00C81012002B08A
:10191000BDE8F081A069002800F08C800020C4F2AE
:1019200042200121C0F88014FEF7A2FF054600BF47
:10193000706A800700F1BA80FEF79AFF401B022808
:10194000F6D9032002B0BDE8F08100BFF0695FEA7C
:10195000C00808D4F06940F08050F061F06900F0F0
:1019600080500090009847F20007C4F200073868E2
:10197000C0054DD4386840F480703860FEF778FFB9
:10198000054600BF3868C00542D4FEF771FF401B12
:101990006428F7D9032002B0BDE8F081706800F038
:1019A0000C00082803D17068C0033FF576AF60686B
:1019B000002800F00981B0F5A02F00F01D81B0F5DE
:1019C000803F00F01D81306820F480303060306846
:1019D00020F4802017E100BF2069002840F20000B9
:1019E000C4F2422000F08C8001210160FEF740FF2C
:1019F000054600BF306880073FF56EAFFEF738FF41
:101A0000401B0228F6D9032002B0BDE8F08100BFD8
:101A1000E068002800F09A80052800F0B1800128D5
:101A200000F0B280306A20F001003062306A20F0AD
:101A30000400ACE00020C4F242200021C0F8801471
:101A4000FEF716FF054600BF706A80077FF54EAFB0
:101A5000FEF70EFF401B0228F6D9032002B0BDE8B6
:101A6000F08100BF0027C4F2422700203866FEF74D
:101A7000FFFE022D05460DD13068800140F1D68071
:101A8000FEF7F6FE401B02284FF00300F4D902B027
:101A9000BDE8F081306880014FD5FEF7E9FE401BBC
:101AA00002284FF00300F5D9F1E700BF40F228000B
:101AB000C2F20000006844F6D351C1F26201A0FBFB
:101AC0000101480A019000BF00BF0198411E002893
:101AD00001913FF40BAF00BF0198411E0028019116
:101AE0003FF404AF00BF0198411E002801913FF46C
:101AF000FDAE00BF0198411E00280191E4D1F5E63A
:101B000000210160FEF7B4FE054600BF3068800783
:101B10007FF5E9AEFEF7ACFE401B02284FF0030054
:101B2000F4D9B4E77068216A00F480328A4209D19E
:101B3000616A00F47010884204D1002002B0BDE850
:101B4000F08100BF012002B0BDE8F081306A20F0D2
:101B500001003062306A20F004003062FEF788FE37
:101B6000054641F2883700BF306A800722D5FEF76C
:101B70007FFE401BB8424FF00300F5D987E700BF56
:101B8000306A40F004003062306A40F00100306298
:101B9000FEF76EFE054641F2883700BF306A8007C7
:101BA00008D4FEF765FE401BB842F7D9032002B007
:101BB000BDE8F081B8F1000F3FF59BAEF06920F071
:101BC0008050F06195E600BF306820F480303060CE
:101BD000306820F480203060FEF74AFE054600BFE2
:101BE000306880037FF560AEFEF742FE401B64283C
:101BF0004FF00300F4D94AE7306840F480203060A9
:101C0000306840F480303060FEF732FE054600BF99
:101C1000306880033FF548AEFEF72AFE401B64287B
:101C2000F6D9032002B0BDE8F08100BF206AB0F50C
:101C3000803F05D17168A26821F4003111437160C1
:101C40007168626A21F474111143084370600120C5
:101C50003866FEF70DFE0446306880013FF56DAF33
:101C6000FEF706FE001B02284FF00300F4D90EE732
:101C7000411E0020B0EB116F1CBF012070474EF2D7
:101C80001002CEF2000251604EF62351CEF2000156
:101C9000F0230B700721906011607047FEE7000091
:101CA00040F6F800C2F20000FEF7ECBD10B581B0BE
:101CB00000210091406A40F22801C2F2000190F830
:101CC0003DC009684BF28952C908C1F2F842A1FB34
:101CD0000212110A232251430091009911B3009975
:101CE000013900910168096889051FD50099C9B1BA
:101CF00000990139009101680968890516D5009994
:101D000081B10099013900910168096889050DD5F3
:101D1000009939B100990139009101680968890574
:101D2000DBD403E0016C41F020010164446B4FF00F
:101D3000000E002C1CBF0021A162816B00291CBF7A
:101D400000228A620268002C136823F48063136007
:101D5000A0F82AE018BFC4F834E000291CBF002313
:101D60004B63116821F00101116090F83D1060296A
:101D70000CD1202180F83D10002180F83E10016434
:101D800001B0BDE81040FEF779BD00BF0CF028019E
:101D9000282911D1116841F001011160116841F445
:101DA0008061116000210163282180F83D1001B09D
:101DB000BDE81040FFF786B8202180F83D100021D3
:101DC00080F83E1001B0BDE81040FFF77BB800007E
:101DD000406A416B00291CBF00228A62816B002986
:101DE0001CBF00228A6201680A6822F480620A60CD
:101DF00000212022418580F83D2080F83E10016CB2
:101E000041F010010164FFF75DB8000010B5446AAD
:101E100094F83D2094F83EE0D4F82CC02068616B23
:101E20004368002923F4407343601CBF00238B6286
:101E3000A16B00291CBF00238B6202F02101212924
:101E400020D002F02201222908BFBEF1200F19D0B4
:101E500094F83E10002908BF10BD618D012903D1FF
:101E6000016821F4806101604168BCF1070F21F431
:101E70004071416028DCBCF12A4F2BD01CF5803F1B
:101E800028D02BE041682A2A21F4006141604FF0FC
:101E9000000060850AD0292A10D121202063282043
:101EA00084F83D002046FFF735FB07E02220206341
:101EB000282084F83D002046FFF72AFB206841686F
:101EC00041F44071416010BDBCF1200F02D0BCF163
:101ED000080F03D1016841F400710160416821F4E9
:101EE00080514160416821F40061416000206085BB
:101EF000216C29B12046BDE81040FEF7E3BF00BFCA
:101F0000202184F83D1094F83E1084F83E004029CA
:101F100006D1002120462163BDE81040FFF77EB9BD
:101F2000122120462163BDE81040FFF781B8000070
:101F300010B5044690F83D1090F83E00B0F1100244
:101F400018BF0122403818BF0120024208BF2229D1
:101F500034D001F0280028283AD10020206328201E
:101F600084F83D0020684168090542D5416821F4A4
:101F700000614160606B90F82110012958D1A06B7D
:101F800041F6AD41C0F600014163FEF7A7F9002814
:101F900061D020684169490606D50069616A087008
:101FA000616A206801316162016821F0010101600C
:101FB000202084F83D00A06B4BE000BF2068026841
:101FC00022F4006202604268120505D50CE000BFF1
:101FD00020684268120507D4602905D0202184F8C2
:101FE0003D10002184F83E1000212163416809055D
:101FF000BCD494F83D10602950D1202184F83D10C4
:10200000002121644169490606D50069616A0870AA
:10201000616A206801316162016821F0010101609B
:102020002046FEF72BFC206C000717D11BE000BFF9
:1020300041F6AD41C0F600014163FEF74FF950B1E2
:102040002168606B0A6822F001020A60202184F88E
:102050003D10416B8847206C000704D02068416820
:1020600021F4E061416094F83D00216C490758BFBC
:1020700010BD282810D10020CFF6FF70E0620021AB
:102080002020216384F83D00204684F83E10BDE8FE
:102090001040FEF7CBBF00BF10BD00BF416949062D
:1020A00005D50069616A0870606A01306062204687
:1020B000FEF708FF206C0007D0D1D4E7C16A428D3B
:1020C000042A07D10168426A4B6823F480634B609D
:1020D000096911E0428D032A16D10268022953686A
:1020E00023F48063536005D0042903D0116821F4E0
:1020F000806111601169426A1170416A0131416267
:10210000418D013941857047428D022A12D1013932
:102110000F2919D8DFE801F008121812181818183A
:10212000181818181818180801680A6822F480622C
:102130000EE000BF0168426ACAE700BF01680A6892
:1021400042F4806204E000BF01680A6842F4007251
:102150000A600969426A1170416A02684B1C436255
:10216000438D013B438512694A70416A026801311F
:102170004162418D01394185516821F440715160BE
:10218000202180F83D1090F83E200021402A80F860
:102190003E1003D10163FFF741B800BF1221016374
:1021A000FEF746BF81B090F83D1022290FD1418D36
:1021B00004290FD30168426A09691170416A01312B
:1021C0004162418D01394185418D03295ED001B0C5
:1021D000704700BFC26A012958D8022A56D0002190
:1021E000009140F22801C2F2000109684BF28952C5
:1021F000C908C1F2F842A1FB0212110A01EB8101E8
:1022000000910099013900910099002946D0016898
:102210000A6892051AD50099013900910099E9B32D
:1022200001680A68920511D5009901390091009959
:10223000A1B301680A68920508D500990139009197
:10224000009959B301680A689205DAD40A6822F441
:1022500080620A604A6822F4E0624A600969426A60
:102260001170416A01314162418D0139418520215E
:1022700080F83D1090F83E200021402A80F83E1062
:1022800028D1016301B0FEF7C9BF00BF00684168F3
:1022900021F48061416001B0704700BF016C41F0E2
:1022A000200101640168426A4B6823F4E0634B60DB
:1022B00009691170416A01314162418D01394185DD
:1022C000202180F83D10002180F83E1001B0FEF77B
:1022D000F9BD00BF1221016301B0FEF7A9BE0000E5
:1022E000C16A90F83D20212A18BF7047428D4AB13B
:1022F000416A026811F8013B13614162418D013965
:102300004185704711F5803F18BF082918D1016831
:102310004A6822F4E0624A600A6842F400720A6085
:1023200000212022016380F83D2090F83E2080F8B3
:102330003E10402A08BFFEF773BFFEF77BBE00BF0A
:102340002029E4D001684A6822F4E0624A60112141
:102350000163002180F83E10202180F83D10FEF737
:1023600069BE000090F83D1090F83EC0C26A038D2F
:10237000002B08BF212919D0212905D0BCF1400F1D
:1023800008BF222900D07047418D69B390F83E10F4
:10239000402908BF00F040B8416A026811F8013BCB
:1023A00013614162418D01394185704712F5803FCB
:1023B00018BF082A1ED101684A6822F4E0624A6008
:1023C0000A6842F400720A6000212022016380F84A
:1023D0003D2090F83E2080F83E10402A08BFFEF7CE
:1023E0001FBFFEF727BE00BF0068416821F480616F
:1023F00041607047202ADED001684A6822F4E0621A
:102400004A6011210163002180F83E10202180F8EC
:102410003D10FEF70FBE000090F83D10026D5AB15E
:10242000026D012A14D10168826CD2B20A61016D79
:1024300001310165704700BFC26C816C012A15D162
:102440000268C9B21161016D02310165704700BFB8
:10245000026D022A12D1222918D101680A6842F4B9
:1024600080720A60016D0131016570470268C1F335
:1024700007211161016D01310165704700684169F3
:10248000090644BF00210161704700BF428D5AB167
:10249000212909D1416A026811F8013B13614162A7
:1024A000418D013941857047428D002A08BF21299D
:1024B000EAD101684A6822F4E0624A600A6842F49C
:1024C00000720A6000212022016380F83D2080F81C
:1024D0003E10FEF7A5BE00002DE9F04383B0044690
:1024E00000680D4601680A9F0B9E41F48071994671
:1024F0009046016020464FF0011100223B460096B5
:1025000000F04EF850B120680068C00544BF4FF499
:1025100000702064032003B0BDE8F083206805F05C
:10252000FE0101610221C0F2010120463A46334614
:1025300000F01CF920B1012003B0BDE8F08300BF1A
:102540000020029020683246416902918069394634
:1025500002900298204600F075F958B1206C0428CA
:10256000E9D12068016841F400710160012003B0E5
:10257000BDE8F0832068B9F1010F0AD04FEA1821B5
:10258000016120463946324600F05CF90028E5D169
:1025900020685FFA88F10161002003B0BDE8F08394
:1025A0002DE9F041054600681E46144601F47F02FD
:1025B00001338FB242D0DDF81880B2F5803F40F091
:1025C000878040693840C01BB0FA80F04009A042C3
:1025D00040F0C8804EB924E040693840C01BB0FAD2
:1025E00080F04009A04240F0BD80FEF741F9A0EB29
:1025F00008012868B142EFD941693940C91BB1FAD5
:1026000081F14909A142E7D19BE000BF4069384010
:10261000C01BB0FA80F04009A0424FF0000040F02B
:10262000A280FEF725F9286841693940C91BB1FA33
:1026300081F14909A142E9D183E000BFB2F5803FB1
:1026400024D100BF41693940C91BB1FA81F1490960
:10265000A14240F0878041693940C91BB1FA81F13C
:102660004909A14240F07E8041693940C91BB1FA55
:1026700081F14909A14275D141693940C91BB1FABB
:1026800081F14909A142DDD06CE000BF8169394088
:10269000C91BB1FA81F14909A14263D1816939406D
:1026A000C91BB1FA81F14909A1425BD18169394065
:1026B000C91BB1FA81F14909A14253D1816939405D
:1026C000C91BB1FA81F14909A142DFD04AE000BF3C
:1026D00080693840C01BB0FA80F04009A04241D167
:1026E00046B923E080693840C01BB0FA80F0400949
:1026F000A04237D1FEF7BCF8A0EB08012868B14230
:10270000F0D981693940C91BB1FA81F14909A14267
:10271000E8D116E080693840C01BB0FA80F040096B
:10272000A0424FF0000018BFBDE8F081FEF7A0F80E
:10273000286881693940C91BB1FA81F14909A14270
:10274000E8D100202021286385F83D1085F83E005F
:10275000296C41F02001296485F83C000120BDE886
:10276000F08100BF0020BDE8F0810000F0B581B02D
:10277000044600681D4643698FB203EA0701B94267
:1027800002D1002001B0F0BD4169164601323FD0B0
:1027900049053FD4CEB100BFFEF76AF8411B20685F
:1027A000B14203D941693940B94215D14169394033
:1027B000B942E6D041694905EED52BE0416939407F
:1027C000B942DED04169490524D4FEF751F82068AA
:1027D00041693940B942F1D0202023E041693940B4
:1027E000B942CED04169490514D441693940B94252
:1027F000C7D0416949050DD441693940B942C0D0BB
:102800004169490506D441693940B942B9D04169A5
:102810004905E3D5016841F4007101606FF48061FE
:102820004161042000212022216384F83D2084F8A6
:102830003E10226C1043206484F83C10012001B04B
:10284000F0BD000070B50368044653F8140F00068D
:1028500011D40E46481C29D086BB00BF186840051D
:1028600027D4FEF705F8236853F8140F000637D570
:1028700018680006F2D5002070BD00BF1868000679
:10288000F9D41868400514D418680006F3D4186801
:1028900040050ED418680006EDD41868400508D429
:1028A000186800064FF0000048BF70BD186840056A
:1028B000E4D56FF480601860042012E0154603E050
:1028C00053F8140F0006D6D418684005F1D4FDF76C
:1028D000CFFF401B2368B042F2D958690006EFD4FD
:1028E000202000212022216384F83D2084F83E101E
:1028F000226C10432064012084F83C1070BD00005D
:1029000080B582B041F21400C4F2020001680022D6
:1029100041F0010101600068002100F00100019018
:1029200001981020FEF772FE102002B0BDE8804032
:10293000FEF75ABE83B041F21800C4F202000168EB
:1029400041F020010160016801F02001029102992B
:10295000016841F004010160016801F00401019186
:102960000199016841F008010160006800F0080069
:102970000090009803B0704780B540F6F80045F22B
:102980000041C2F20000C4F2000148F2A06200233C
:102990004FF4804CC0F2010280E80E00C0E9033C15
:1029A000C0E90533C0E90733FEF78EFA002808BFF7
:1029B00080BDBDE88040FDF78BBC0000FEE7000055
:1029C000FEE7000010B540F2B404C2F20004204655
:1029D0004FF48061FDF70EFC43F2E40E4FF0000C63
:1029E000C0F6000E0AE000BFBCF1380F0CF1080C75
:1029F0000EF1010E04F1010480F09C80002204E03D
:102A000004F832000132802AEED01EF932104CEA6E
:102A10000203B1F1FF3F07DD18060DD414F83200B0
:102A200000F0FE0006E000BF180605D414F83200DE
:102A300040F0010004F83200C9B2480606D4180676
:102A40000CD414F8320000F0FD0005E0180605D49F
:102A500014F8320040F0020004F83200880607D46F
:102A600018060DD414F8320000F0FB0006E000BF99
:102A7000180605D414F8320040F0040004F83200BF
:102A8000C80607D418060DD414F8320000F0F70079
:102A900006E000BF180605D414F8320040F0080024
:102AA00004F83200080707D418060DD414F83200D1
:102AB00000F0EF0006E000BF180605D414F832005D
:102AC00040F0100004F83200480707D418060DD46F
:102AD00014F8320000F0DF0006E000BF180605D44D
:102AE00014F8320040F0200004F83200880707D4C0
:102AF00018060DD414F8320000F0BF0006E000BF45
:102B0000180605D414F8320040F0400004F83200F2
:102B1000C80707D118063FF575AF14F8320000F06A
:102B20007F006DE718063FF56DAF14F8320040F0F6
:102B3000800065E7BDE8104000F016B880B582B0AF
:102B400040F2080E40F6F8004FF01D0CC2F2000EE5
:102B5000C2F20000782100220123CDE900ECFEF74B
:102B600085FB02B080BD000040F2900CC2F2000C68
:102B70009CF80100002818BF70472DE9F04140F291
:102B8000B40E4BF20000C2F2000E40F2B448C0F2A4
:102B90001000AEF180020023C2F20008CCF802005F
:102BA00012F8804F08EB030008F803400EEBC30453
:102BB00094F82010257A017194F82810457041711D
:102BC00092F8381094F83050C17194F84810267C6F
:102BD000417294F85010277E857192F840508172AE
:102BE00094F870108670C770057294F8585094F875
:102BF000606094F86870817392F878101033802BBD
:102C0000C57206734773C173CAD14BF20010C0F28C
:102C100010000022CCF806000EEBC203597808EB36
:102C2000020080F8801093F821105C7A80F88410FC
:102C300093F8311080F8814093F8294080F886108D
:102C400093F8411080F8854093F8394080F8881057
:102C500093F851105D7C5E7E80F8874093F8494080
:102C600080F88A1093F8711080F8825080F88360A1
:102C700080F8894093F8594093F8615093F869605F
:102C800080F88E1093F879101032802A80F88B40EB
:102C900080F88C5080F88D6080F88F10BCD14BF29A
:102CA0000020C0F210000022CCF80A000EEBC20394
:102CB000997808EB020080F8001193F822109C7AB2
:102CC00080F8041193F8321080F8014193F82A40FB
:102CD00080F8061193F8421080F8054193F83A40C5
:102CE00080F8081193F852109D7C9E7E80F8074171
:102CF00093F84A4080F80A1193F8721080F8025154
:102D000080F8036180F8094193F85A4093F86250C3
:102D100093F86A6080F80E1193F87A101032802AC6
:102D200080F80B4180F80C5180F80D6180F80F118C
:102D3000BCD14BF20030C0F210000022CCF80E00E3
:102D40000EEBC203D97808EB020080F8801193F8EB
:102D50002310DC7A80F8841193F8331080F88141D5
:102D600093F82B4080F8861193F8431080F8854142
:102D700093F83B4080F8881193F85310DD7CDE7E99
:102D800080F8874193F84B4080F88A1193F87310CC
:102D900080F8825180F8836180F8894193F85B4024
:102DA00093F8635093F86B6080F88E1193F87B1062
:102DB0001032802A80F88B4180F88C5180F88D6128
:102DC00080F88F11BCD14BF20040C0F210000022FD
:102DD0006FF03B03CCF812000EEBC200017908EB58
:102DE000020484F8001290F82410057B84F8041281
:102DF00090F82C1084F8015290F8345084F80512A1
:102E00000EEB030184F8065291F8785091F8801087
:102E1000067D077F84F8075290F84C5084F808121A
:102E200090F8541084F8026284F8037284F809520E
:102E300090F85C5090F8646090F86C7084F80A1216
:102E400090F8741090F87C001032802A03F180030F
:102E500084F80B5284F80C6284F80D7284F80E1218
:102E600084F80F02B8D14BF20050C0F210000022DB
:102E7000CCF816000EEBC203597908EB020080F87B
:102E8000801293F825105C7B80F8841293F835103B
:102E900080F8814293F82D4080F8861293F845100F
:102EA00080F8854293F83D4080F8881293F85510D9
:102EB0005D7D5E7F80F8874293F84D4080F88A12EE
:102EC00093F8751080F8825280F8836280F8894206
:102ED00093F85D4093F8655093F86D6080F88E121A
:102EE00093F87D101032802A80F88B4280F88C5243
:102EF00080F88D6280F88F12BCD14BF20060C0F276
:102F000010000022CCF81A000EEBC203997908EBEE
:102F1000020080F8001393F826109C7B80F80413BD
:102F200093F8361080F8014393F82E4080F806138A
:102F300093F8461080F8054393F83E4080F8081354
:102F400093F856109D7D9E7F80F8074393F84E407E
:102F500080F80A1393F8761080F8025380F8036320
:102F600080F8094393F85E4093F8665093F86E60DA
:102F700080F80E1393F87E101032802A80F80B43ED
:102F800080F80C5380F80D6380F80F13BCD14BF21E
:102F90000070C0F210000022CCF81E000EEBC2033D
:102FA000D97908EB020080F8801393F82710DC7BB6
:102FB00080F8841393F8371080F8814393F82F40FA
:102FC00080F8861393F8471080F8854393F83F40C4
:102FD00080F8881393F85710DD7DDE7F80F88743F3
:102FE00093F84F4080F88A1393F8771080F8825353
:102FF00080F8836380F8894393F85F4093F86750C3
:1030000093F86F6080F88E1393F87F101032802A47
:1030100080F88B4380F88C5380F88D6380F88F1391
:10302000BCD1012740F6F8000CF10202C2F2000008
:10303000782104238CF80170BDE8F041FEF71AB83E
:103040007047000070470000FEF766BA7047000046
:10305000FEE7000090B0FEF76DFA00240120CDE9F4
:103060000B44CDE9094406900A904FF4E0104FF468
:10307000803102250F9006A8CDE90714CDE90D5146
:10308000FEF7F6FB20B1EFF3108072B6FEE700BF4B
:103090000F20CDE901054FF48060CDE9040401A8BB
:1030A00002210394FEF7EEFA20B1EFF3108072B61E
:1030B000FEE700BFFFF73EFCFFF722FCFFF75CFCDA
:1030C000FFF73CFDFFF77EFCFCE70000000000007E
:1030D00000000102030406070809000000000102C5
:1030E00003040102000000000000000000000000D6
:1030F00000000000000000000000000000000000D0
:1031000000000000000000000000000000000000BF
:1031100000000000000000000000000000000000AF
:103120000000000000000000000000060000000099
:103130000000001E00000000000000DE0000000093
:10314000000000D800000000000000D800000000CF
:10315000000000D800000000000000DE00000000B9
:10316000000000FE00000000000000F6000000006B
:1031700000000072000000000000000000000000DD
:103180000000007C00000000000000FE00000000C5
:10319000000000C600000000000000C600000000A3
:1031A000000000C600000000000000FE000000005B
:1031B0000000007C00000000000000000000000093
:1031C0000000001E00000000000000DE0000000003
:1031D000000000D600000000000000D60000000043
:1031E000000000D600000000000000D60000000033
:1031F000000000DE40000000000000FE6000000053
:103200000010006C7000000000300000780000002A
:1032100000F0007C7C00000007F000FE7E00000053
:103220003FF000C67F000001FFF000C67F80000F66
:10323000FFF000C67FC0007FFFF000FE7FE003FFCD
:10324000FFF0007C7FF03FFFFFF000027FF83FFFC0
:10325000FFF000067FFC3FFFFFF0001E7FFE3FFFF8
:10326000FFF000BC7FFF3FFFFFF000E07FFFBFFFEC
:10327000FF8000F87FFFFFFFFC00003E7FFFFFFFA5
:10328000E000000E7FFFFFFF000000B87FFFFFF8A7
:10329000000000E07FFFFFF0000000FE7FFFFFF076
:1032A0000000001E7FFFFFF0000000027FFFFFF024
:1032B000000000007FEFFFF0020000067FE7FFF054
:1032C0000200000E7FE3FFF00200001C7FE1FFF828
:1032D000030000BA7FE0FFFC030000F67FE07FFE02
:1032E000038000E67FE03FFF038000F67FE03FFFC2
:1032F00083C0003E7FE03FFFC3C0000E7FE03FFF82
:10330000E3E000027FE03FFFF3E000007FE03FFFEB
:10331000FBF000027FE03FFFFFF000667FE03FFF31
:10332000FFF800F67FE03FFFFFF800D67FE03FFFA9
:10333000FFFC00D67FF07FFFFFFC00D67FF8FFF791
:10334000FFFE00D67FFFFFF3FFFE00DE3FFFFFE141
:10335000FFFF008C3FFFFFE0FFCF00401FFFFFC0DB
:103360007FC780C01FFFFFC03FC380C00FFFFF802B
:103370001FC1C0FE07FFFF000FC0C0FE03FFFE001D
:1033800007C060C001FFFC0003C020C0007FF00048
:1033900001C00086000F800000C000160000000081
:1033A000004000D600000000000000D60000000031
:1033B000000000D600000000000000D60000000061
:1033C000000000D600000000000000D00000000057
:1033D000000000C000000000000000060000000027
:1033E0000000001E00000000000000DE00000000E1
:1033F000000000D800000000000000D8000000001D
:10340000000000D800000000000000DE0000000006
:10341000000000DE00000000000000F600000000D8
:10342000000000720000000000000000000000002A
:103430000000006200000000000000F60000000034
:10344000000000F600000000000000D600000000B0
:10345000000000D600000000000000D600000000C0
:10346000000000DE000000000000008C00000000F2
:10347000000000000000000000000000000000004C
:10348000000000000000000000000000000000003C
:10349000000000000000000000000000000000002C
:1034A000000000000000000000000000000000001C
:1034B000000000000000000000000000000000000C
:1034C00000000000000000000000000000000000FC
:1034D00000000000000000000000000000000000EC
:1034E0000000000002030405060708090A0B0C0D82
:1034F0000E0F1010183500080000002030000000EA
:10350000500100084835000830000020200F00005E
:103510007001000800000000010000001000000021
:10352000AE001040B081FFA1A6A83FC8D300D5804F
:10353000D805D9F1DA12DB308D14AF20000000007D
:083540000024F400000000006B
:04000005080000ED02
:00000001FF
