:020000040800F2
:10000000300B00205502000845240008051B00089D
:1000100041240008010400087934000800000000B1
:10002000000000000000000000000000B5330008E0
:100030001104000800000000B1330008B9330008C3
:100040006F0200086F0200086F0200086F020008CC
:100050006F0200086F0200086F0200086F020008BC
:100060006F0200086F0200086F0200086F020008AC
:100070006F0200086F0200086F0200086F0200089C
:100080006F0200086F0200086F0200086F0200088C
:100090006F0200086F0200086F0200086F0200087C
:1000A0006F0200086F0200086F0200086F0200086C
:1000B0006F0200086F0200086F0200086F0200085C
:1000C0006F020008091B00086F0200086F02000899
:1000D0006F0200086F0200086F0200086F0200083C
:1000E0006F0200086F0200086F0200086F0200082C
:1000F0006F0200086F0200086F0200080504000884
:100100006F0200086F0200086F0200086F0200080B
:100110006F0200086F0200086F0200086F020008FB
:100120006F0200086F0200086F0200086F020008EB
:100130006F0200086F0200086F0200086F020008DB
:100140006F0200086F0200086F0200086F020008CB
:100150006F0200086F0200086F0200086F020008BB
:100160006F0200086F0200086F0200086F020008AB
:100170006F0200086F0200086F0200080000000014
:100180006F0200086F02000800F002F800F052F859
:1001900014A696E8000CB244B344DA4501D100F04D
:1001A00049F8BAE80F000FA696E83000A5EB040561
:1001B00004EB0607AAEB0704A7F101074FEA1515A0
:1001C0004FEA3414A4F10104AC4201D300F032F838
:1001D00013F0010F18BFFB1A43F0010300F001F800
:1001E000DBE71847F836000018370000103A24BF44
:1001F00078C878C1FAD8520724BF30C830C144BF8C
:1002000004680C6070470000704700000023002461
:1002100000250026103A28BF78C1FBD8520728BF16
:1002200030C148BF0B6070471FB503F03AF91FBDDE
:1002300010B510BD00F0A9F81146FFF7F5FF03F067
:100240001DF900F0C7F803B4FFF7F2FF03BC00F09C
:10025000CFF800000948804709480047FEE7FEE75D
:10026000FEE7FEE7FEE7FEE7FEE7FEE7FEE7FEE766
:1002700004480549054A064B7047000065340008EC
:100280008901000830050020300B002030070020D5
:100290003007002053EA020C00F069802DE9F04B92
:1002A0004FF00006002B1FBFB3FA83F503FA05F4E5
:1002B00024FA05F65E4012BF1643B2FA82F502FA3E
:1002C00005F4C5F120051EBF22FA05FC44EA0C0422
:1002D000203556EA044C4FEA144418BF641C4FF012
:1002E00000084FF00009904271EB030C39D300294C
:1002F00019BFB1FA81F701FA07F6B0FA80F700FAF0
:1003000007F6C7F120071EBF20FA07FC46EA0C06D5
:100310002037B6FBF4FCA7EB0507103F07F01F0BD7
:10032000CBF120062CFA06F60CFA0BFB44BFB346C1
:100330000026202FA4BF5E464FF0000B5BEA060CA0
:1003400008BF4FF0010B19EB0B0948EB0608ABFB9C
:10035000027C06FB02CC0BFB03CCC01B71EB0C0137
:10036000C1E70B46024641464846BDE8F08B13B54F
:10037000084318BF4FF0FF300146AFF30080BDE8DF
:100380001C407047704770477047754600F02CF866
:10039000AE4605006946534620F00700854618B072
:1003A00020B5FFF765FFBDE820404FF000064FF095
:1003B00000074FF000084FF0000BAC46ACE8C00956
:1003C000ACE8C009ACE8C009ACE8C00921F00701FD
:1003D0008D46704710B50446AFF300802046BDE857
:1003E0001040FFF730BF00000048704710000020A9
:1003F00001491820ABBEFEE726000200704700004E
:10040000FEE7000040F27040C2F2000000F01EB8AB
:100410007047000072B600BFFEE7000090F835108C
:10042000022909D1052180F835100068016821F002
:100430000101016000207047802141650120704763
:10044000406D704790F8350070470000F0B581B0FE
:1004500004460020009040F20800C2F2000002684A
:10046000D4E9166048F2B51337680821C1F64E3357
:1004700081403942A2FB03250CD0226813685B0738
:1004800008D5136823F004031360B160616D41F077
:100490000101616501218140394208D02268526919
:1004A000120604D5B160616D41F00201616504215D
:1004B0008140394208D022681268920704D5B160A1
:1004C000616D41F00401616510218140394217D00E
:1004D00020680268120713D5B160026801685203F0
:1004E00008D4C90508D4016821F008010160216C15
:1004F00021B905E008033FD4216C09B120468847A3
:10050000E16D202000FA01F23A4241D020680368F0
:10051000DB063DD5B26094F835300268052B1BD15F
:1005200022F016020260426922F080024261226CCF
:100530000AB9A26C1AB1026822F0080202603F20D8
:100540008840B060012084F83500216D002000292A
:1005500084F8340052D157E00168520310D4C90521
:1005600012D4016821F010010160012084F83500E7
:10057000002084F8340007E0A16C0029BED1BFE759
:10058000080301D4616C00E0E16B09B120468847A3
:10059000606DC8B3606DC0072ED0052084F83500AB
:1005A0002068A90A026822F001020260009A013262
:1005B0008A4200921AD80268D20717D0009A0132F4
:1005C0008A42009212D80268D2070FD0009A0132F4
:1005D0008A4200920AD80268D20707D0009A0132F4
:1005E0008A42009202D80268D207DFD1012084F843
:1005F0003500002084F83400E16C29B1204601B0B8
:10060000BDE8F040084700BF01B0F0BD2DE9F04162
:10061000044600F0E3F9ECB10546022084F8350009
:100620000020216884F83400086820F00100086088
:1006300021680868C00711D000F0D0F9401B0528D8
:10064000F6D9032520230320636584F83550BDE8DF
:10065000F08100BF0120BDE8F08100BF086848F2CA
:100660003F02CFF21002D4E9013500EA020C04F196
:100670000C0898E8C10143EA0C032B431843D4E962
:10068000072E304338431043626A40EA0E00042AC2
:1006900040EA08031CD1206BD4E90A2E40EA0E0080
:1006A000184308604869BEF1000F20F0030040EADB
:1006B000020040F0040C11D0B8F5005F36D0B8F15C
:1006C000000F45D1022A46D0012A3BD032B942E080
:1006D0000B60486920F0070040EA020C01F0F800C6
:1006E0004AF6AB221038CAF6AA22A0FB02231A0946
:1006F00043F6D403C1F814C0C0F600039A5C40F27C
:10070000FF335F284FF03F0021EA030100FA02F0B7
:1007100088BF0431C4E91612886000230125002037
:10072000636584F83550BDE8F08100BF032AD5D851
:10073000012540230120DFE802F0030E030500BF7E
:1007400082E700BFAEF1C070B0FA80F0400904E06B
:10075000032A04D3C2D1CEF300600028BED0012505
:1007600040230120636584F83550BDE8F081000026
:1007700090F834C0BCF1010F04BF0220704770B57F
:100780004FF0010C80F834C0D0F858E090F835C034
:10079000BCF1010F38D14FF0020C80F835C04FF09A
:1007A000000CC0F854C0D0F800C08468056CC06D5F
:1007B000DCF80060402C26F48026CCF80060CCF8F1
:1007C00004300B4604BF13460A463F2101FA00F0ED
:1007D000CCF80830CCF80C20CEF80800DCF800008B
:1007E00040F01600CCF800002DB1DCF8000040F01D
:1007F0000800CCF80000DCF8000040F00100CCF864
:100800000000002070BD00BF002180F834100220DD
:1008100070BD0000B0B5044600F0E0F8054640F2B7
:100820000000C2F200000078611C18BF044400BF41
:1008300000F0D4F8401BA042FAD3B0BD2DE9F04F30
:1008400082B000F13E4707F1FF77860546EA972719
:1008500041F60046C4F20206082243F6004EB042BA
:1008600008BF0722C4F2010E072F38BF3A46002600
:1008700000274FF00008009209E000BF08F10108CE
:100880000237B8F1100F06F1040600F0A3800D68DE
:10089000012202FA08F415EA0409EFD0D1F804B0F5
:1008A00003220BF0030CACF10105BA40012D6FEAF5
:1008B000020A0FD88268CD6802EA0A02BD402A43C4
:1008C00082604268A243CBF3001404FA08F4224386
:1008D000426005E0BCF1030F02D14FF0030C1EE0B3
:1008E000C2688C6802EA0A02BC402243BCF1020FD3
:1008F000C26014D16FF0030202EA58020244D2F837
:1009000020C006F01C040F230D69A3402CEA03034A
:10091000A5402B431362D1F804B00BF0030C02681E
:100920000CFA07F302EA0A021A431BF4403F026082
:10093000A4D0002243F644030192C4F202031A68D1
:100940004FF6084C42F480421A601A68CFF6FF7CDA
:1009500002F480420192019A28F00302724452F894
:100960000C3006F00C050F24AC40A343009C04FAA5
:1009700005F52B4342F80C30DEF808204B6842EABC
:10098000090543F60C4CDC0258BF22EA0905CEF8F3
:100990000850C4F2010CDCF800209C0242EA090570
:1009A00058BF22EA0905CCF80050DEF804209C0369
:1009B00042EA090558BF22EA0905CEF80450DEF8DC
:1009C0000020DB0342EA090558BF22EA0905CEF8F8
:1009D000005053E702B0BDE8F08F000040F228500D
:1009E000C2F20000006870477047000070470000C6
:1009F000F0B581B0076804467868E26A94F83E3042
:100A000094F83DE0402B01D0102B1BD1BD697E69CD
:100A1000F10745D1B2F12A4F00F06082B2F52A0FFA
:100A200000F05C82310700F4007240F10981002A75
:100A300000F00681606B616C0028C9B2396140F03A
:100A4000EE80EEE0216C00F4007300290CBFBD695C
:100A500000257E69B1073DD5E3B3206C002818BF9F
:100A6000BD6994F83D0000F02800282874D178680A
:100A7000012120F48060786005F0040081EA900193
:100A800028064FF0180058BF0C20225A0023204699
:100A900084F83C3001B0BDE8F040FFF7A7BF00BFCD
:100AA000810541D44FF0010C79686A0742D40905E9
:100AB00000F1148206F04401402940F0318110F425
:100AC000806000F02D81204601B0BDE8F04001F0CB
:100AD000B3BA00BFF1064BD5002B49D094F83D5076
:100AE000786820F4E06078600020009078690090D9
:100AF000386840F0010038600098386820F4806061
:100B000038607868000540F1508105F0F70026460E
:100B1000222840F0298156F8380F0168496826F8E4
:100B20000E1C36F80E1C27E1E06AB0F52A0F51D1F1
:100B3000012054E0090500F1D18106F084018029EB
:100B400040F0FE8010F4806000F0FA80204601B092
:100B5000BDE8F04001F056BB00200090796900919B
:100B6000B9690091009984F83C0001B0F0BD00BF64
:100B70000EF0F701212940F0958006F084018029CC
:100B800040F0648110F4806000F0608194F83D00D2
:100B9000618D002900F0A281616A11F8012B3A6190
:100BA0006162618D01396185618D002908BF292845
:100BB00040F094817868282120F4806078602120BA
:100BC0002063204684F83D1001B0BDE8F04000F0FD
:100BD000F5BB00BFE06AB0F12A4F01D10820E06206
:100BE00094F83E0040280BD1206D616C002801F084
:100BF000FE0018BF40F00100386101B0F0BD00BF39
:100C00002069B0F5804F7BD194F83D00616C2128BC
:100C100001F0FE0118BF01313961606B08B1C06B92
:100C200038B9A06B002800F05981C06B002800F093
:100C30005581786840F40060786001B0F0BD00BF75
:100C40004FF0010CB1078CEA522C7FF52DAF002A32
:100C50003FF42AAF94F83E30E06A226B94F83D10DE
:100C6000222940F0FF80216D002908BF402B00F0B1
:100C7000F980216D002940F033812169B1F5404FA1
:100C800040F02E810020009078690090B8690090B3
:100C90000098386840F480703860206D013020651D
:100CA00001B0F0BD06F04401402940F0E58010F4A9
:100CB000806000F0E18094F83D00618D002900F033
:100CC0000D813969626A1170616A01316162618DF9
:100CD00001396185618D002908BF2A2840F0FE8016
:100CE0002068416821F4806141602220282120632E
:100CF000204684F83D1001B0BDE8F04000F05CBB38
:100D0000206D002800F0C880206D012840F0E680AA
:100D1000606C062101EAD010F130386101B0F0BDFD
:100D200006F00400012181EA900050EA0C0040F036
:100D3000D580204601B0BDE8F04001F001B900BF08
:100D400006F00400012181EA900050EA0C0040F016
:100D5000C580BEF1210F40F0B980204601B0BDE84A
:100D6000F04001F00DBA00BF56F8340F0168496831
:100D700026F80A1C36F80A1C19B1216C41F004014E
:100D80002164796821F400617960FFF75BFB012839
:100D90000BD0306841F61531C0F600010165FFF750
:100DA0003DFB10B13068016D8847608D60B12068EF
:100DB0004169490730D4416949063AD4608D18B178
:100DC000206C40F004002064206C28B1204601B063
:100DD000BDE8F04000F0EEBF2A2D07D100202063CF
:100DE000282084F83D00204600F0E6FA94F83D0003
:100DF000282859D10020CFF6FF70E0620021202082
:100E0000216384F83D00204684F83E1001B0BDE81F
:100E1000F04000F097B900BF0069616A0870616A2C
:100E2000206801316162618D01396185416949063E
:100E3000C4D50069616A0870606A01306062608DC3
:100E400001386085608D0028BAD1BDE7700745D5AF
:100E5000002B43D0608D002840D0606A10F8011B41
:100E6000396113E00020009078690090B869009023
:100E7000009801B0F0BD00BF70072FD573B3608D2F
:100E800060B33869616A0870606A01306062608DC1
:100E90000138608522E000BF606C062101EAD010B5
:100EA000F030386101B0F0BD206B222818BF222D30
:100EB00014D100212020216384F83D00204684F8CD
:100EC0003E1001B0BDE8F04000F076BA402B05D1ED
:100ED000204601B0BDE8F04001F0EEB901B0F0BD30
:100EE000618D51B1618D012916D1202818BF0828C4
:100EF00026D1386820F4806038600020009078693E
:100F00000090B86900900098386840F4007038602C
:100F10000020206501B0F0BD618D02290CD11028A0
:100F200032D8012114228140C0F2010211422BD09B
:100F30004FF480622EE000BF396841F480612BE0FD
:100F400010F5803F0CD1386820F4806038607868F4
:100F50000005D2D5386820F4806038602FE000BFEB
:100F6000122A01D10128C4D11028F3D8012101FA95
:100F700000F01421C0F201010842EBD0386840F4BF
:100F8000806038601BE000BF39684FF4006221F4D4
:100F900080613960396811433960796809050ED577
:100FA000421E1F2A16D80121914048F28102C8F240
:100FB000000211420ED0786840F480507860002022
:100FC000009078690090B869009000980020206532
:100FD00001B0F0BD10F5803FEDD0F0E770470000A4
:100FE000002804BF01207047F0B581B0044690F896
:100FF0003D0028B9002084F83C00204600F080F92C
:10100000242084F83D002068016821F0010101607E
:10101000016841F400410160016821F40041016070
:1010200000F038FB636848F2A16CC0F2010C40F696
:101030000011C0F23D0163453CBF48F28041C0F25F
:101040001E01884202D2012001B0F0BD4DF683613D
:10105000C4F21B31A0FB01122168970CD1F804E007
:101060004FF496762EF03F0545EA92454D60774362
:1010700048F638160D6AC0F24106A7FB067625F041
:101080003F07634538BF960C721C3A430A62CA692F
:1010900048F2A0664CF6FF77C0F20106B34222EA9E
:1010A00007020BD801385B00B0FBF3F001306FF39F
:1010B0001F30042898BF04201BE000BFA768013838
:1010C00057B119277B43B0FBF3F001306FF31F30AA
:1010D00070B100F5804007E003EB4303B0FBF3F091
:1010E00001306FF31F3018B100F5004001E000BF80
:1010F00001201043C8610868D4E9072320F0C0002C
:10110000104318430860886848F2FF3204F10C0766
:1011100090438CCF18431043A6698860C86820F0BC
:10112000FF0038433043C860086840F001000860A1
:1011300000202021206484F83D10206384F83E00C4
:1011400001B0F0BD7047000070470000704700001C
:1011500070B582B004460020019094F83D0020282C
:1011600037D140F20800C2F2000000684BF2895605
:10117000C008C1F2F846A0FB0606300A19267043E3
:101180000190019801380190019838B32568A86949
:1011900080071AD50198013801900198F0B12568AF
:1011A000A869800711D50198013801900198A8B16C
:1011B0002568A869800708D5019801380190019831
:1011C00060B12568A8698007DBD494F83C00012849
:1011D00014D10226304602B070BD00BF002020218D
:1011E000206384F83D1084F83E00206C022640F015
:1011F00020002064304602B070BD00BF012084F89A
:101200003C002868C00703D1286840F0010028602E
:101210002868002620F400602860212084F83D0022
:10122000102084F83E00266462626385638D00208E
:10123000CFF6FF702385E06261642BB3606BA8B3C7
:1012400041F6394C41F68541C0F6000CC0F600016C
:10125000C0E913C605F1100CC0E90F16114662462D
:10126000C0E91166FFF784FA80B3202084F83D00BE
:1012700084F83E60206C40F01000206484F83C60EC
:101280000126304602B070BD286840F480602860B6
:10129000286840F48070286084F83C60686840F4F6
:1012A000E0606860304602B070BD00BF202084F866
:1012B0003D00002084F83E00216C012641F08001B1
:1012C000216484F83C00304602B070BD206884F888
:1012D0003C60416841F440714160416841F4006103
:1012E0004160016841F480610160016841F48071EE
:1012F0000160304602B070BD7047000070470000CA
:1013000070B586B00446016845F60000C4F20000DE
:10131000814201D006B070BD002643F6300501962B
:10132000C4F202052968122241F0200129602968CF
:1013300000F5DE3001F020010191019903210292B4
:1013400001220191CDE903210421059101A9FFF7B3
:1013500075FA009628694FF0606140F480002861BA
:10136000286940F2704500F480000090009846F231
:10137000B800C2F20005C4F2020040224FF48063BC
:1013800085E847002846C5E90436C5E90666C5E98B
:101390000866FFF73BF9002818BFFFF73BF821204C
:1013A000002100226563AC6300F086F8212000F084
:1013B00071F806B070BD0000704700007047000073
:1013C00040F2000040F22851C2F20000C2F20001D7
:1013D00000780A68104408607047000080B543F642
:1013E0000040C4F20200016841F40071016001682C
:1013F00041F480610160016841F480710160032063
:1014000000F086F80F2000F005F800F027F8002023
:1014100080BD000070B540F20006C2F2000640F246
:1014200008013278C2F200014FF47A730968B3FB05
:10143000F2F20446B1FBF2F1084600F04DFB0F2C2E
:101440004FF0010508D838B94FF0FF30214600228F
:10145000002500F031F87460284670BD82B000208D
:1014600043F640010190C4F202014A6842F480420E
:101470004A604A6802F480420192019A009008682A
:1014800040F080500860086800F08050009000989C
:1014900002B07047002848BF704700F01F010122CA
:1014A00002FA01F11C2202EAD0004EF20012CEF242
:1014B000000281507047000010B54EF60C5CCEF271
:1014C000000CDCF80030C3F3022E8EF00704042C6D
:1014D00028BF0424BEF103034FF0FF3E0EFA04F4CC
:1014E00038BF0023A14399400EFA03F39A431143F6
:1014F00000F00F0200F160430901043A03F5644370
:101500006244002848BF02F10C03197010BD0000AE
:101510004EF60C51CEF200010A684FF6FF031A4056
:1015200060F30A2242F0806040F0FD70086070476E
:10153000002804BF012070472DE9F04143F6080858
:10154000C4F202080446D8F8F8030D4600F007007C
:10155000884207D288F8F853D8F8F80300F007005B
:10156000A84277D12068810717D5410705D5D8F85B
:10157000001041F4E051C8F80010010705D5D8F873
:10158000001041F46041C8F80010D8F80010A268BB
:1015900021F0F0011143C8F80010C00740D1D8F87D
:1015A000F80300F00700A84207D988F8F853D8F8E4
:1015B000F80300F00700A8424CD12068410707D586
:1015C000D8F80010E26821F4E0511143C8F8001087
:1015D000000708D5D8F80000216920F4604040EAEF
:1015E000C100C8F8000000F069F8D8F8001043F214
:1015F000BC42C1F30311C0F60002515C40F2080284
:1016000020FA01F140F20400C2F200000068C2F2C8
:1016100000021160FFF7FEFE0020BDE8F08100BF70
:101620006068811E022907D258F8081C89015CBF36
:101630000120BDE8F08111E0012807D158F8081C0D
:1016400089035CBF0120BDE8F08107E058F8081C61
:10165000890703D40120BDE8F08100BFD8F800104D
:1016600021F003010843C8F80000FFF7B7F9064668
:1016700041F28837D8F80000616800F00C00B0EB48
:10168000810F8CD0FFF7AAF9801BB842F2D9032052
:10169000BDE8F08140F2080043F60801C2F2000004
:1016A000C4F202010068096843F2CC42C1F382210E
:1016B000C0F60002515CC8407047000010B543F608
:1016C0000404C4F20204606800F00C0008280BD087
:1016D000042819BF42F20040C0F2F40041F6003085
:1016E000C0F2B70010BD00BF20682168236849021E
:1016F00041F60031C0F2B70100F03F02C3F3881099
:101700005CBF42F20041C0F2F401A1FB00010023E2
:10171000FEF7C0FD21680222C1F3014102EB410145
:10172000B0FBF1F010BD0000002804BF012070479D
:101730002DE9F04182B00446007843F60006C00768
:10174000C4F202060CD0B06800F00C00042840F08F
:1017500081803068800303D56068002800F06A81CA
:10176000207880071BD5B06810F00C0F09D0B06846
:1017700000F00C00082840F087807068400200F1FB
:1017800083803068800703D5E068012840F05281EB
:101790003068216920F0F80040EAC100306020780C
:1017A000000713D4207840072AD4A569002D00F043
:1017B0003C81B06800F00C00082840F0A180012DA9
:1017C00040F01081012002B0BDE8F081606900287E
:1017D00040F20000C4F2472000F07E800121C0F8F2
:1017E000801EFFF7FBF80546706F8007DAD4FFF71D
:1017F000F5F8401B0228F7D9032002B0BDE8F081BC
:10180000306C5FEAC0080AD400200190306C40F0D0
:1018100080503064306C00F080500190019847F2A5
:101820000007C4F200073868C00547D4386840F4A0
:1018300080703860FFF7D2F8054600BF3868C005F1
:101840003CD4FFF7CBF8401B0228F7D9032002B0A5
:10185000BDE8F081B06800F00C00082803D1706882
:1018600040023FF576AF6068B0F5803F07D0B0F535
:10187000A02F40F09B80306840F4802030603068BA
:1018800040F4803030609BE0E06800285CD00020AD
:10189000C4F2472001210160FFF7A0F8054600BF10
:1018A000306880073FF574AFFFF798F8401B0228B7
:1018B000F6D9032002B0BDE8F08100BFA06801287E
:1018C00005D0052854D1306F40F004003067306FE8
:1018D00040F00100306755E00021C0F8801EFFF79E
:1018E0007DF80546706F80077FF55CAFFFF776F8EF
:1018F000401B0228F6D9032002B0BDE8F08100BFEA
:101900000027C4F2472700203866FFF767F8022D4A
:1019100005460DD13068800140F19080FFF75EF8F8
:10192000401B02284FF00300F4D902B0BDE8F0815B
:101930003068800179D5FFF751F8401B02284FF03D
:101940000300F5D9F1E700BF0020C4F247200021D1
:101950000160FFF743F80546306880077FF51FAF49
:10196000FFF73CF8401B02284FF00300F4D9DCE7F6
:10197000316F002821F001013167316F21F004013E
:1019800031677DD0FFF72AF8054641F2883700BF5E
:10199000306F800700F18680FFF720F8401BB842C7
:1019A000F6D9032002B0BDE8F08100BF31680028FD
:1019B00021F480313160316821F4802131607BD0A5
:1019C000FFF70CF8054600BF306880033FF5C8AE4E
:1019D000FFF704F8401B6428F6D9032002B0BDE8E5
:1019E000F08100BF7068E16900F480028A4221D171
:1019F000216A00F03F028A421CD147F6C071626A38
:101A00000140B1EB821F15D1A16A4FF6FF73C903E4
:101A1000994300F44032A1F580318A420AD1E16A4B
:101A200000F07060B0EB016F04D1002002B0BDE89F
:101A3000F08100BF012002B0BDE8F08104F11C0577
:101A40002FCD084340EA8210D9034FF6FF7291432D
:101A5000A1F5803140EA05600843706001203866D6
:101A6000FEF7BCFF044600BF30688001DDD4FEF7FE
:101A7000B5FF001B02284FF00300F5D955E700BF62
:101A8000FEF7ACFF054641F2883700BF306F800794
:101A900008D5FEF7A3FF401BB8424FF00300F5D96D
:101AA00043E700BFB8F1000F3FF57FAE306C20F088
:101AB0008050306479E600BFFEF790FF054600BF16
:101AC000306880037FF54CAEFEF788FF401B64282A
:101AD0004FF00300F4D928E7411E0020B0EB116F4E
:101AE0001CBF012070474EF21002CEF2000251607E
:101AF0004EF62351CEF20001F0230B7007219060C7
:101B000011607047FEE7000040F2D040C2F20000D2
:101B1000FEF76EBF10B581B000210091806B40F2DE
:101B20000801C2F2000190F83DC009684BF28952E9
:101B3000C908C1F2F842A1FB0212110A2322514343
:101B40000091009911B30099013900910168096869
:101B500089051FD50099C9B1009901390091016823
:101B60000968890516D5009981B10099013900915C
:101B70000168096889050DD5009939B100990139C5
:101B80000091016809688905DBD403E0016C41F02C
:101B900020010164446B4FF0000E002C1CBF00219B
:101BA000E163816B00291CBF0022CA630268002C1C
:101BB000136823F480631360A0F82AE018BFC4F808
:101BC00050E000291CBF00230B65116821F00101C2
:101BD000116090F83D1060290CD1202180F83D1053
:101BE000002180F83E10016401B0BDE81040FEF70E
:101BF000FBBE00BF0CF02801282911D1116841F06B
:101C000001011160116841F48061116000210163DC
:101C1000282180F83D1001B0BDE81040FFF7DEB983
:101C2000202180F83D10002180F83E1001B0BDE871
:101C30001040FFF7D3B9000010B5846B616B002929
:101C40001CBF0022CA63A16B00291CBF0022CA630B
:101C5000FEF7F6FB022808BF10BD2068016821F4DA
:101C60008061016000202021608584F83D1084F8A7
:101C70003E00206C40F0100120462164BDE8104079
:101C8000FFF7ACB910B5846B94F83D2094F83EE0B2
:101C9000D4F82CC02168606B4B68002823F4407393
:101CA0004B601CBF0023C363A06B00281CBF002334
:101CB000C36302F02100212820D002F02200222854
:101CC00008BFBEF1200F19D094F83E00002808BFCD
:101CD00010BD608D012803D1086820F48060086081
:101CE0004868BCF1070F20F44070486028DCBCF164
:101CF0002A4F2BD01CF5803F28D02BE048682A2A99
:101D000020F4006048604FF0000060850AD0292A66
:101D100010D121202063282084F83D002046FFF7C1
:101D20004DFB07E022202063282084F83D00204658
:101D3000FFF742FB2068416841F44071416010BDEB
:101D4000BCF1200F02D0BCF1080F03D1086840F4A9
:101D500000700860486820F480504860486820F4AB
:101D60000060486000216185206C28B12046BDE8F4
:101D70001040FFF733B900BF202084F83D0094F8ED
:101D80003E0084F83E10402806D120462163BDE87D
:101D90001040FFF7B1BA00BFBCF1080018BF122015
:101DA000BCF1200118BF014620462163BDE8104068
:101DB000FFF7CAB910B5044690F83D1090F83E0000
:101DC000B0F1100218BF0122403818BF01200242B2
:101DD00008BF222934D001F0280028283AD1002059
:101DE0002063282084F83D0020684168090542D519
:101DF000416821F400614160606B90F83510012961
:101E000058D1A06B41F61531C0F600010165FEF70F
:101E100005FB002861D020684169490606D50069A4
:101E2000616A0870616A206801316162016821F0AD
:101E300001010160202084F83D00A06B4BE000BF51
:101E40002068026822F4006202604268120505D52B
:101E50000CE000BF20684268120507D4602905D055
:101E6000202184F83D10002184F83E1000212163D8
:101E700041680905BCD494F83D10602950D1202157
:101E800084F83D10002121644169490606D50069A6
:101E9000616A0870616A206801316162016821F03D
:101EA000010101602046FEF79FFD206C000717D15D
:101EB0001BE000BF41F61531C0F600010165FEF7D9
:101EC000ADFA50B12168606B0A6822F001020A6025
:101ED000202184F83D10016D8847206C000704D054
:101EE0002068416821F4E061416094F83D00216C74
:101EF000490758BF10BD282810D10020CFF6FF7029
:101F0000E06200212020216384F83D00204684F80F
:101F10003E10BDE81040FFF715B900BF10BD00BF6F
:101F20004169490605D50069616A0870606A013037
:101F300060622046FFF752F8206C0007D0D1D4E74A
:101F4000C16A428D042A07D10168426A4B6823F4B2
:101F500080634B60096911E0428D032A16D1026843
:101F60000229536823F48063536005D0042903D009
:101F7000116821F4806111601169426A1170416A2F
:101F800001314162418D013941857047428D022AFC
:101F900012D14A1E0F2A19D8DFE802F008121812CF
:101FA000181818181818181818181808026813683C
:101FB00023F480630EE000BF0168426ACAE700BFF5
:101FC0000268136843F4806304E000BF026813688A
:101FD00043F4007313601269436A1A70426AD0F8BE
:101FE00000C0531C4362438D013B4385DCF8103035
:101FF0005370426A036801324262428D013A42855F
:102000005A6822F440725A60202280F83D2090F8ED
:102010003E300022402B80F83E2003D10263FFF7C0
:102020006BB900BFB1F1080218BF1222203918BFE6
:1020300011460163FFF788B881B090F83D1022295E
:1020400010D1C16A428D042A0ED30168426A09691F
:102050001170416A01314162418D01394185418DE3
:1020600003295DD001B07047C36A012A58D8022BFA
:1020700056D00022009240F20802C2F2000212681A
:102080004BF28953D208C1F2F843A2FB03231A0A88
:1020900002EB82020092009A013A0092009A002A12
:1020A00046D0026813689B051AD5009A013A00923F
:1020B000009AEAB3026813689B0511D5009A013AA9
:1020C0000092009AA2B3026813689B0508D5009A93
:1020D000013A0092009A5AB3026813689B05DAD459
:1020E000136823F480631360536823F4E063536040
:1020F0001269436A1A70426A01324262428D013AA1
:102100004285202280F83D2090F83E300022402B6E
:1021100080F83E2028D1026301B0FFF7EDB800BF80
:102120000068416821F48061416001B0704700BFE0
:10213000016C41F0200101640168426A4B6823F49C
:10214000E0634B6009691170416A01314162418D60
:1021500001394185202180F83D10002180F83E1092
:1021600001B0FEF73BBF00BFB1F1080218BF122259
:10217000203918BF1146016301B0FEF7E5BF00002A
:10218000C16A90F83D20212A18BF7047428D4AB19C
:10219000416A026811F8013B13614162418D0139C6
:1021A0004185704711F5803F18BF082918D1016893
:1021B0004A6822F4E0624A600A6842F400720A60E7
:1021C00000212022016380F83D2090F83E2080F815
:1021D0003E10402A08BFFFF791B8FEF7B7BF00BF17
:1021E0002029E4D001684A6822F4E0624A601121A3
:1021F0000163002180F83E10202180F83D10FEF799
:10220000A5BF000090F83D1090F83EC0C26A038D53
:10221000002B08BF212919D0212905D0BCF1400F7E
:1022200008BF222900D07047418D69B390F83E1055
:10223000402908BF00F040B8416A026811F8013B2C
:1022400013614162418D01394185704712F5803F2C
:1022500018BF082A1ED101684A6822F4E0624A6069
:102260000A6842F400720A6000212022016380F8AB
:102270003D2090F83E2080F83E10402A08BFFFF72E
:102280003DB8FEF763BF00BF0068416821F480617C
:1022900041607047202ADED001684A6822F4E0627B
:1022A0004A6011210163002180F83E10202180F84E
:1022B0003D10FEF74BBF000090F83D10026D5AB183
:1022C000026D012A14D10168826CD2B20A61016DDB
:1022D00001310165704700BFC26C816C012A15D1C4
:1022E0000268C9B21161016D02310165704700BF1A
:1022F000026D022A12D1222918D101680A6842F41B
:1023000080720A60016D0131016570470268C1F396
:1023100007211161016D0131016570470068416954
:10232000090644BF00210161704700BF428D5AB1C8
:10233000212909D1416A026811F8013B1361416208
:10234000418D013941857047428D002A08BF2129FE
:10235000EAD101684A6822F4E0624A600A6842F4FD
:1023600000720A6000212022016380F83D2080F87D
:102370003E10FEF7C3BF000080B582B00020019080
:1023800043F63000C4F202000168002241F400115B
:1023900001600068002100F40010019001982F20D6
:1023A000FFF78AF82F2002B0BDE88040FFF772B82F
:1023B00083B0002043F630010290C4F202010A68A3
:1023C00042F001020A600A6802F001020292029AD7
:1023D00001900A6842F020020A600A6802F02002B6
:1023E0000192019A0090086840F080000860086837
:1023F00000F080000090009803B0704780B540F274
:10240000D04045F60001C2F20000C4F2000141F6DE
:10241000802200234FF4804CC0F2060280E80E00B8
:10242000C0E9033CC0E90533C0E90733FEF7D8FD36
:10243000002808BF80BDBDE88040FDF7EBBF00006D
:10244000FEE70000FEE700002DE9F0414FF60044F2
:10245000CFF6FF7440F27000C2F200000021224665
:10246000831812F5807283F8001483F8081483F837
:10247000101483F8181483F8201483F8281483F8B0
:10248000301483F8381483F8401483F8481483F820
:10249000501483F8581483F8601483F8681483F890
:1024A000701483F8781483F8801483F8881483F800
:1024B000901483F8981483F8A01483F8A81483F870
:1024C000B01483F8B81483F8C01483F8C81483F8E0
:1024D000D01483F8D81483F8E01483F8E81483F850
:1024E000F01483F8F814BBD100212246831812F5AA
:1024F000807283F8011483F8091483F8111483F8A7
:10250000191483F8211483F8291483F8311483F8FB
:10251000391483F8411483F8491483F8511483F86B
:10252000591483F8611483F8691483F8711483F8DB
:10253000791483F8811483F8891483F8911483F84B
:10254000991483F8A11483F8A91483F8B11483F8BB
:10255000B91483F8C11483F8C91483F8D11483F82B
:10256000D91483F8E11483F8E91483F8F11483F89B
:10257000F914BBD100212246831812F5807283F82A
:10258000021483F80A1483F8121483F81A1483F8D7
:10259000221483F82A1483F8321483F83A1483F847
:1025A000421483F84A1483F8521483F85A1483F8B7
:1025B000621483F86A1483F8721483F87A1483F827
:1025C000821483F88A1483F8921483F89A1483F897
:1025D000A21483F8AA1483F8B21483F8BA1483F807
:1025E000C21483F8CA1483F8D21483F8DA1483F877
:1025F000E21483F8EA1483F8F21483F8FA14BBD1D6
:1026000000212246831812F5807283F8031483F8A0
:102610000B1483F8131483F81B1483F8231483F822
:102620002B1483F8331483F83B1483F8431483F892
:102630004B1483F8531483F85B1483F8631483F802
:102640006B1483F8731483F87B1483F8831483F872
:102650008B1483F8931483F89B1483F8A31483F8E2
:10266000AB1483F8B31483F8BB1483F8C31483F852
:10267000CB1483F8D31483F8DB1483F8E31483F8C2
:10268000EB1483F8F31483F8FB14BBD1002122462A
:10269000831812F5807283F8041483F80C1483F8FD
:1026A000141483F81C1483F8241483F82C1483F86E
:1026B000341483F83C1483F8441483F84C1483F8DE
:1026C000541483F85C1483F8641483F86C1483F84E
:1026D000741483F87C1483F8841483F88C1483F8BE
:1026E000941483F89C1483F8A41483F8AC1483F82E
:1026F000B41483F8BC1483F8C41483F8CC1483F89E
:10270000D41483F8DC1483F8E41483F8EC1483F80D
:10271000F41483F8FC14BBD100212246831812F56F
:10272000807283F8051483F80D1483F8151483F868
:102730001D1483F8251483F82D1483F8351483F8B9
:102740003D1483F8451483F84D1483F8551483F829
:102750005D1483F8651483F86D1483F8751483F899
:102760007D1483F8851483F88D1483F8951483F809
:102770009D1483F8A51483F8AD1483F8B51483F879
:10278000BD1483F8C51483F8CD1483F8D51483F8E9
:10279000DD1483F8E51483F8ED1483F8F51483F859
:1027A000FD14BBD100212246831812F5807283F8F4
:1027B000061483F80E1483F8161483F81E1483F895
:1027C000261483F82E1483F8361483F83E1483F805
:1027D000461483F84E1483F8561483F85E1483F875
:1027E000661483F86E1483F8761483F87E1483F8E5
:1027F000861483F88E1483F8961483F89E1483F855
:10280000A61483F8AE1483F8B61483F8BE1483F8C4
:10281000C61483F8CE1483F8D61483F8DE1483F834
:10282000E61483F8EE1483F8F61483F8FE14BBD193
:1028300000212246831812F5807283F8071483F86A
:102840000F1483F8171483F81F1483F8271483F8E0
:102850002F1483F8371483F83F1483F8471483F850
:102860004F1483F8571483F85F1483F8671483F8C0
:102870006F1483F8771483F87F1483F8871483F830
:102880008F1483F8971483F89F1483F8A71483F8A0
:10289000AF1483F8B71483F8BF1483F8C71483F810
:1028A000CF1483F8D71483F8DF1483F8E71483F880
:1028B000EF1483F8F71483F8FF14BBD140F27008CB
:1028C00043F2D440C2F200080021C0F600004246A4
:1028D00009E000BF382901F1080100F1010002F10F
:1028E000010280F09D80002305E000BF02F83370F4
:1028F0000133802BEED010F9336041EA0305B6F1C5
:10290000FF3F07DD2F060DD412F8337007F0FE07E6
:1029100006E000BF2F0605D412F8337047F0010718
:1029200002F83370F6B2770606D42F060CD412F8EC
:10293000337007F0FD0705E02F0605D412F8337059
:1029400047F0020702F83370B70607D42F060DD4FC
:1029500012F8337007F0FB0706E000BF2F0605D41E
:1029600012F8337047F0040702F83370F70607D403
:102970002F060DD412F8337007F0F70706E000BFFA
:102980002F0605D412F8337047F0080702F83370A9
:10299000370707D42F060DD412F8337007F0EF076E
:1029A00006E000BF2F0605D412F8337047F0100779
:1029B00002F83370770707D42F060DD412F833705E
:1029C00007F0DF0706E000BF2F0605D412F83370CA
:1029D00047F0200702F83370B70707D42F060DD44D
:1029E00012F8337007F0BF0706E000BF2F0605D4CA
:1029F00012F8337047F0400702F83370F70707D139
:102A00002F063FF575AF12F8337007F07F076DE7BB
:102A10002F063FF56DAF12F8337047F0800765E77A
:102A200000F044FB0020214608EB010211F5807103
:102A300082F8000482F8080482F8100482F818046E
:102A400082F8200482F8280482F8300482F83804DE
:102A500082F8400482F8480482F8500482F858044E
:102A600082F8600482F8680482F8700482F87804BE
:102A700082F8800482F8880482F8900482F898042E
:102A800082F8A00482F8A80482F8B00482F8B8049E
:102A900082F8C00482F8C80482F8D00482F8D8040E
:102AA00082F8E00482F8E80482F8F00482F8F8047E
:102AB000BAD10020214600BF08EB010211F5807158
:102AC00082F8010482F8090482F8110482F81904DA
:102AD00082F8210482F8290482F8310482F839044A
:102AE00082F8410482F8490482F8510482F85904BA
:102AF00082F8610482F8690482F8710482F879042A
:102B000082F8810482F8890482F8910482F8990499
:102B100082F8A10482F8A90482F8B10482F8B90409
:102B200082F8C10482F8C90482F8D10482F8D90479
:102B300082F8E10482F8E90482F8F10482F8F904E9
:102B4000BAD10020214600BF08EB010211F58071C7
:102B500082F8020482F80A0482F8120482F81A0445
:102B600082F8220482F82A0482F8320482F83A04B5
:102B700082F8420482F84A0482F8520482F85A0425
:102B800082F8620482F86A0482F8720482F87A0495
:102B900082F8820482F88A0482F8920482F89A0405
:102BA00082F8A20482F8AA0482F8B20482F8BA0475
:102BB00082F8C20482F8CA0482F8D20482F8DA04E5
:102BC00082F8E20482F8EA0482F8F20482F8FA0455
:102BD000BAD10020214600BF08EB010211F5807137
:102BE00082F8030482F80B0482F8130482F81B04B1
:102BF00082F8230482F82B0482F8330482F83B0421
:102C000082F8430482F84B0482F8530482F85B0490
:102C100082F8630482F86B0482F8730482F87B0400
:102C200082F8830482F88B0482F8930482F89B0470
:102C300082F8A30482F8AB0482F8B30482F8BB04E0
:102C400082F8C30482F8CB0482F8D30482F8DB0450
:102C500082F8E30482F8EB0482F8F30482F8FB04C0
:102C6000BAD10020214600BF08EB010211F58071A6
:102C700082F8040482F80C0482F8140482F81C041C
:102C800082F8240482F82C0482F8340482F83C048C
:102C900082F8440482F84C0482F8540482F85C04FC
:102CA00082F8640482F86C0482F8740482F87C046C
:102CB00082F8840482F88C0482F8940482F89C04DC
:102CC00082F8A40482F8AC0482F8B40482F8BC044C
:102CD00082F8C40482F8CC0482F8D40482F8DC04BC
:102CE00082F8E40482F8EC0482F8F40482F8FC042C
:102CF000BAD10020214600BF08EB010211F5807116
:102D000082F8050482F80D0482F8150482F81D0487
:102D100082F8250482F82D0482F8350482F83D04F7
:102D200082F8450482F84D0482F8550482F85D0467
:102D300082F8650482F86D0482F8750482F87D04D7
:102D400082F8850482F88D0482F8950482F89D0447
:102D500082F8A50482F8AD0482F8B50482F8BD04B7
:102D600082F8C50482F8CD0482F8D50482F8DD0427
:102D700082F8E50482F8ED0482F8F50482F8FD0497
:102D8000BAD10020214600BF08EB010211F5807185
:102D900082F8060482F80E0482F8160482F81E04F3
:102DA00082F8260482F82E0482F8360482F83E0463
:102DB00082F8460482F84E0482F8560482F85E04D3
:102DC00082F8660482F86E0482F8760482F87E0443
:102DD00082F8860482F88E0482F8960482F89E04B3
:102DE00082F8A60482F8AE0482F8B60482F8BE0423
:102DF00082F8C60482F8CE0482F8D60482F8DE0493
:102E000082F8E60482F8EE0482F8F60482F8FE0402
:102E1000BAD1002008EB040114F5807481F807048E
:102E200081F80F0481F8170481F81F0481F8270442
:102E300081F82F0481F8370481F83F0481F84704B2
:102E400081F84F0481F8570481F85F0481F8670422
:102E500081F86F0481F8770481F87F0481F8870492
:102E600081F88F0481F8970481F89F0481F8A70402
:102E700081F8AF0481F8B70481F8BF0481F8C70472
:102E800081F8CF0481F8D70481F8DF0481F8E704E2
:102E900081F8EF0481F8F70481F8FF04BAD1BDE8A6
:102EA000F08100002DE9F04140F2245440F2D04579
:102EB000C2F200044FF42E40C2F2000520802846E2
:102EC000782122460223FEF743F94FF400582846A2
:102ED000782122460223A4F80080FEF739F94FF446
:102EE000805628467821224602232680FEF730F9B4
:102EF0004FF4304020802846782122460223FEF7F6
:102F000027F94FF4484020802846782122460223A2
:102F1000FEF71EF900272846782122460223278043
:102F2000FEF716F928467821224602232680FEF76E
:102F30000FF94FF480402080284678212246022352
:102F4000FEF706F94FF401402080284678212246FA
:102F50000223FEF7FDF84FF47F40208028467821B9
:102F600022460223FEF7F4F84FF421402080284641
:102F7000782122460223FEF7EBF84FF4264020800A
:102F80002846782122460223FEF7E2F84FF4284033
:102F900020802846782122460223FEF7D9F84FF4F4
:102FA0007C5020802846782122460223FEF7D0F864
:102FB0004FF4244020802846782122460223FEF741
:102FC000C7F84FF453402080284678212246022338
:102FD000FEF7BEF828467821224602232780FEF716
:102FE000B7F84FF455402080284678212246022326
:102FF000FEF7AEF84FF47040208028467821224634
:103000000223FEF7A5F84FF4594020802846782186
:1030100022460223FEF79CF84FF4085020802846F1
:10302000782122460223FEF793F84FF45A4020807D
:103030002846782122460223FEF78AF84FF4905062
:1030400020802846782122460223FEF781F84FF49B
:103050005B4020802846782122460223FEF778F83C
:103060002846782122460223A4F80080FEF770F853
:103070004FF40D4020802846782122460223FEF797
:1030800067F84FF4A050208028467821224602237A
:10309000FEF75EF84FF42F47284678212246022398
:1030A0002780BDE8F041FEF753B800002DE9F0435A
:1030B00081B040F2245440F2D045C2F200044FF4F3
:1030C0003040C2F2000520802846782122460223A3
:1030D000FEF73EF84FF480502080284678212246A3
:1030E0000223FEF735F8002020802846782122466A
:1030F0000223FEF72DF840F270086FF00706C2F2C7
:103100000008402708EB0600007A78216070284606
:10311000224602232770FEF71BF80836B6F57E7F9D
:10312000F0D140F2D0494FF43140C2F20009208082
:103130004846782122460223FEF70AF84FF48050D1
:1031400020804846782122460223FEF701F800201D
:1031500020804846782122460223FDF7F9FFA8F196
:1031600007078026402500BF17F8080F78216070F8
:103170004846224602232570FDF7EAFF013EF3D1BF
:1031800040F2D0494FF43240C2F200092080484654
:10319000782122460223FDF7DBFF4FF48050208088
:1031A0004846782122460223FDF7D2FF00202080E6
:1031B0004846782122460223FDF7CAFFA8F10607F8
:1031C0008026402517F8080F78216070484622466F
:1031D00002232570FDF7BCFF013EF3D140F2D04938
:1031E0004FF43340C2F2000920804846782122463D
:1031F0000223FDF7ADFF4FF4805020804846782130
:1032000022460223FDF7A4FF0020208048467821B3
:1032100022460223FDF79CFFA8F1050780264025E2
:1032200017F8080F7821607048462246022325705F
:10323000FDF78EFF013EF3D140F2D0494FF4344008
:10324000C2F2000920804846782122460223FDF779
:103250007FFF4FF480502080484678212246022389
:10326000FDF776FF00202080484678212246022381
:10327000FDF76EFFA8F104078026402517F8080F18
:10328000782160704846224602232570FDF760FFD2
:10329000013EF3D140F2D0494FF43540C2F200096B
:1032A00020804846782122460223FDF751FF4FF443
:1032B000805020804846782122460223FDF748FFAF
:1032C000002020804846782122460223FDF740FF57
:1032D000A8F103078026402517F8080F78216070B1
:1032E0004846224602232570FDF732FF013EF3D106
:1032F00040F2D0494FF43640C2F2000920804846DF
:10330000782122460223FDF723FF4FF480502080CE
:103310004846782122460223FDF71AFF002020802C
:103320004846782122460223FDF712FFA8F1020742
:103330008026402517F8080F7821607048462246FD
:1033400002232570FDF704FF013EF3D140F2D0497E
:103350004FF43740C2F200092080484678212246C7
:103360000223FDF7F5FE4FF4805020804846782177
:1033700022460223FDF7ECFE0020208048467821FB
:1033800022460223FDF7E4FEA8F10106802740252E
:1033900016F8080F782160704846224602232570EF
:1033A000FDF7D6FE013FF3D101B0BDE8F083000088
:1033B0007047000070470000FEF702B8B0B592B049
:1033C000002443F64000CDE90A44CDE908440594C1
:1033D000CDE90344CDE901440094C4F20200016840
:1033E000022541F080510160006800F0805000909B
:1033F000009847F200000094C4F20000016841F414
:1034000080410160006800F4804000900098012035
:1034100006904FF4803007904FF480000D90062006
:103420000E90A820CDE90F050420119006A80C9558
:10343000FEF77AF910B172B6FEE700BF0F20CDE9B2
:1034400001054FF4A05004904FF48050059001A85E
:1034500005210394FEF76CF810B172B6FEE700BFC9
:1034600012B0B0BD4EF68850CEF20000016841F4B3
:103470007001016070470000FEE70000FDF7AEFF3D
:10348000FFF79CFFFEF794FFFEF776FFFEF7B6FF0F
:10349000FFF708FDFEF7D8FF4FF47A70FDF7BAF991
:1034A000F8E7F1EE100A4FF6FF71C0F2C03120EAE2
:1034B000010040F04070E1EE100A7047000000008B
:1034C00000000000010203040607080900000000D4
:1034D00001020304000000000000000000000000E2
:1034E00000000000000000000000000000000000DC
:1034F00000000000000000000000000000000000CC
:1035000000000000000000000000000000000000BB
:1035100000000000000000000000000600000000A5
:103520000000001E00000000000000DE000000009F
:10353000000000D800000000000000D800000000DB
:10354000000000D800000000000000DE00000000C5
:10355000000000FE00000000000000F60000000077
:1035600000000072000000000000000000000000E9
:103570000000007C00000000000000FE00000000D1
:10358000000000C600000000000000C600000000AF
:10359000000000C600000000000000FE0000000067
:1035A0000000007C0000000000000000000000009F
:1035B0000000001E00000000000000DE000000000F
:1035C000000000D600000000000000D6000000004F
:1035D000000000D600000000000000D6000000003F
:1035E000000000DE40000000000000FE600000005F
:1035F0000010006C70000000003000007800000037
:1036000000F0007C7C00000007F000FE7E0000005F
:103610003FF000C67F000001FFF000C67F80000F72
:10362000FFF000C67FC0007FFFF000FE7FE003FFD9
:10363000FFF0007C7FF03FFFFFF000027FF83FFFCC
:10364000FFF000067FFC3FFFFFF0001E7FFE3FFF04
:10365000FFF000BC7FFF3FFFFFF000E07FFFBFFFF8
:10366000FF8000F87FFFFFFFFC00003E7FFFFFFFB1
:10367000E000000E7FFFFFFF000000B87FFFFFF8B3
:10368000000000E07FFFFFF0000000FE7FFFFFF082
:103690000000001E7FFFFFF0000000027FFFFFF030
:1036A000000000007FEFFFF0020000067FE7FFF060
:1036B0000200000E7FE3FFF00200001C7FE1FFF834
:1036C000030000BA7FE0FFFC030000F67FE07FFE0E
:1036D000038000E67FE03FFF038000F67FE03FFFCE
:1036E00083C0003E7FE03FFFC3C0000E7FE03FFF8E
:1036F000E3E000027FE03FFFF3E000007FE03FFFF8
:10370000FBF000027FE03FFFFFF000667FE03FFF3D
:10371000FFF800F67FE03FFFFFF800D67FE03FFFB5
:10372000FFFC00D67FF07FFFFFFC00D67FF8FFF79D
:10373000FFFE00D67FFFFFF3FFFE00DE3FFFFFE14D
:10374000FFFF008C3FFFFFE0FFCF00401FFFFFC0E7
:103750007FC780C01FFFFFC03FC380C00FFFFF8037
:103760001FC1C0FE07FFFF000FC0C0FE03FFFE0029
:1037700007C060C001FFFC0003C020C0007FF00054
:1037800001C00086000F800000C00016000000008D
:10379000004000D600000000000000D6000000003D
:1037A000000000D600000000000000D6000000006D
:1037B000000000D600000000000000D00000000063
:1037C000000000C000000000000000060000000033
:1037D0000000001E00000000000000DE00000000ED
:1037E000000000D800000000000000D80000000029
:1037F000000000D800000000000000DE0000000013
:10380000000000DE00000000000000F600000000E4
:103810000000007200000000000000000000000036
:103820000000006200000000000000F60000000040
:10383000000000F600000000000000D600000000BC
:10384000000000D600000000000000D600000000CC
:10385000000000DE000000000000008C00000000FE
:103860000000000000000000000000000000000058
:103870000000000000000000000000000000000048
:103880000000000000000000000000000000000038
:103890000000000000000000000000000000000028
:1038A0000000000000000000000000000000000018
:1038B0000000000000000000000000000000000008
:1038C00000000000000000000000000000000000F8
:1038D000000000000006101600061016003900084F
:1038E0000000002010000000EC0100081039000862
:1038F00010000020200B00000C0200080000000057
:1039000001000000100000000024F400000000008E
:040000050800018965
:00000001FF
