:020000040800F2
:10000000300B0020550200087D220008091A000864
:10001000792200084D04000859260008000000005D
:10002000000000000000000000000000F9250008AA
:100030005D04000800000000F5250008FD2500080B
:100040006F0200086F0200086F0200086F020008CC
:100050006F0200086F0200086F0200086F020008BC
:100060006F0200086F0200086F0200086F020008AC
:100070006F0200086F0200086F0200086F0200089C
:100080006F0200086F0200086F0200086F0200088C
:100090006F0200086F0200086F0200086F0200087C
:1000A0006F0200086F0200086F0200086F0200086C
:1000B0006F0200086F0200086F0200086F0200085C
:1000C0006F0200080D1A00086F0200086F02000896
:1000D0006F0200086F0200086F0200086F0200083C
:1000E0006F0200086F0200086F0200086F0200082C
:1000F0006F0200086F0200086F0200085104000838
:100100006F0200086F0200086F0200086F0200080B
:100110006F0200086F0200086F0200086F020008FB
:100120006F0200086F0200086F0200086F020008EB
:100130006F0200086F0200086F0200086F020008DB
:100140006F0200086F0200086F0200086F020008CB
:100150006F0200086F0200086F0200086F020008BB
:100160006F0200086F0200086F0200086F020008AB
:100170006F0200086F0200086F0200080000000014
:100180006F0200086F02000800F002F800F052F859
:1001900014A696E8000CB244B344DA4501D100F04D
:1001A00049F8BAE80F000FA696E83000A5EB040561
:1001B00004EB0607AAEB0704A7F101074FEA1515A0
:1001C0004FEA3414A4F10104AC4201D300F032F838
:1001D00013F0010F18BFFB1A43F0010300F001F800
:1001E000DBE718476829000088290000103A24BF7F
:1001F00078C878C1FAD8520724BF30C830C144BF8C
:1002000004680C6070470000704700000023002461
:1002100000250026103A28BF78C1FBD8520728BF16
:1002200030C148BF0B6070471FB502F072FA1FBDA6
:1002300010B510BD00F0D0F81146FFF7F5FF02F041
:100240000DFA00F0EEF803B4FFF7F2FF03BC00F084
:10025000F5F800000948804709480047FEE7FEE737
:10026000FEE7FEE7FEE7FEE7FEE7FEE7FEE7FEE766
:1002700004480549054A064B70470000012600085E
:100280008901000830050020300B002030070020D5
:100290003007002053EA020C00F069802DE9F04B92
:1002A0004FF00006002B1FBFB3FA83F503FA05F4E5
:1002B00024FA05F65E4012BF1643B2FA82F502FA3E
:1002C00005F4C5F120051EBF22FA05FC44EA0C0422
:1002D000203556EA044C4FEA144418BF641C4FF012
:1002E00000084FF00009904271EB030C39D300294C
:1002F00019BFB1FA81F701FA07F6B0FA80F700FAF0
:1003000007F6C7F120071EBF20FA07FC46EA0C06D5
:100310002037B6FBF4FCA7EB0507103F07F01F0BD7
:10032000CBF120062CFA06F60CFA0BFB44BFB346C1
:100330000026202FA4BF5E464FF0000B5BEA060CA0
:1003400008BF4FF0010B19EB0B0948EB0608ABFB9C
:10035000027C06FB02CC0BFB03CCC01B71EB0C0137
:10036000C1E70B46024641464846BDE8F08B13B54F
:10037000084318BF4FF0FF300146AFF30080BDE8DF
:100380001C4070474FF0000200B513469446964655
:10039000203922BFA0E80C50A0E80C50B1F1200198
:1003A000BFF4F7AF090728BFA0E80C5048BF0CC046
:1003B0005DF804EB890028BF40F8042B08BF7047A4
:1003C00048BF20F8022B11F0804F18BF00F8012B16
:1003D0007047704770477047754600F02BF8AE467F
:1003E00005006946534620F00700854618B020B541
:1003F000FFF73EFFBDE820404FF000064FF000073A
:100400004FF000084FF0000BAC46ACE8C009ACE878
:10041000C009ACE8C009ACE8C00921F007018D466D
:10042000704710B50446AFF300802046BDE8104089
:10043000FFF709BF0048704710000020014918204D
:10044000ABBEFEE72600020070470000FEE700009A
:1004500040F27040C2F2000000F01CB8704700008B
:100460007047000090F83510022909D1052180F865
:1004700035100068016821F001010160002070471B
:100480008021416501207047406D704790F835002C
:1004900070470000F0B581B004460020009040F2A3
:1004A0000000C2F200000268D4E9166048F2B513F9
:1004B00037680821C1F64E3381403942A2FB03253B
:1004C0000CD0226813685B0708D5136823F0040377
:1004D0001360B160616D41F00101616501218140EE
:1004E000394208D022685269120604D5B160616DA4
:1004F00041F00201616504218140394208D022683F
:100500001268920704D5B160616D41F00401616524
:1005100010218140394215D020680268120711D598
:10052000B16002680168520306D4C90506D40168A7
:1005300021F00801016001E008033ED4216C09B1FB
:1005400020468847E16D202000FA01F23A4240D06F
:1005500020680368DB063CD5B26094F83530026849
:10056000052B1AD122F016020260426922F08002A5
:100570004261226C0AB9A26C1AB1026822F0080228
:1005800002603F208840B060012084F83500216D72
:10059000002084F83400D9BB3FE00168520310D436
:1005A000C90512D4016821F010010160012084F80E
:1005B0003500002084F8340007E0A16C0029BFD189
:1005C000C0E7080301D4616C00E0E16B09B120468B
:1005D0008847606D08B3606DC00717D0052084F8A8
:1005E00035002068A90A026822F00102026000BFFB
:1005F000009A01328A42009202D80268D207F7D1EB
:10060000012084F83500002084F83400E16C21B129
:10061000204601B0BDE8F040084701B0F0BD000041
:100620002DE9F041044600F0CBF9C4B105460220A3
:1006300084F835000020216884F83400086820F030
:100640000100086020680168C9070BD000F0B8F904
:10065000401B0528F6D90321202203207AE001203F
:10066000BDE8F081016848F23F02CFF21002D4E900
:10067000013501EA020ED4E9032143EA0E032B43BC
:10068000D4E9056C1A43D4E907781143314341EAB0
:100690000702616A42EA0802042942EA0C0303D114
:1006A000D4E90B273A43134303604269042922F03B
:1006B000070241EA02012DD1D4E90A5341EA0501BA
:1006C00043B3BCF5005F08D0BCF1000F12D1022D7E
:1006D00016D0012D07D09DB119E0032D17D8DFE802
:1006E00005F00B0F0B02A3F1C072B2FA82F25209AD
:1006F0004AB90FE0032D02D2012222B90AE006D145
:10070000C3F3006232B101214022012022E0002225
:10071000002AF8D100F0F8024AF6AB23103ACAF6E4
:10072000AA23A2FB033742F6443341613909C0F6DC
:100730000003595C40F2FF3398435F2A4FF03F02B9
:1007400088BF0430C4E9160102FA01F18160002279
:1007500001210020626584F83510BDE8F0810000B9
:1007600090F834C0BCF1010F04BF0220704770B58F
:100770004FF0010C80F834C0D0F858E090F835C044
:10078000BCF1010F37D14FF0020C80F835C04FF0AB
:10079000000CC0F854C0D0F800C08468056CC06D6F
:1007A000DCF80060402C26F48026CCF80060CCF801
:1007B00004300B4604BF13460A463F2101FA00F0FD
:1007C000CCF80830CCF80C20CEF80800DCF800009B
:1007D00040F01600CCF800002DB1DCF8000040F02D
:1007E0000800CCF80000DCF8000040F00100CCF874
:1007F0000000002070BD002180F83410022070BD80
:10080000B0B5044600F0DCF8054640F20400C2F240
:1008100000000078611C18BF044400BF00F0D0F84D
:10082000401BA042FAD3B0BD2DE9F04F82B000F1D9
:100830003E4707F1FF77860546EA972741F60046CF
:10084000C4F202060822B04208BF0722072F38BFB1
:100850003A46002400274FF00009009209E000BF4B
:1008600009F101090237B9F1100F04F1040400F095
:10087000A4800D68012202FA09FC15EA0C08EFD0E9
:10088000D1F804B00BF0030AAAF10105012D12D82A
:100890000322856802FA07FECA6825EA0E05BA40F7
:1008A0002A4382604268CBF3001522EA0C0205FA63
:1008B00009F52A434260BAF1030F1CD0C268032332
:1008C0008E6803FA07F5AA43BE403243BAF1020F1D
:1008D000C26010D16FF0030202EA59020244D2F85A
:1008E00020C004F01C050F230E69AB402CEA030363
:1008F000AE4033431362026803234E68BB409A4301
:1009000006F00303BB401A4316F4403F0260A7D031
:10091000002243F644030192C4F202031A6843F62C
:10092000004E42F480421A601A68C4F2010E02F4CA
:1009300080420192019A29F003024FF6084C72445A
:10094000CFF6FF7C52F80C3004F00C060F25B540B2
:10095000AB43009D05FA06F6334342F80C30DEF84F
:1009600008204B6842EA080643F60C4CDD0258BFEB
:1009700022EA0806CEF80860C4F2010CDCF8002078
:100980009D0242EA080658BF22EA0806CCF8006039
:10099000DEF804209D0342EA080658BF22EA080652
:1009A000CEF80460DEF80020DB0342EA080658BFF8
:1009B00022EA0806CEF8006052E702B0BDE8F08FE8
:1009C00040F22850C2F200000068704770470000F3
:1009D00070470000F0B581B0076804467868E26AA5
:1009E00094F83E3094F83DE0402B01D0102B0BD111
:1009F000BD697E69F10735D1B2F12A4F02D0B2F557
:100A00002A0F31D101B0F0BD216C00F40073002930
:100A10000CBFBD6900257E69B10734D59BB3206C3E
:100A2000002818BFBD6994F83D0000F02800282870
:100A300040F086807868012120F48060786005F0BD
:100A4000040081EA900128064FF0180058BF0C20DE
:100A5000225A0023204684F83C3001B0BDE8F04023
:100A6000FFF7B6BF810538D4310700F4007C3AD5D2
:100A7000BCF1000F37D0606B616C0028C9B23961DE
:100A800040F0BD80BDE0F10665D5002B63D094F841
:100A90003D50786820F4E06078600020009078692C
:100AA0000090386840F0010038600098386820F401
:100AB000806038607868000540F13A8105F0F70001
:100AC0002646222840F0138156F8380F01684968FD
:100AD00026F80E1C36F80E1C11E1E06AB0F52A0F5C
:100AE00069D101206CE0B10740F19980BCF1000FA1
:100AF00000F0958094F83E30E06A226B94F83D1047
:100B0000222940F0A180216D002908BF402B00F070
:100B10009B80216D002940F091812169B1F5404F02
:100B200040F08C810020009078690090B8690090B6
:100B30000098386840F480703860206D013014E20D
:100B40000020009079690091B9690091009984F8BA
:100B50003C0001B0F0BD0EF0F70121297DD106F077
:100B60008401802940F02D8110F4806000F02981FB
:100B700094F83D00618D00293FF444AF616A11F89B
:100B8000012B3A616162618D01396185618D0029B6
:100B900008BF29287FF436AF7868282120F48060C8
:100BA000786021202063204684F83D1001B0BDE824
:100BB000F04000F0B5BBE06AB0F12A4F01D1082047
:100BC000E06294F83E0040280AD1206D616C002854
:100BD00001F0FE0018BF40F00100386101B0F0BD27
:100BE0002069B0F5804F62D194F83D00616C2128F6
:100BF00001F0FE0118BF01313961606B08B1C06BB3
:100C000038B9A06B00283FF4FDAEC06B00283FF45C
:100C1000F9AE786840F40060786001B0F0BD7968A2
:100C20006A0752D409053FF5EDAE06F044014029AC
:100C300040F01D8110F4806000F01981204601B061
:100C4000BDE8F04001F03EB90020009078690090C6
:100C5000B8690090009801B0F0BD06F04401402949
:100C600040F0BE8010F4806000F0BA8094F83D003F
:100C7000618D00293FF4C6AE3969626A1170616AFC
:100C800001316162618D01396185618D002908BF83
:100C90002A287FF4B7AE2068416821F48061416062
:100CA000222028212063204684F83D10C1E0206DD9
:100CB000002800F0AA80206D01287FF4A3AE606CAC
:100CC000062101EAD010F13087E709053FF59AAE19
:100CD00006F08401802940F0D78010F4806000F095
:100CE000D380204601B0BDE8F04001F0B3B956F81A
:100CF000340F0168496826F80A1C36F80A1C19B135
:100D0000216C41F004012164796821F4006179606B
:100D1000FFF7BCFB01280BD0306841F61921C0F663
:100D200000010165FFF79EFB10B13068016D884737
:100D3000608DF8B120684169490708D50069616A8A
:100D40000870606A01306062608D013860852068DB
:100D50004169490608D50069616A0870606A013016
:100D60006062608D01386085608D18B1206C40F044
:100D700004002064206C28B1204601B0BDE8F0409A
:100D800000F078BF2A2D07D100202063282084F8A6
:100D90003D00204600F0C2FA94F83D0028283AD1E0
:100DA0000020CFF6FF70E06200212020216384F84C
:100DB0003D00204684F83E1001B0BDE8F04000F050
:100DC00095B970077FF51EAE002B3FF41BAE608D0A
:100DD00000283FF417AE606A10F8011B39610EE07D
:100DE00070077FF50FAE002B3FF40CAE608D00282E
:100DF0003FF408AE3869616A0870606A0130606269
:100E0000608D0138608501B0F0BD606C062101EA9B
:100E1000D010F030E1E6206B222818BF222D7FF49D
:100E2000F1AD00212020216384F83D00204684F8A4
:100E30003E1001B0BDE8F04000F070BA618D51B1D4
:100E4000618D012930D1202818BF082848D1386881
:100E500020F4806038600020009078690090B869C4
:100E600000900098386840F4007038607CE07007AB
:100E70007FF5C8ADBCF1000F3FF4C4AD204601B012
:100E8000BDE8F04000F0A4BF70077FF5BBADBCF13A
:100E9000000F3FF4B7ADBEF1210F14D1204601B0D1
:100EA000BDE8F04001F096B8618D022914D11028F8
:100EB00038D8012114228140C0F20102114231D000
:100EC0004FF4806234E0402B7FF49CAD204601B0AB
:100ED000BDE8F04001F016B9396841F4806129E0BD
:100EE00010F5803F0BD1386820F480603860786856
:100EF0000005B0D5386820F4806038602DE0122AF3
:100F000001D10128A3D11028F4D8012101FA00F061
:100F10001421C0F201010842ECD0386840F480602E
:100F200038601AE039684FF4006221F4806139605A
:100F3000396811433960796809050ED5421E1F2AA8
:100F400016D80121914048F28102C8F200021142F4
:100F50000ED0786840F48050786000200090786966
:100F60000090B869009000980020206501B0F0BDA5
:100F700010F5803FEDD0F0E770470000002804BF77
:100F800001207047F0B581B0044690F83D0028B9C3
:100F9000002084F83C00204600F060F9242084F80A
:100FA0003D002068016821F001010160016841F401
:100FB00000410160016821F40041016000F01CFB68
:100FC000636848F2A16CC0F2010C40F60011C0F257
:100FD0003D0163453CBF48F28041C0F21E0188429A
:100FE00002D2012001B0F0BD4DF68361C4F21B3185
:100FF000A0FB01122168970CD1F804E04FF496761B
:101000002EF03F0545EA92454D60774348F6381685
:101010000D6AC0F24106A7FB067625F03F0763453F
:1010200038BF960C721C3A430A62CA6948F2A0663D
:101030004CF6FF77C0F20106B34222EA070C0AD849
:1010400001385A00B0FBF2F001306FF31F30042872
:1010500098BF042020E0A2681927002A08BF0327B0
:1010600001385F43B0FBF7F701373F0509D052B1B4
:1010700019225A43B0FBF2F00422013062F31F3010
:1010800008E0012008E003EB4302B0FBF2F001307E
:101090006FF31F3040F4004040EA0C00C86108685C
:1010A000D4E9072320F0C000104318430860886883
:1010B00048F2FF3204F10C0790438CCF18431043E1
:1010C000A6698860C86820F0FF0038433043C860D4
:1010D000086840F00100086000202021206484F8A6
:1010E0003D10206384F83E0001B0F0BD7047000061
:1010F000704700007047000070B582B004460020C1
:10110000019094F83D0020281DD140F20000C2F269
:10111000000000684BF28956C008C1F2F846A0FBF7
:101120000606300A19267043019000BF0198013865
:101130000190019848B12568A8698007F6D494F811
:101140003C00012810D102260BE000202021206362
:1011500084F83D1084F83E00206C022640F0200008
:101160002064304602B070BD012084F83C0028683D
:10117000C00703D1286840F00100286028680026D5
:1011800020F400602860212084F83D00102084F8BD
:101190003E00266462626385638D0020CFF6FF7097
:1011A0002385E06261641BB3606B80B341F6FD2C64
:1011B00041F64931C0F6000CC0F60001C0E913C683
:1011C00005F1100CC0E90F1611466246C0E9116620
:1011D000FFF7C6FA48B3202084F83D0084F83E604B
:1011E000206C40F01000206484F83C600126B8E7D1
:1011F000286840F480602860286840F48070286087
:1012000084F83C60686840F4E0606860A9E72020EA
:1012100084F83D00002084F83E00216C012641F056
:101220008001216484F83C009BE7206884F83C60DE
:10123000416841F440714160416841F4006141609E
:10124000016841F480610160016841F480710160CE
:1012500087E70000704700007047000070B586B057
:10126000044645F600002168C4F2000000268142D1
:101270000596CDE903660296019601D006B070BDD1
:1012800043F630050096C4F202052968122241F0A7
:1012900020012960296800F5DE3001F0200100916D
:1012A00000990321029201220191CDE90321042139
:1012B000059101A9FFF7B8FA009628694FF060611F
:1012C00040F480002861286940F2704500F48000F5
:1012D0000090009846F2B800C2F20005C4F2020085
:1012E00040224FF4806385E847002846C5E904366C
:1012F000C5E90666C5E90866FFF792F9002818BF38
:10130000FFF7AEF82120012100226563AC6300F0F5
:1013100087F8212000F074F806B070BD7047000017
:101320007047000040F2040040F22851C2F2000071
:10133000C2F2000100780A6810440860704700009B
:1013400080B543F60040C4F20200016841F4007128
:101350000160016841F480610160016841F48071BD
:101360000160032000F088F8002000F005F800F08C
:101370002BF8002080BD0000B0B540F20402C2F29C
:10138000000240F200011278C2F200014FF47A73B9
:101390000968B3FBF2F20446B1FBF2F1084600F033
:1013A0001DFB0F2C4FF001050CD858B94FF0FF3042
:1013B00021460022002500F033F840F20800C2F276
:1013C000000004602846B0BD82B0002043F6400112
:1013D0000190C4F202014A6842F480424A604A68BD
:1013E00002F480420192019A0090086840F0805017
:1013F0000860086800F080500090009802B07047C4
:10140000002848BF704700F01F01012202FA01F1D5
:101410004EF200124009CEF2000242F8201070474E
:1014200010B54EF60C5CCEF2000CDCF80030C3F3C5
:10143000022E8EF00704042C28BF0424BEF10303FF
:101440004FF0FF3E0EFA04F438BF0023A143994049
:101450000EFA03F39A43114300F1604200F00F03C8
:10146000090102F56442043B6344002848BF03F1CC
:101470000C02117010BD00004EF60C51CEF20001AE
:101480000A684FF6FF031A4060F30A2242F08060B8
:1014900040F0FD7008607047002804BF01207047CD
:1014A0002DE9F04143F60808C4F202080446D8F8D2
:1014B000F8030D4600F00700884207D288F8F85379
:1014C000D8F8F80300F00700A84276D12068810719
:1014D00017D5410705D5D8F8001041F4E051C8F8F8
:1014E0000010010705D5D8F8001041F46041C8F894
:1014F0000010D8F80010A26821F0F0011143C8F8DC
:101500000010C0073FD1D8F8F80300F00700A84248
:1015100007D988F8F853D8F8F80300F00700A84274
:101520004BD12068410707D5D8F80010E26821F4B4
:10153000E0511143C8F80010000708D5D8F80000A2
:10154000216920F4604040EAC100C8F8000000F0C2
:1015500067F8D8F8001042F22C72C1F30311C0F6FC
:101560000002515C40F2000220FA01F140F2080052
:10157000C2F200000068C2F200021160FFF7FCFE38
:101580000020BDE8F0816068811E022907D258F86A
:10159000081C89015CBF0120BDE8F08110E0012832
:1015A00007D158F8081C89035CBF0120BDE8F08111
:1015B00006E058F8081C890702D40120BDE8F08134
:1015C000D8F8001021F003010843C8F80000FFF725
:1015D000F7F9064641F28837D8F80000616800F054
:1015E0000C00B0EB810F8ED0FFF7EAF9801BB842F8
:1015F000F2D90320BDE8F08140F2000043F6080173
:10160000C2F20000C4F202010068096842F23C72B2
:10161000C1F38221C0F60002515CC840704700004F
:1016200010B543F60404C4F20204606800F00C0034
:1016300008280AD0042819BF42F20040C0F2F40082
:1016400041F60030C0F2B70010BD20682168236861
:10165000490241F60031C0F2B70100F03F02C3F386
:1016600088105CBF42F20041C0F2F401A1FB00010E
:101670000023FEF70FFE21680222C1F3014102EBB5
:101680004101B0FBF1F010BD002804BF01207047FC
:101690002DE9F04182B00446007843F60006C00709
:1016A000C4F2020647D0B06800F00C00042808D14C
:1016B000306880033FD56068E8BB012002B0BDE818
:1016C000F081B06800F00C00082802D17068400278
:1016D000EED46568B5F5A02F0AD0B5F5803F0BD0E4
:1016E000306820F480303060306820F4802006E0DC
:1016F000306840F480203060306840F480303060E2
:10170000FFF75EF9002D054612D000BF3068800358
:1017100011D4FFF755F9401B6428F7D926E100BF23
:10172000FFF74EF9401B64284FF0030000F2E280FF
:1017300030688003F4D4207880071BD5B06810F09F
:101740000C0F09D0B06800F00C00082840F087802A
:101750007068400200F183803068800703D5E0683C
:10176000012840F09E803068216920F0F80040EAAE
:10177000C10030602078000735D42078400748D475
:10178000A56965B3B06800F00C00082840F09E80A1
:10179000012D00F086807068E16900F480028A42C1
:1017A00040F07F80216A00F03F028A4279D147F6FB
:1017B000C071626A0140B1EB821F72D1A16A4FF61B
:1017C000FF73C903994300F44032A1F580318A4286
:1017D00067D1E16A00F07060B0EB016F61D1002069
:1017E00002B0BDE8F0816069002840F20000C4F258
:1017F00047205AD00121C0F8801EFFF7E1F80546C6
:10180000706F8007B9D4FFF7DBF8401B0228F7D9C7
:10181000ACE0306C5FEAC0080AD400200190306C64
:1018200040F080503064306C00F08050019001989E
:1018300047F20007C4F200073868C00524D43868AE
:1018400040F480703860FFF7BBF805463868C00583
:101850001AD4FFF7B5F8401B0228F7D986E0E068F4
:10186000002857D00020C4F2472001210160FFF773
:10187000A7F80546306880073FF575AFFFF7A0F879
:10188000401B0228F6D971E0A568052D56D0012D20
:1018900058D0306F20F001003067306F20F0040026
:1018A00053E0012002B0BDE8F0810021C0F8801EA5
:1018B000FFF786F8054600BF706F80077FF55DAFC4
:1018C000FFF77EF8401B0228F6D94FE00027C4F24C
:1018D000472700203866FFF773F8022D05460DD123
:1018E0003068800159D5FFF76BF8401B02284FF094
:1018F0000300F5D902B0BDE8F08100BF3068800177
:101900007FF56DAFFFF75CF8401B02284FF0030036
:10191000F4D9EFE70020C4F2472000210160FFF76F
:101920004FF80546306880077FF524AFFFF748F889
:10193000401B02284FF00300F4D9DBE7306F40F082
:1019400004003067306F40F001003067FFF738F86F
:10195000002D054641F2883713D000BF306F800755
:1019600012D4FFF72DF8401BB842F7D9032002B07C
:10197000BDE8F081FFF724F8401BB8424FF00300A8
:10198000B8D8306F8007F5D4B8F1000F3FF5F8AE46
:10199000306C20F080503064F2E604F11C052FCD4D
:1019A000084340EA8210D9034FF6FF729143A1F534
:1019B000803140EA05600843706001203866FEF718
:1019C000FFFF0446306880013FF509AFFEF7F8FFDE
:1019D000001B02284FF00300F4D98BE7411E0020C2
:1019E000B0EB116F1CBF012070474EF21002CEF217
:1019F000000251604EF62351CEF20001F0230B702D
:101A00000721906011607047FEE7000040F2D0406F
:101A1000C2F20000FEF7DEBF10B581B000210091D8
:101A2000806B40F20001C2F2000190F83DC00968ED
:101A30004BF28952C908C1F2F842A1FB0212110A05
:101A400023225143009100BF009939B10099013917
:101A50000091016809688905F6D403E0016C41F042
:101A600020010164446B4FF0000E002C1CBF0021CC
:101A7000E163816B00291CBF0022CA630268002C4D
:101A8000136823F480631360A0F82AE018BFC4F839
:101A900050E000291CBF00230B65116821F00101F3
:101AA000116090F83D1060290BD1202180F83D1085
:101AB000002180F83E10016401B0BDE81040FEF73F
:101AC00085BF0CF0280128290DD1116841F00101D2
:101AD0001160116841F480611160002101632821C7
:101AE00080F83D1005E0202180F83D10002180F8AD
:101AF0003E1001B0BDE81040FFF73EBA10B5846B50
:101B0000616B00291CBF0022CA63A16B00291CBFA6
:101B10000022CA63FEF7B8FC022808BF10BD206887
:101B2000016821F48061016000202021608584F833
:101B30003D1084F83E00206C40F0100120462164E6
:101B4000BDE81040FFF718BA10B5846B94F83D203B
:101B500094F83EE0D4F82CC02168606B4B680028F4
:101B600023F440734B601CBF0023C363A06B0028A9
:101B70001CBF0023C36302F02100212820D002F003
:101B80002200222808BFBEF1200F19D094F83E0091
:101B9000002808BF10BD608D012803D1086820F41B
:101BA000806008604868BCF1070F20F4407048600E
:101BB00028DCBCF12A4F2BD01CF5803F28D02BE02D
:101BC00048682A2A20F4006048604FF000006085D1
:101BD0000AD0292A10D121202063282084F83D0032
:101BE0002046FFF79DFB07E022202063282084F891
:101BF0003D002046FFF792FB2068416841F44071A8
:101C0000416010BDBCF1200F02D0BCF1080F03D120
:101C1000086840F400700860486820F4805048600C
:101C2000486820F40060486000216185206C20B184
:101C30002046BDE81040FFF79FB9202084F83D0002
:101C400094F83E0084F83E10402805D120462163D8
:101C5000BDE81040FFF7FEBABCF1080018BF122023
:101C6000BCF1200118BF014620462163BDE81040A9
:101C7000FFF73EBA10B5044690F83D0094F83E10C8
:101C8000B1F1100218BF0122403918BF01210A42E8
:101C900008BF222804D121680A6822F400620A6081
:101CA00000F02801282905D100202063282084F88D
:101CB0003D000DE021684968090507D4602805D07A
:101CC000202084F83D00002084F83E00002020639E
:101CD0002068416809051AD494F83D10602935D16F
:101CE000202184F83D10002121644169490605D571
:101CF0000069616A0870606A01306062206801688A
:101D000021F0010101602046FEF760FE3EE04168DF
:101D100021F400614160606B90F83510012922D1F7
:101D2000A06B41F61921C0F600010165FEF79AFB90
:101D300060B320684169490605D50069616A087089
:101D4000606A013060622168A06B16E04169490653
:101D500005D50069616A0870606A013060622046DA
:101D6000FFF70AF912E041F61921C0F600010165FA
:101D7000FEF778FB50B12168606B0A6822F001021F
:101D80000A60202184F83D10016D8847206C00070F
:101D900004D02068416821F4E061416094F83D007E
:101DA000216C490758BF10BD28280FD10020CFF65D
:101DB000FF70E06200212020216384F83D0020466E
:101DC00084F83E10BDE81040FFF790B910BD000048
:101DD000C16A428D042A07D10168426A4B6823F424
:101DE00080634B60096911E0428D032A16D10268B5
:101DF0000229536823F48063536005D0042903D07B
:101E0000116821F4806111601169426A1170416AA0
:101E100001314162418D013941857047428D022A6D
:101E200011D14A1E0F2A16D8DFE802F0081015104B
:101E300015151515151515151515150802681368CE
:101E400023F480630BE00168426ACBE70268136801
:101E500043F4806303E00268136843F40073136083
:101E60000268436A12691A70426AD0F800C0531CB3
:101E70004362438D013B4385DCF810305370426A66
:101E8000036801324262428D013A42855A6822F467
:101E900040725A60202280F83D2090F83E300022A7
:101EA000402B80F83E2002D10263FFF7D3B9B1F195
:101EB000080218BF1222203918BF11460163FFF72C
:101EC00017B9000081B090F83D10222910D1C16AE5
:101ED000428D042A0ED30168426A09691170416A71
:101EE00001314162418D01394185418D032923D062
:101EF00001B07047C36A012A1ED8022B1CD00022F1
:101F0000009240F20002C2F2000212684BF28953C2
:101F1000D208C1F2F843A2FB03231A0A02EB8202A1
:101F2000009200BF009A013A0092009A5AB10368E9
:101F30001B689B05F6D40AE00068416821F48061C3
:101F4000416001B07047036C43F0200303640368F1
:101F5000F2B11A6822F480621A605A6822F4E062D0
:101F60005A601A69436A1A70426A01324262428DAB
:101F7000013A4285202280F83D2090F83E30002230
:101F8000402B80F83E2019D1026301B0FFF762B9FF
:101F9000596821F4E06159601969426A1170416A17
:101FA00001314162418D01394185202180F83D1088
:101FB000002180F83E1001B0FEF7DEBFB1F108024B
:101FC00018BF1222203918BF1146016301B0FFF774
:101FD0008FB80000C16A90F83D20212A18BF7047D1
:101FE000428D4AB1416A026811F8013B13614162B6
:101FF000418D01394185704711F5803F18BF08298F
:1020000017D101684A6822F4E0624A600A6842F423
:1020100000720A6000212022016380F83D2090F8C0
:102020003E2080F83E10402A08BFFFF715B9FFF7A1
:1020300061B82029E5D001684A6822F4E0624A606C
:1020400011210163002180F83E10202180F83D100D
:10205000FFF750B890F83D1090F83EC0C26A038D6B
:10206000002B08BF212919D0212905D0BCF1400F30
:1020700008BF222900D07047418D61B390F83E100F
:10208000402908BF00F03EB8416A026811F8013BE0
:1020900013614162418D01394185704712F5803FDE
:1020A00018BF082A1DD101684A6822F4E0624A601C
:1020B0000A6842F400720A6000212022016380F85D
:1020C0003D2090F83E2080F83E10402A08BFFFF7E0
:1020D000C3B8FFF70FB80068416821F48061416020
:1020E0007047202ADFD001684A6822F4E0624A6023
:1020F00011210163002180F83E10202180F83D105D
:10210000FEF7F8BF90F83D10026D3AB1026D012A5A
:102110000FD10168826CD2B20A6119E0C26C816C85
:10212000012A11D10268C9B21161016D0231016544
:102130007047026D022A0FD1222914D101680A6862
:1021400042F480720A6003E00268C1F30721116162
:10215000016D01310165704700684169090644BF9E
:10216000002101617047428D5AB1212909D1416A8C
:10217000026811F8013B13614162418D01394185CB
:102180007047428D002A08BF2129EBD101684A68B7
:1021900022F4E0624A600A6842F400720A60002198
:1021A0002022016380F83D2080F83E10FFF754B8EC
:1021B00080B582B00020019043F63000C4F20200E6
:1021C0000168002241F4001101600068012100F45F
:1021D0000010019001982F20FFF722F92F2002B064
:1021E000BDE88040FFF70CB983B0002043F6300112
:1021F0000290C4F202010A6842F001020A600A6811
:1022000002F001020292029A01900A6842F0200252
:102210000A600A6802F020020192019A00900868A0
:1022200040F080000860086800F08000009000988E
:1022300003B0704780B540F2D04045F60001C2F2CD
:102240000000C4F2000141F6802200234FF4804CCC
:10225000C0F2060280E80E00C0E9033CC0E9053385
:10226000C0E90733FEF78AFE002808BF80BDBDE83D
:102270008040FEF7F5B80000FEE700007047000060
:102280002DE9F04340F27008C2F20008A8F10804FA
:102290000022002380252146013D01F8082FFBD1B3
:1022A0000133082B04F10104F4D142F2447C0021F3
:1022B000C0F6000C4FF0010904E000BF382901F11D
:1022C00008013ED24FEAD10E002202E00132802AFC
:1022D000F4D00CEBC20414F80E40002505E000BF5A
:1022E000E8B2640001350728F0D266B2B6F1FF3FCC
:1022F00014DD6E1846EA020040B20028F0D470B235
:10230000C0F3C70008EBC20605F00703375C09FA03
:1023100003F327EA03033354E2E700BF6E1846EAEB
:1023200002077FB2002FDBD476B2C6F3C70608EBF4
:10233000C20005F00707835D09FA07F73B438355A1
:10234000CEE7BDE8F04300F005B900002DE9F0410B
:1023500040F2245440F2D045C2F200044FF42E4023
:10236000C2F2000520802846782122460223FEF78B
:10237000C3FE4FF400582846782122460223A4F8D1
:102380000080FEF7B9FE4FF4805628467821224699
:1023900002232680FEF7B0FE4FF43040208028460E
:1023A000782122460223FEF7A7FE4FF44840208002
:1023B0002846782122460223FEF79EFE0027284663
:1023C0007821224602232780FEF796FE28467821B0
:1023D000224602232680FEF78FFE4FF480402080A5
:1023E0002846782122460223FEF786FE4FF401405C
:1023F00020802846782122460223FEF77DFE4FF4F6
:102400007F4020802846782122460223FEF774FE72
:102410004FF4214020802846782122460223FEF7EF
:102420006BFE4FF426402080284678212246022366
:10243000FEF762FE4FF4284020802846782122468D
:102440000223FEF759FE4FF47C5020802846782165
:1024500022460223FEF750FE4FF4244020802846F7
:10246000782122460223FEF747FE4FF45340208096
:102470002846782122460223FEF73EFE2846782190
:10248000224602232780FEF737FE4FF45540208076
:102490002846782122460223FEF72EFE4FF4704094
:1024A00020802846782122460223FEF725FE4FF49D
:1024B000594020802846782122460223FEF71CFE40
:1024C0004FF4085020802846782122460223FEF748
:1024D00013FE4FF45A4020802846782122460223DA
:1024E000FEF70AFE4FF490502080284678212246BD
:1024F0000223FEF701FE4FF45B402080284678213E
:1025000022460223FEF7F8FD2846782122460223C0
:10251000A4F80080FEF7F0FD4FF40D40208028461F
:10252000782122460223FEF7E7FD4FF4A0502080D9
:102530002846782122460223FEF7DEFD4FF42F477E
:1025400028467821224602232780BDE8F041FEF785
:10255000D3BD00002DE9F04F81B040F2700740F28A
:10256000245440F2D0454FF00009C2F20007C2F2F5
:102570000004C2F200054FF480584FF0400B4FF0BA
:10258000000A00BFAAF15000607028467821224658
:10259000022384F80090FEF7AFFD284678212246FA
:1025A0000223A4F80080FEF7A7FD284678212246E2
:1025B0000223A4F80090FEF79FFD6FF0070600BF0E
:1025C000B819007A7821607028462246022384F8E0
:1025D00000B0FEF791FD0836B6F57E7FF0D10AF126
:1025E000010ABAF1080F07F10107CBD101B0BDE82C
:1025F000F08F00007047000070470000FEF792BEA9
:102600004EF68850CEF2000001684FF0000C41F405
:102610007001016043F60001C4F202010A6842F051
:1026200001020A60C1F808C00B684FF6FF72CFF6CE
:10263000F6621A400A6043F21002C2F200424A6097
:102640000A6822F480220A60C1F80CC04FF00061D1
:1026500040F8801C70470000FEE7000092B0FEF7D3
:102660006FFE06AC20463021FDF78CFE002543F6B8
:1026700040000595CDE90355CDE901550095C4F21B
:1026800002000168022641F080510160006800F0FC
:1026900080500090009847F200000095C4F20000BE
:1026A000016841F480410160006800F480400090BE
:1026B0000098012006904FF4803007904FF480007E
:1026C0000D9006200E90A820CDE90F060420119051
:1026D00020460C96FEF7D8FF0F20CDE901064FF4F7
:1026E000A05004904FF48050059001A80521039557
:1026F000FEF7D2FEFFF778FDFFF75AFDFFF79AFDD0
:10270000FFF724FEFFF7BCFD4FF47A70FEF778F870
:10271000F8E7F1EE100A4FF6FF71C0F2C03120EA7F
:10272000010040F04070E1EE100A70470000000028
:102730000000000001020304060708090000000071
:10274000010203040000000000000000000000007F
:102750000000000000000000000000000000000079
:102760000000000000000000000000000000000069
:102770000000000000000000000000000000000059
:102780000000000000000000000000060000000043
:102790000000001E00000000000000DE000000003D
:1027A000000000D800000000000000D80000000079
:1027B000000000D800000000000000DE0000000063
:1027C000000000FE00000000000000F60000000015
:1027D0000000007200000000000000000000000087
:1027E0000000007C00000000000000FE000000006F
:1027F000000000C600000000000000C6000000004D
:10280000000000C600000000000000FE0000000004
:102810000000007C0000000000000000000000003C
:102820000000001E00000000000000DE00000000AC
:10283000000000D600000000000000D600000000EC
:10284000000000D600000000000000D600000000DC
:10285000000000DE40000000000000FE60000000FC
:102860000010006C700000000030000078000000D4
:1028700000F0007C7C00000007F000FE7E000000FD
:102880003FF000C67F000001FFF000C67F80000F10
:10289000FFF000C67FC0007FFFF000FE7FE003FF77
:1028A000FFF0007C7FF03FFFFFF000027FF83FFF6A
:1028B000FFF000067FFC3FFFFFF0001E7FFE3FFFA2
:1028C000FFF000BC7FFF3FFFFFF000E07FFFBFFF96
:1028D000FF8000F87FFFFFFFFC00003E7FFFFFFF4F
:1028E000E000000E7FFFFFFF000000B87FFFFFF851
:1028F000000000E07FFFFFF0000000FE7FFFFFF020
:102900000000001E7FFFFFF0000000027FFFFFF0CD
:10291000000000007FEFFFF0020000067FE7FFF0FD
:102920000200000E7FE3FFF00200001C7FE1FFF8D1
:10293000030000BA7FE0FFFC030000F67FE07FFEAB
:10294000038000E67FE03FFF038000F67FE03FFF6B
:1029500083C0003E7FE03FFFC3C0000E7FE03FFF2B
:10296000E3E000027FE03FFFF3E000007FE03FFF95
:10297000FBF000027FE03FFFFFF000667FE03FFFDB
:10298000FFF800F67FE03FFFFFF800D67FE03FFF53
:10299000FFFC00D67FF07FFFFFFC00D67FF8FFF73B
:1029A000FFFE00D67FFFFFF3FFFE00DE3FFFFFE1EB
:1029B000FFFF008C3FFFFFE0FFCF00401FFFFFC085
:1029C0007FC780C01FFFFFC03FC380C00FFFFF80D5
:1029D0001FC1C0FE07FFFF000FC0C0FE03FFFE00C7
:1029E00007C060C001FFFC0003C020C0007FF000F2
:1029F00001C00086000F800000C00016000000002B
:102A0000004000D600000000000000D600000000DA
:102A1000000000D600000000000000D6000000000A
:102A2000000000D600000000000000D00000000000
:102A3000000000C0000000000000000600000000D0
:102A40000000001E00000000000000DE000000008A
:102A5000000000D800000000000000D800000000C6
:102A6000000000D800000000000000DE00000000B0
:102A7000000000DE00000000000000F60000000082
:102A800000000072000000000000000000000000D4
:102A90000000006200000000000000F600000000DE
:102AA000000000F600000000000000D6000000005A
:102AB000000000D600000000000000D6000000006A
:102AC000000000DE000000000000008C000000009C
:102AD00000000000000000000000000000000000F6
:102AE00000000000000000000000000000000000E6
:102AF00000000000000000000000000000000000D6
:102B000000000000000000000000000000000000C5
:102B100000000000000000000000000000000000B5
:102B200000000000000000000000000000000000A5
:102B30000000000000000000000000000000000095
:102B4000000000000006101600061016702B00088A
:102B50000000002010000000EC010008802B00089D
:102B600010000020200B00000C02000800000000F4
:102B70000024F4000100000010000000000000002C
:040000050800018965
:00000001FF
