:020000040800F2
:100000008056002055020008394400084D39000888
:1000100035440008ED080008E95B00080000000016
:10002000000000000000000000000000B1530008C4
:100030004512000800000000B1450008ED56000818
:100040006F0200086F0200086F0200086F020008CC
:100050006F0200086F0200086F0200086F020008BC
:100060006F0200086F020008491200086F020008C2
:10007000E50C00086F0200086F0200086F0200081C
:100080006F0200086F0200086F0200086F0200088C
:10009000F10800086F0200086F0200085112000802
:1000A0006F0200086F0200086F0200086F0200086C
:1000B0006F0200086F0200086F0200086F0200085C
:1000C0006F0200086F0200086F0200086F0200084C
:1000D0006F0200086F0200086F0200082D5A000826
:1000E0006F0200086F0200086F0200086F0200082C
:1000F0006F0200086F0200086F0200086F0200081C
:100100006F0200086F020008D15700086F02000854
:100110006F0200086F020008F55700086F02000820
:10012000F10C00086F0200086F0200083912000885
:100130006F0200086F0200086F0200086F020008DB
:10014000FD0800086F0200086F0200086F02000837
:100150006F0200086F0200086F0200086F020008BB
:100160006F0200086F0200086F0200086F020008AB
:100170006F0200086F0200086F0200080000000014
:100180006F0200086F02000800F002F800F052F859
:1001900014A696E8000CB244B344DA4501D100F04D
:1001A00049F8BAE80F000FA696E83000A5EB040561
:1001B00004EB0607AAEB0704A7F101074FEA1515A0
:1001C0004FEA3414A4F10104AC4201D300F032F838
:1001D00013F0010F18BFFB1A43F0010300F001F800
:1001E000DBE71847BC9F0000DC9F0000103A24BFEB
:1001F00078C878C1FAD8520724BF30C830C144BF8C
:1002000004680C6070470000704700000023002461
:1002100000250026103A28BF78C1FBD8520728BF16
:1002200030C148BF0B6070471FB509F09AFE1FBD73
:1002300010B510BD00F062F91146FFF7F5FF06F0AA
:1002400087FB00F080F903B4FFF7F2FF03BC00F076
:1002500083F900000948804709480047FEE7FEE7A8
:10026000FEE7FEE7FEE7FEE7FEE7FEE7FEE7FEE766
:1002700004480549054A064B70470000BD57000871
:100280008901000880500020805600208052002004
:100290008052002053EA020C00F069802DE9F04BF7
:1002A0004FF00006002B1FBFB3FA83F503FA05F4E5
:1002B00024FA05F65E4012BF1643B2FA82F502FA3E
:1002C00005F4C5F120051EBF22FA05FC44EA0C0422
:1002D000203556EA044C4FEA144418BF641C4FF012
:1002E00000084FF00009904271EB030C39D300294C
:1002F00019BFB1FA81F701FA07F6B0FA80F700FAF0
:1003000007F6C7F120071EBF20FA07FC46EA0C06D5
:100310002037B6FBF4FCA7EB0507103F07F01F0BD7
:10032000CBF120062CFA06F60CFA0BFB44BFB346C1
:100330000026202FA4BF5E464FF0000B5BEA060CA0
:1003400008BF4FF0010B19EB0B0948EB0608ABFB9C
:10035000027C06FB02CC0BFB03CCC01B71EB0C0137
:10036000C1E70B46024641464846BDE8F08B13B54F
:10037000084318BF4FF0FF300146AFF30080BDE8DF
:100380001C407047032A40F2308010F0030C00F04C
:10039000158011F8013BBCF1020F624498BF11F8BF
:1003A00001CB00F8013B38BF11F8013BA2F1040278
:1003B00098BF00F801CB38BF00F8013B11F00303F0
:1003C00000F06280083AC0F0088051F8043B083A17
:1003D00051F804CBA0E80810F5E7121D5CBF51F8F6
:1003E000043B40F8043BAFF30080D20724BF11F870
:1003F000013B11F801CB48BF11F8012B24BF00F8D5
:10040000013B00F801CB48BF00F8012B704702F018
:10041000FF0343EA032242EA024200F002B84FF02F
:10042000000200B5134694469646203922BFA0E844
:100430000C50A0E80C50B1F12001BFF4F7AF090750
:1004400028BFA0E80C5048BF0CC05DF804EB890041
:1004500028BF40F8042B08BF704748BF20F8022B84
:1004600011F0804F18BF00F8012B7047704770479C
:10047000704710B500F03AF8006810BD10B504469A
:1004800000F034F8046010BD10B5203AC0F00B80C5
:10049000B1E81850A0E81850B1E81850A0E818507A
:1004A000203ABFF4F5AF5FEA027C24BFB1E81850F0
:1004B000A0E8185044BF18C918C0BDE810405FEA52
:1004C000827C24BF51F8043B40F8043B08BF7047CE
:1004D000D20728BF31F8023B48BF11F8012B28BFD3
:1004E00020F8023B48BF00F8012B704700487047D6
:1004F0006000002000487047600000207546FFF74C
:10050000F9FFAE4605006946534620F007008546D0
:1005100018B020B5FFF7ACFEBDE820404FF0000654
:100520004FF000074FF000084FF0000BAC46ACE86E
:10053000C009ACE8C009ACE8C009ACE8C00921F0CA
:1005400007018D46704710B50446AFF30080204682
:10055000BDE81040FFF777BE01491820ABBEFEE7AB
:1005600026000200704700000020C4F202001021A3
:10057000012201F03FBD00000020C4F20200102162
:10058000002201F037BD00007047000040F200403B
:10059000C4F202000121012201F02CBD40F2004012
:1005A000C4F202000121002201F024BDB0F90030A4
:1005B00040F24C0CC2F2000C00EE103A9CED001A16
:1005C000B8EEC00A21EE000A81ED000AB0F902304F
:1005D0009CED001A00EE103AB8EEC00A21EE000AB7
:1005E00081ED010AB0F9043000EE103AB8EEC00A0D
:1005F00021EE000A81ED020AC3798179007A1B029B
:1006000043EA0040084400EE100A9FED041AB8EED9
:10061000400A20EE010A82ED000A704700401C42A9
:100620007047000006F0C8B906F0AAB8B0F900306B
:1006300040F24C0CC2F2000C00EE103A9CED011A94
:10064000B8EEC00A21EE001A81ED001A9FED161ACD
:100650009FED162A20EE010A20EE020A82ED000A22
:10066000B0F902309CED013A00EE103AB8EEC00A43
:1006700023EE004A20EE010A20EE020A81ED014A33
:1006800082ED010AB0F9040000EE100AB8EEC00ACB
:1006900023EE003A20EE010A20EE020A81ED023A32
:1006A00082ED020A704700BF000000380000FA44E3
:1006B00010B5FFF769FFFFF7B3FF05F0E5FB08B1E1
:1006C000802402E005F092FA044605F013FF0028AA
:1006D0001CBF44F0400010BD05F002FE204310BDD9
:1006E0002DE9F04F83B002920E460190FFF744FFD0
:1006F000922000F0C5F8922000F0C2F8552000F0DA
:10070000BFF88046552000F0BBF88346552000F026
:10071000B7F88246552000F0B3F80446552000F0A3
:10072000AFF80746552000F0ABF80546FFF71CFF71
:1007300048EA0B2040F24C0900B2C2F2000900EE78
:10074000100A99ED001AB8EEC00A4AEA042021EE18
:10075000000A00B286ED000A00EE100A47EA052002
:1007600000B299ED001A02EE100AB8EEC00AB8EE17
:10077000C22A21EE000A21EE021A86ED010A86ED58
:10078000021AFFF70BFF802000F07AF8552000F0E6
:1007900077F80646552000F073F8552000F070F801
:1007A0008246552000F06CF80546552000F068F8A8
:1007B0008346552000F064F80446552000F060F8A8
:1007C0000746552000F05CF88046FFF7DFFE0F2E4D
:1007D00025D14AEA052000B200EE100A99ED011A6F
:1007E000B8EEC00A01994BEA042021EE000A00B2DB
:1007F00081ED000A00EE100A47EA082000B299EDE8
:10080000011A02EE100AB8EEC00AB8EEC22A21EEB2
:10081000000A21EE021A81ED010A81ED021AFFF7AA
:10082000ABFEA22000F02CF8A22000F029F8552001
:1008300000F026F80446552000F022F80546FFF7A0
:1008400093FEE00040EA55114FF600020023CFF678
:10085000FF72B3EB902F18BF114300EE101AB8EEE1
:10086000C00AB4EE001A20EE010AB3EE071A02988D
:1008700030EE010A80ED000A03B0BDE8F08F000001
:1008800080B582B08DF8070040F24C504FF47A7C6E
:10089000C2F200000DF107010DF106020123CDF8AF
:1008A00000C002F0ADF99DF8060002B080BD000066
:1008B00002784078D20042EA50104FF6000C002334
:1008C000CFF6FF7CB3EB922F18BF40EA0C0000EE8E
:1008D000100AB8EEC00AB4EE001A20EE010AB3EE18
:1008E000071A30EE010A81ED000A7047FEE70000AA
:1008F00040F28830C2F2000000F02CBE40F2B0306E
:10090000C2F2000000F026BEB0B582B040F2381C42
:10091000C2F2000C4FF40074E6464EF8084F002473
:10092000CCE90444040A8CF80100080A8CF802009F
:10093000100A8CF80400180A8CF8060040F2B03057
:1009400008258CF803108CF805208CF80730C2F2CB
:10095000000001AB71466246CCF818508CF800409C
:1009600000F098FC02B0B0BD2DE9F04F81B02DED44
:10097000068B40F20020C2F2000090ED000A9FEDCD
:10098000CA1A40F2681530EE018A9FEDC90AC2F218
:100990000005B4EE408AF1EE10FA85ED068A03DD1B
:1009A0009FEDC20A07E000BF9FEDC01AB4EE418A76
:1009B000F1EE10FA03DA38EE008A85ED068A40F28D
:1009C000442AC2F2000A9AF8000003287ED00228C6
:1009D00040F05881B5F91E10B5F91C0000EE101A50
:1009E0009FEDB41AB5F92020B8EEC00A404220EEBF
:1009F000018A00EE100AB8EEC00A504220EE019AB9
:100A000000EE100A9FEDAC1AB8EEC00A20EE01AA63
:100A100038EE490A10EE100A85ED018A85ED029A3A
:100A200085ED03AA09F02CFA9FEDA40A04462AEEEC
:100A3000000A10EE100A0D4609F022FA9FED980BFD
:100A4000824656EC107B8B46204629463A46334672
:100A500009F01EF852465B468046894609F022F9A5
:100A600008F088FD40F24424C2F2000438EE090A7E
:100A7000E06010EE100A09F003FA3A46334609F036
:100A800007F852465B4606460F4609F00BF908F098
:100A900071FD20614046494652465B4608F09CFD88
:100AA00008F068FD80F000406061304639465246EB
:100AB0005B4608F091FD08F05DFD80F00040A0610C
:100AC000BDEC068B01B0BDE8F08F00BFB5F91E008C
:100AD000B5F91C1000EE100A9FED761A4842B8EEE8
:100AE000C00A02EE100A20EE010AB8EEC22A22EE77
:100AF000011A10EE100A85ED040A85ED051A09F0B9
:100B0000BFF9804618EE100A894609F0B9F941ECA0
:100B1000100B08F005F8D5E90506B0EE408AF0EEB6
:100B2000608A09F0ADF9074630460C4609F0A8F98D
:100B300041EC100B08F058F851EC100B3A462346E4
:100B400008F0A6FF04460E4653EC182B40464946D3
:100B500008F09EFF2246334608F03EFD08F00AFDED
:100B600068602869AE6909F08BF98046304689468D
:100B700009F086F941EC100B08F036F8D5E90506C6
:100B8000B0EE408AF0EE608A09F07AF90746304606
:100B90000C4609F075F941EC100B07F0C1FF51EC60
:100BA000100B3A46234608F073FF04460E4653ECFA
:100BB000182B4046494608F06BFF02460B4620467C
:100BC000314609F06FF808F0D5FCB5F92010A8609F
:100BD000484200EE100A9FED381AB8EEC00AA86924
:100BE00020EE010A85ED030A09F04AF941EC100BE9
:100BF00007F096FFA869B0EE408AF0EE608A09F02F
:100C00003FF941EC100B07F0EFFF51EC180B53ECE0
:100C1000102B08F0E1FC02460B4608F0DDFC9FEDCE
:100C20001E0B02460B4651EC100B08F07DFD08F040
:100C3000A1FC95ED011A95ED022A95ED033A9FED81
:100C40001F4A00EE100A32EE415A32EE011A23EE2C
:100C5000043A20EE054A20EE010A34EE035A30EE43
:100C6000031A33EE442A33EE400A8AED035A8AED22
:100C7000041A8AED052A8AED060ABDEC068B01B03E
:100C8000BDE8F08F0020C5E90100E860BDEC068BEF
:100C900001B0BDE8F08F00BF000000000000F03F91
:100CA0001B0DE02D90A0D63FDA0F493FDA0FC9C0E7
:100CB000DA0FC9400000C84200001643CDCC4C3DBD
:100CC00040F20870C2F20000418840F24422C2F2B1
:100CD000000283895180C18A008C9380D180108169
:100CE0007047000040F29840C2F2000000F0E0BE01
:100CF000F0B581B040F24C50C2F20000C16C46F237
:100D0000A040C4F202000968A0F14802914227D92C
:100D100046F29F0350F89C2CC4F2020399424FF014
:100D200020036DDD46F23F47C4F20207B94200F3EB
:100D3000818046F2A007C4F20207B94200F0B080F9
:100D400046F21047C4F20207B94200F0D68046F2DC
:100D50002843C4F20203994200F0CD808AE100BF2B
:100D600046F25802C4F2020202F16003994223D90A
:100D700046F29F03D2F8A823C4F2020399424FF02F
:100D8000200340F3938046F23F47C4F20207B94282
:100D900000F3D68046F2A007C4F20207B94200F081
:100DA000F78046F21047C4F20207B94200F03C81D6
:100DB00046F2284332E100BF46F29F079142C4F257
:100DC00002074FD952F8546CB9424FF020074FDC5C
:100DD00046F23F05C4F20205A94240F3E58046F21F
:100DE0004005C4F20205A94200F0D88046F2700521
:100DF000C4F20205A94200F0E68046F28807DBE073
:100E000046F23F07C4F20207B94267DD46F24007E7
:100E1000C4F20207B94243D046F27007C4F2020797
:100E2000B9426AD046F28803C4F20203994214D050
:100E300020E100BF46F24047C4F20207B9422FD07A
:100E400046F27047C4F20207B94256D046F28843D0
:100E5000C4F20203994240F00D814FF40063134243
:100E60004ED13DE152F8586CB9424FF02007AFDD4A
:100E700046F23F45C4F20205A94279DC46F2A005DC
:100E8000C4F20205A94200F0898046F21045C4F27E
:100E90000205A94200F0978046F228478CE000BF87
:100EA0004FF4001313422BD11AE100BF46F23F0763
:100EB000C4F20207B94240F3A98046F24007C4F2E7
:100EC0000207B94264D046F27007C4F20207B94281
:100ED00000F0AA8046F2880340E000BF46F2100707
:100EE000C4F20207B94208D046F22803C4F2020352
:100EF000994240F0BF804FF40063134200F0F0804D
:100F000046F27042C4F2020291420BD046F288428D
:100F1000C4F20202914209D14FF4006240F8942CCD
:100F2000F0E000BF202240F8942CEBE04FF000628C
:100F3000814208BF4FF4001240F8942CE2E000BF59
:100F400046F24047C4F20207B94221D046F2704748
:100F5000C4F20207B94267D046F28843C4F20203E2
:100F6000994240F0A9804FF4006313425ED1B7E08C
:100F700046F24045C4F20205A9420FD046F2704540
:100F8000C4F20205A9421ED046F2884714E000BF11
:100F90004FF40013134249D1A2E000BF4FF40017F1
:100FA0003740A7B99CE000BF46F21005C4F2020525
:100FB000A94208D046F22807C4F20207B94240F01D
:100FC00085804FF400673740002F00F089809942F8
:100FD0002CD8914258D946F27000C4F202008142E6
:100FE00000F0808046F28800C4F20200814200F0E6
:100FF0007D8046F2A000C4F2020081420CBF4FF493
:1010000000104FF0006042F84C0C7BE046F21007F5
:10101000C4F20207B94207D046F22803C4F2020321
:10102000994249D14FF40063134259D046F210421D
:10103000C4F20202914219D046F22842C4F20202DE
:1010400091420DD046F24042C4F2020291420CBFDE
:101050004FF400114FF0006140F8981C52E000BFBF
:101060004FF4006140F8981C4CE000BF202140F88C
:10107000981C47E04FF00063814208BF4FF4001313
:1010800013427FF43DAF2BE046F21000C4F20200A1
:10109000814231D046F22800C4F2020081422DD0B4
:1010A00046F24000C4F2020081420CBF4FF400102F
:1010B0004FF0006024E000BF4FF00063814208BFA2
:1010C0004FF400131342B1D10AE000BF4FF00067A4
:1010D000814208BF4FF400173740002F7FF477AFED
:1010E00001B0F0BD202042F84C0C0BE04FF4006042
:1010F00042F84C0C06E000BF202001E04FF40060F5
:1011000042F8500C40F2E417C2F20007387800248D
:101110008007C4F202040BD4787880071FD4B87813
:10112000800730D401B0BDE8F04005F059BB00BFE6
:101130003D4615F8480B3E4600F0FD0006F8280B2A
:1011400004F580600121012200F054FF07F10B003B
:1011500029463246FFF76AFA78788007DFD5787833
:10116000102100F0FD0078702046012200F042FFBF
:1011700007F1140007F1380107F15402FFF716FADE
:10118000B8788007CED5B878102100F0FD00B8708F
:101190002046012200F02EFF07F1080007F144016C
:1011A000FFF786FB787997ED110A01281ED140F2EE
:1011B000C064C2F20004DFED1E0A204603F03EF9CF
:1011C00094ED080AB5EE400AF1EE10FA03DA9FED4D
:1011D000190A00202062BDEEC00A10EE100A05F0C8
:1011E000AFFB01B0BDE8F04005F0FABA9FED101A70
:1011F000B4EE410AF1EE10FA10DD38790130C1B2D7
:10120000C92938710AD30120787140F2C06044F2D4
:101210000001C2F20000C4F21C51816241F2873029
:1012200005F08EFB01B0BDE8F04005F0D9BA00BF73
:10123000000034420000000040F23840C2F20000DA
:1012400000F036BC70470000102000F0F7BD000031
:10125000202000F0F3BD0000EFF3108072B600BF55
:10126000FEE7000090F82020013A012A08D8006823
:1012700000F114020020136819431160704700BF89
:1012800000F1240201204FF48021136819431160FA
:101290007047000010B590F820E0D0F800C0AEF123
:1012A000010EBEF1010FDCF808E011D81EF0E05F7E
:1012B00018D0CEF3016EBEF1030F1DD100F1240151
:1012C00001204FF400020B681A430A6010BD00BFF2
:1012D00000F1240101204FF480220B681A430A60B8
:1012E00010BD00BF00F1240101204FF400120B6873
:1012F0001A430A6010BD00BF012000FA0EF018600A
:10130000886828B14B68CC6844EAC303034303E010
:101310000868CB6843EA40530CEB0E10C0F88031EC
:101320000B69C0F88431097D012905D100F5C2712E
:101330000B6843F480730B605168C0F88C1112681D
:1013400000F5C071C0F88821002001220B681A4303
:101350000A6010BD90F82020013A012A30D8B0B5BB
:1013600046F20060C4F20000026842F0010202602E
:10137000026822F47C520260D1F814E0CC694A6A17
:101380000368012C43EA022202600EF01F024FF0B4
:10139000010303FA02F2C3696FEA020C23EA0203B3
:1013A000C36113D02CBBC36803EA0C03C360CB68D2
:1013B0008C8844EA034300EBCE0423640B4611E01F
:1013C000416A41F48021416201207047C3681343A0
:1013D000C3600B688C8844EA034300EBCE042364AB
:1013E00001F10C038C681B8843EA044300EBCE0434
:1013F000636443688D6943EA0204D1F810E0096A26
:10140000002D08BF03EA0C0444604369BEF1000FDD
:1014100043EA020408BF03EA0C040129446102D133
:10142000C1691143C161016821F00101016000201F
:10143000B0BD00007047000010B590F82040013C9E
:10144000012C73D8D0F800C000290CBFDCF80C4088
:10145000DCF81040A40773D00CEB011CDCF8B041A1
:101460000CF5D87E14F004049460DCF8B04119BF88
:10147000E4085460640D1460DEF80040002904F0B4
:101480000204D460DCF8B44104F00F041461DCF809
:10149000B441C4F307249461DCF8B4414FEA144426
:1014A0005461DCF8B8211A70026802EB0112D2F81C
:1014B000B8214FEA12225A70026802EB0112D2F8E8
:1014C000B8214FEA12429A70026802EB0112D2F878
:1014D000B8214FEA1262DA70026802EB0112D2F808
:1014E000BC211A71026802EB0112D2F8BC214FEA4A
:1014F00012225A71026802EB0112D2F8BC214FEAA3
:1015000012429A71026802EB0112D2F8BC214FEA32
:101510001262DA7100680CBF00F10C0100F11001D9
:10152000002020220B681A430A6010BD00F124013C
:1015300001204FF480220B681A430A6010BD00BFDF
:1015400000F1240101204FF400120B681A430A60D5
:1015500010BD00002DE9F04F81B0044600684669D7
:10156000D0F804908768D0F80CB0D0F810A0D0F86C
:101570001880F10704D1002530071DD424E000BFF6
:10158000F90710D00121BA07816009D4780700F16A
:10159000AF80380700F1B680204600F07BFA02E009
:1015A000204600F079FA0025F80500F18780F8035D
:1015B00000F1B180300707D51BF0100004D020687F
:1015C00045F400751021C160700708D51BF00800B4
:1015D00005D020680821C160204600F0F5F9B00769
:1015E00006D52068C068800702D0204600F0EEF9DA
:1015F000700607D51AF0100004D0206845F4806505
:1016000010210161B00608D51AF0080005D0206845
:1016100008210161204600F009FAF00606D520688D
:101620000069800702D0204600F002FAB00308D516
:1016300019F0100005D0206810214160204600F00C
:10164000F9F9F00308D519F0080005D02068082141
:101650004160204600F02AFA300440F19B805FEAA6
:10166000497040F1948006F4807008EA1020284305
:101670005FEA8871014648BF41F00201B20558BFD8
:1016800001465FEA48700D4648BF45F00405700505
:1016900058BF0D46300540F17A8018F0700000F018
:1016A00076801038000905286CD8DFE800F003596F
:1016B0005D61656945F0080564E000BF20684FF48E
:1016C0008071BA0581600BD4780515D438051DD416
:1016D000204600F0E3F9F8037FF56CAF1BE000BF94
:1016E000204600F0DDF9F8037FF564AF13E000BF9A
:1016F0004FF4006558E700BF05F50055F8037FF586
:1017000059AF08E04FF480554EE700BF05F580451E
:10171000F8037FF54FAF20684FF48031BA03816042
:101720000AD4780310D4380314D4204600F0BAF950
:1017300030073FF541AF47E7204600F0B5F93007E5
:101740003FF53AAF40E700BF05F5004530073FF5EC
:1017500033AF39E705F5803530073FF52DAF33E777
:1017600045F010050EE000BF45F020050AE000BF7F
:1017700045F0400506E000BF45F0800502E000BFEF
:1017800045F480752068816921F0700181612068CD
:101790000421416055B1606A40EA0501204661625A
:1017A00001B0BDE8F04FFFF745BE00BF01B0BDE896
:1017B000F08F0000002804BF01207047B0B5044638
:1017C00090F8200010B9204600F06EF820680168FB
:1017D00041F00101016000F013FC054620684168FA
:1017E000C90705D100F00CFC401B0B28F6D310E014
:1017F000016821F00201016000F002FC054600BF13
:101800002068416889070DD500F0FAFB401B0B28C2
:10181000F6D3606A052140F400306062012084F84C
:101820002010B0BD217E0268012922F0800208BF8D
:1018300080320260617E0268012922F0400208BF06
:1018400040320260A17E0268012922F0200208BF16
:1018500020320260E17E0268012922F0100218BFE6
:1018600010320260217F0268012922F0080208BFBD
:1018700008320260617F0268012922F0040208BF79
:1018800004320260D4E901C2D4E9033561691A4324
:101890002A431143ACF101021143C161002001212F
:1018A000606284F82010B0BD10B586B0006846F6BE
:1018B0000002C4F2000200219042CDE90411CDE9FA
:1018C0000211019134D046F20041C4F20001884275
:1018D00077D140F23C21C2F200010A6843F6400091
:1018E000C4F20200531C0B6052B900210091016840
:1018F00041F000710160016801F0007100910099F0
:101900000021009150F8101C142441F0080140F807
:10191000101C50F8100C032100F0080000900098F3
:1019200040F20040C4F2020000F5006035E000BF64
:1019300043F64000C4F202000091016841F080616A
:101940000160016801F080610091009940F23C2142
:10195000C2F200010A68531C0B6052B900210091C9
:10196000016841F000710160016801F000710091AF
:1019700000990021009150F8101C402441F0020110
:1019800040F8101C50F8100C602100F0020000908C
:10199000009840F20040C4F202000191022102913D
:1019A00000210391032104910921059101A900F06F
:1019B00051FA20460521002200F0F0FC204600F0FC
:1019C000DBFC06B010BD00007047000080B58AB097
:1019D00003AA01AB0021FFF72FFD0398A0F201211C
:1019E000032920D80138C1B2BDF80420890051FA7A
:1019F00080F040F2087112BAC2F20001120C31F804
:101A0000103021F8102001EB4000BDF80610BDF8A1
:101A1000082009BA090C418011BA9DF80A20090C66
:101A20000381818082710AB080BD00007047000090
:101A30007047000070470000B0B5044690F82000E1
:101A400001281DD1022084F820002068016821F0BF
:101A50000101016000F0D4FA054600BF206840682B
:101A6000C00713D000F0CCFA401B0B28F6D3606AF5
:101A700040F400306062052084F820000120B0BDF1
:101A8000606A40F4002060620120B0BD0020606206
:101A9000B0BD0000704700007047000070470000B4
:101AA000704700007047000070470000704700005A
:101AB000F0B581B004460020009040F25400C2F21C
:101AC00000000268D4E9166048F2B51337680821AF
:101AD000C1F64E3381403942A2FB03250CD0226867
:101AE00013685B0708D5136823F004031360B16023
:101AF000616D41F00101616501218140394208D0E9
:101B000022685269120604D5B160616D41F002018C
:101B1000616504218140394208D022681268920729
:101B200004D5B160616D41F004016165102181400F
:101B3000394217D020680268120713D5B1600268D5
:101B40000168520308D4C90508D4016821F00801CE
:101B50000160216C21B905E008033FD4216C09B173
:101B600020468847E16D202000FA01F23A4241D038
:101B700020680368DB063DD5B26094F83530026812
:101B8000052B1BD122F016020260426922F080026E
:101B90004261226C0AB9A26C1AB1026822F00802F2
:101BA00002603F208840B060012084F83500216D3C
:101BB0000020002984F8340052D157E00168520314
:101BC00010D4C90512D4016821F010010160012070
:101BD00084F83500002084F8340007E0A16C002967
:101BE000BED1BFE7080301D4616C00E0E16B09B12D
:101BF00020468847606DC8B3606DC0072ED00520B1
:101C000084F835002068A90A026822F00102026007
:101C1000009A01328A4200921AD80268D20717D07D
:101C2000009A01328A42009212D80268D2070FD07D
:101C3000009A01328A4200920AD80268D20707D07D
:101C4000009A01328A42009202D80268D207DFD19C
:101C5000012084F83500002084F83400E16C29B1BB
:101C6000204601B0BDE8F040084700BF01B0F0BD1C
:101C70002DE9F041044600F0C3F9ECB1054602201D
:101C800084F835000020216884F83400086820F0CA
:101C90000100086021680868C00711D000F0B0F9A1
:101CA000401B0528F6D9032520230320636584F80B
:101CB0003550BDE8F08100BF0120BDE8F08100BFD4
:101CC000086848F23F02CFF21002D4E9013500EA79
:101CD000020C04F10C0898E8C10143EA0C032B4301
:101CE0001843D4E9072E304338431043626A40EA70
:101CF0000E00042A40EA08031CD1206BD4E90A2E06
:101D000040EA0E00184308604869BEF1000F20F059
:101D1000030040EA020040F0040C11D0B8F5005F67
:101D200036D0B8F1000F45D1022A46D0012A3BD067
:101D300032B942E00B60486920F0070040EA020C2B
:101D400001F0F8004AF6AB221038CAF6AA22A0FB2E
:101D500002231A094AF22213C1F814C0C0F6000384
:101D60009A5C40F2FF335F284FF03F0021EA030105
:101D700000FA02F088BF0431C4E91612886000231B
:101D800001250020636584F83550BDE8F08100BF6F
:101D9000032AD5D8012540230120DFE802F0030EF5
:101DA000030500BF82E700BFAEF1C070B0FA80F05B
:101DB000400904E0032A04D3C2D1CEF30060002816
:101DC000BED0012540230120636584F83550BDE86D
:101DD000F0810000B0B5044600F012F9054640F26B
:101DE0004400C2F200000078611C18BF044400BF28
:101DF00000F006F9401BA042FAD3B0BD20280FD056
:101E0000102818BF704740F2E410C2F20000417879
:101E100041F001014170817841F00101817007E0DA
:101E200040F2E410C2F20000017841F001010170BB
:101E3000C078002818BF04F0D3BC704743F61441A3
:101E4000C4F201010A68024214BF08607047FFF73C
:101E5000D5BF00002DE9F04F82B000F13E4707F1F9
:101E6000FF77860546EA972741F60046C4F2020648
:101E7000082243F6004EB04208BF0722C4F2010E0A
:101E8000072F38BF3A46002600274FF0000800927F
:101E900009E000BF08F101080237B8F1100F06F1A0
:101EA000040600F0A3800D68012202FA08F415EA86
:101EB0000409EFD0D1F804B003220BF0030CACF10D
:101EC0000105BA40012D6FEA020A0FD88268CD6879
:101ED00002EA0A02BD402A4382604268A243CBF371
:101EE000001404FA08F42243426005E0BCF1030F39
:101EF00002D14FF0030C1EE0C2688C6802EA0A02AD
:101F0000BC402243BCF1020FC26014D16FF0030247
:101F100002EA58020244D2F820C006F01C040F2343
:101F20000D69A3402CEA0303A5402B431362D1F8AB
:101F300004B00BF0030C02680CFA07F302EA0A0281
:101F40001A431BF4403F0260A4D0002243F644032E
:101F50000192C4F202031A684FF6084C42F4804220
:101F60001A601A68CFF6FF7C02F480420192019A4F
:101F700028F00302724452F80C3006F00C050F24CE
:101F8000AC40A343009C04FA05F52B4342F80C3007
:101F9000DEF808204B6842EA090543F60C4CDC02E7
:101FA00058BF22EA0905CEF80850C4F2010CDCF84B
:101FB00000209C0242EA090558BF22EA0905CCF834
:101FC0000050DEF804209C0342EA090558BF22EACB
:101FD0000905CEF80450DEF80020DB0342EA0905CB
:101FE00058BF22EA0905CEF8005053E702B0BDE819
:101FF000F08F0000002A08BF0904816170470000CB
:1020000044F6A400C2F2000000687047002804BF34
:1020100001207047F0B581B0044690F83D0028B922
:10202000002084F83C00204600F0A2F8242084F828
:102030003D002068016821F001010160016841F460
:1020400000410160016821F40041016000F0B4FA30
:10205000636848F2A16CC0F2010C40F60011C0F2B6
:102060003D0163453CBF48F28041C0F21E018842F9
:1020700002D2012001B0F0BD4DF68361C4F21B31E4
:10208000A0FB01122168970CD1F804E04FF496767A
:102090002EF03F0545EA92454D60774348F63816E5
:1020A0000D6AC0F24106A7FB067625F03F0763459F
:1020B00038BF960C721C3A430A62CA6948F2A0669D
:1020C0004CF6FF77C0F20106B34222EA07020BD8B2
:1020D00001385B00B0FBF3F001306FF31F300428D0
:1020E00098BF04201BE000BFA768013857B119272B
:1020F0007B43B0FBF3F001306FF31F3070B100F59C
:10210000804007E003EB4303B0FBF3F001306FF3D3
:102110001F3018B100F5004001E000BF012010435E
:10212000C8610868D4E9072320F0C00010431843B1
:102130000860886848F2FF3204F10C0790438CCFA6
:1021400018431043A6698860C86820F0FF00384330
:102150003043C860086840F001000860002020217A
:10216000206484F83D10206384F83E0001B0F0BD87
:102170002DE9F04F87B0006845F60047C4F200072C
:10218000B84203D007B0BDE8F08F00BF4FF00008A1
:1021900043F63005CDF80880C4F20205286802AC89
:1021A00040F00400286028684FF0120900F0040095
:1021B00002900298CDF8088028684FF0010A40F09C
:1021C0000100286028684FF0030B00F00100029026
:1021D00002984FF400700290042607F5D63021468D
:1021E000CDF80C90CDF810A0CDF814B00696FFF7FE
:1021F00031FE4FF4807002A981E8010E07F5D2305C
:1022000021460696FFF726FECDF80480286940F4A3
:1022100000002861286900F400000190019807B0CF
:10222000BDE8F08F40F2440044F6A401C2F2000081
:10223000C2F2000100780A6810440860704700008C
:1022400080B543F60040C4F20200016841F4007119
:102250000160016841F480610160016841F48071AE
:102260000160032000F0C6F80F2000F005F800F030
:1022700061F8002080BD000070B586B0002543F6EF
:1022800040010195C4F202010A68044642F01002BE
:102290000A60096801A801F01001019101996946DD
:1022A00000F06AF9049E002E18BF012600F084F9A0
:1022B0004DF68361B040C4F21B31A0FB01014FF029
:1022C000FF3000EB914140F2346041F20002C2F273
:1022D0000000C4F2000240F2E733C0E90021C0E987
:1022E00002530561856100F077FE054610B128466E
:1022F00006B070BD40F23460C2F2000000F0D6FEBD
:1023000005460028F3D1362000F036F80F2C0DD802
:10231000362021460022002500F040F840F2480017
:10232000C2F200000460284606B070BD01252846B0
:1023300006B070BD82B0002043F640010190C4F2A7
:1023400002014A6842F480424A604A6802F48042CC
:102350000192019A00900868002240F080500860C5
:1023600008680F2100F08050009000986FF0010085
:1023700002B000F013B80000002848BF704700F01A
:102380001F01012202FA01F11C2202EAD0004EF2E2
:102390000012CEF2000281507047000010B54EF6D8
:1023A0000C5CCEF2000CDCF80030C3F3022E8EF091
:1023B0000704042C28BF0424BEF103034FF0FF3EA2
:1023C0000EFA04F438BF0023A14399400EFA03F338
:1023D0009A43114300F00F0200F160430901043AEF
:1023E00003F564436244002848BF02F10C031970EE
:1023F00010BD00004EF60C51CEF200010A684FF6F7
:10240000FF031A4060F30A2242F0806040F0FD7042
:1024100008607047002804BF012070472DE9F04193
:1024200043F60808C4F202080446D8F8F8030D463B
:1024300000F00700884207D288F8F853D8F8F8036C
:1024400000F00700A84277D12068810717D541071F
:1024500005D5D8F8001041F4E051C8F80010010784
:1024600005D5D8F8001041F46041C8F80010D8F83C
:102470000010A26821F0F0011143C8F80010C00755
:1024800040D1D8F8F80300F00700A84207D988F82F
:10249000F853D8F8F80300F00700A8424CD12068A0
:1024A000410707D5D8F80010E26821F4E051114344
:1024B000C8F80010000708D5D8F80000216920F4FA
:1024C000604040EAC100C8F8000000F09DF8D8F86C
:1024D00000104AF2B002C1F30311C0F60002515CD1
:1024E00040F2540220FA01F140F24800C2F200002A
:1024F0000068C2F200021160FFF7BEFE0020BDE8D6
:10250000F08100BF6068811E022907D258F8081CBC
:1025100089015CBF0120BDE8F08111E0012807D1ED
:1025200058F8081C89035CBF0120BDE8F08107E072
:1025300058F8081C890703D40120BDE8F08100BFCA
:10254000D8F8001021F003010843C8F80000FFF795
:1025500057FD064641F28837D8F80000616800F060
:102560000C00B0EB810F8CD0FFF74AFD801BB84206
:10257000F2D90320BDE8F0810F22026043F6080281
:10258000C4F20202136803F003034360136803F00C
:10259000F0038360136803F4E053C360D2F800C013
:1025A0004FF4E05303EADC030361D2F8F80300F0D0
:1025B000070008607047000040F2540043F608012D
:1025C000C2F20000C4F20201006809684AF2C002C7
:1025D000C1F38221C0F60002515CC8407047000080
:1025E00040F2540043F60801C2F20000C4F20201B6
:1025F000006809684AF2C002C1F34231C0F6000225
:10260000515CC8407047000010B543F60404C4F2A2
:102610000204606800F00C0008280BD0042819BFE1
:1026200042F20040C0F2F40041F60030C0F2B700C0
:1026300010BD00BF206821682368490241F60031BF
:10264000C0F2B70100F03F02C3F388105CBF42F252
:102650000041C0F2F401A1FB00010023FDF71AFEC6
:1026600021680222C1F3014102EB4101B0FBF1F00C
:1026700010BD0000002804BF012070472DE9F04183
:1026800082B00446007843F60006C007C4F2020692
:102690000CD0B06800F00C00042840F08180306855
:1026A000800303D56068002800F06A8120788007E5
:1026B0001BD5B06810F00C0F09D0B06800F00C000A
:1026C000082840F087807068400200F183803068FD
:1026D000800703D5E068012840F052813068216905
:1026E00020F0F80040EAC10030602078000713D4E1
:1026F000207840072AD4A569002D00F03C81B068FD
:1027000000F00C00082840F0A180012D40F010815D
:10271000012002B0BDE8F0816069002840F20000AD
:10272000C4F2472000F07E800121C0F8801EFFF730
:1027300067FC0546706F8007DAD4FFF761FC401B29
:102740000228F7D9032002B0BDE8F081306C5FEABF
:10275000C0080AD400200190306C40F080503064F2
:10276000306C00F080500190019847F20007C4F2ED
:1027700000073868C00547D4386840F48070386076
:10278000FFF73EFC054600BF3868C0053CD4FFF7A4
:1027900037FC401B0228F7D9032002B0BDE8F081C6
:1027A000B06800F00C00082803D1706840023FF5C3
:1027B00076AF6068B0F5803F07D0B0F5A02F40F04D
:1027C0009B80306840F480203060306840F4803076
:1027D00030609BE0E06800285CD00020C4F2472015
:1027E00001210160FFF70CFC054600BF306880073F
:1027F0003FF574AFFFF704FC401B0228F6D9032015
:1028000002B0BDE8F08100BFA068012805D005280E
:1028100054D1306F40F004003067306F40F0010059
:10282000306755E00021C0F8801EFFF7E9FB054640
:10283000706F80077FF55CAFFFF7E2FB401B02285B
:10284000F6D9032002B0BDE8F08100BF0027C4F232
:10285000472700203866FFF7D3FB022D05460DD130
:102860003068800140F19080FFF7CAFB401B0228CE
:102870004FF00300F4D902B0BDE8F0813068800168
:1028800079D5FFF7BDFB401B02284FF00300F5D9B7
:10289000F1E700BF0020C4F2472000210160FFF7EC
:1028A000AFFB0546306880077FF51FAFFFF7A8FB39
:1028B000401B02284FF00300F4D9DCE7316F0028F9
:1028C00021F001013167316F21F0040131677DD0C2
:1028D000FFF796FB054641F2883700BF306F80074F
:1028E00000F18680FFF78CFB401BB842F6D903202D
:1028F00002B0BDE8F08100BF3168002821F48031CA
:102900003160316821F4802131607BD0FFF778FBA2
:10291000054600BF306880033FF5C8AEFFF770FB87
:10292000401B6428F6D9032002B0BDE8F08100BF47
:102930007068E16900F480028A4221D1216A00F0C6
:102940003F028A421CD147F6C071626A0140B1EB76
:10295000821F15D1A16A4FF6FF73C903994300F492
:102960004032A1F580318A420AD1E16A00F07060FC
:10297000B0EB016F04D1002002B0BDE8F08100BFD0
:10298000012002B0BDE8F08104F11C052FCD084301
:1029900040EA8210D9034FF6FF729143A1F58031CE
:1029A00040EA05600843706001203866FFF728FBA5
:1029B000044600BF30688001DDD4FFF721FB001B17
:1029C00002284FF00300F5D955E700BFFFF718FBC9
:1029D000054641F2883700BF306F800708D5FFF702
:1029E0000FFB401BB8424FF00300F5D943E700BF8F
:1029F000B8F1000F3FF57FAE306C20F080503064AE
:102A000079E600BFFFF7FCFA054600BF3068800397
:102A10007FF54CAEFFF7F4FA401B64284FF003003B
:102A2000F4D928E770B538B10446406A30B10020C7
:102A3000206104F1140007E0012070BD6068B0F56A
:102A4000827F03D004F11C00002101600026A662F1
:102A500094F8510020B9204684F8506000F03CF80A
:102A6000022084F8510094E80F0001F48271056897
:102A700002F4044225F040050560114403F40062AD
:102A80002369114403F002026369114403F0010257
:102A9000A369E569114403F40072114405F038029A
:102AA000256A114405F08002A56A114305F400521D
:102AB00011430160626A042101EA134102F010022D
:102AC00011444160C16921F40061C1610120666562
:102AD00084F85100304670BD2DE9F04F85B00446B2
:102AE000006843F20007C4F20107B84202D005B003
:102AF000BDE8F08F002643F630000096C4F20200D5
:102B000041696D4641F48051416141694FF00209CC
:102B100001F4805100910099009601684FF0010A7C
:102B200041F00201016001684FF0030B01F0020166
:102B300000910099009601684FF0050841F00101ED
:102B400001600068294600F00100009000981820FC
:102B5000009007F55440CDF80490CDF808A0CDF8CA
:102B60000CB0CDF81080FFF775F980208DE8010ECC
:102B7000CDF8108046F2104807F550402946C4F2BF
:102B80000208FFF767F940F2D835C2F200054FF4AA
:102B900040304FF0C0674FF48069C5E90806284609
:102BA000C5E90087C5E90266C5E90496C5E9066678
:102BB000FFF75EF8002818BFFEF74EFBE564AC6334
:102BC00040F2384508F14800C2F200054021C5E94D
:102BD000000705F1080080E842024FF40030C5E923
:102BE00008062846C5E90566EE61FFF741F80028AA
:102BF00018BFFEF731FBA564AC6305B0BDE8F08FEC
:102C00002DE9F04383B0044690F85000012803D129
:102C1000022003B0BDE8F08301201E4615460F4692
:102C200084F85000FFF7ECF994F85110814601291F
:102C30000DD06068B0F5827F40F0A28004294FF08B
:102C4000020040F05E81A168002940F05A81002F07
:102C50004FF0010018BF002D00F05381002E00F04E
:102C6000508194F85100002104281CBF052084F8ED
:102C700051006165A563E687A6872763E68620681D
:102C8000A686216461640168490603D4016841F0A5
:102C9000400101606168731EE268B1FA81F1B3FA24
:102CA00083F3DDF8288049095B09B2F5006F41EA3A
:102CB000030167D131B137F8021BC1602763E08E91
:102CC0000138E086012518F1010032D102E000BF91
:102CD000FFF796F9E08E18B9E08F002800F0BA806F
:102CE0002068816889070CD5E18E51B1012D08D18A
:102CF000216B002531F8022BC2602163E18E01397E
:102D0000E1868168C907E3D0E18F0029E0D0C0687F
:102D1000A16B012521F8020BA163E08F0138E08748
:102D2000D6E700BFFFF76CF9A0EB0900404580F043
:102D3000E780E08E18B9E08F002800F08B802068D3
:102D4000816889070CD5E18E51B1012D08D1216B25
:102D5000002531F8022BC2602163E18E0139E18642
:102D60008168C907DED0E18F0029DBD0C068A16B84
:102D7000012521F8020BA163E08F0138E087D1E73C
:102D80000220BEE039B139780173206B0130206335
:102D9000E08E0138E086012518F1010032D101E012
:102DA000FFF72EF9E08E10B9E08F002852D020688E
:102DB000816889070ED5E18E61B1012D0AD1216BA1
:102DC000002509780173216B206801312163E18EB0
:102DD0000139E1868168C907E2D0E18F0029DFD09F
:102DE000C068A16B01250870A06B0130A063E08F63
:102DF0000138E087D4E700BFFFF702F9A0EB090034
:102E000040457DD2E08E08B9E08F18B32068816814
:102E100089070ED5E18E61B1012D0AD1216B002504
:102E200009780173216B206801312163E18E01393A
:102E3000E1868168C907DFD0E18F0029DCD0C06856
:102E4000A16B01250870A06B0130A063E08F0138F1
:102E5000E087D1E740F25400C2F20000006849F672
:102E60008171C1F25E61A0FB0101480D4FF47A71DE
:102E7000484302906068B0F5827F0FD120468021E0
:102E800042464B4602F01EFA60B3606D40F02000EF
:102E9000606520206065012033E000BF029808B320
:102EA0000298013802902068806800061AD50298BE
:102EB000C0B102980138029020688068000611D5E0
:102EC000029878B102980138029020688068000664
:102ED00008D5029830B102980138029020688068C5
:102EE0000006DBD4A06800284FF0000009D1019053
:102EF0002168CA68019289680191019901E000BFC7
:102F00000320012184F85110002184F8501003B0EF
:102F1000BDE8F083704700007047000090F83C2047
:102F2000012A4FF0020254D010B580F83D2002680B
:102F3000D2F804E0D2F808C00C682EF070032343E6
:102F400041F2FF74C4F20004A24253600EDC40F26E
:102F5000FF73C4F200039A4216DCB2F1804F2BD00B
:102F600040F20043C4F2000324E000BF40F2FF330C
:102F7000C4F201039A4213DC41F60003C4F20003D9
:102F80009A4219D0002313E040F60003C4F2000374
:102F90009A4211D040F60043C4F200030AE000BF99
:102FA00044F20003C4F201039A4205D040F2004308
:102FB000C4F201039A4204D149682CF080031943FA
:102FC00091600121002280F83D1080F83C20BDE88E
:102FD0001040104670470000002804BF01207047D1
:102FE00010B5044690F83D0028B9002084F83C0054
:102FF000204600F01FF8022084F83D002068211DC3
:1030000002F0FEFB012084F8460084F83E0084F8BC
:103010003F0084F8400084F8410084F8420084F8BE
:10302000430084F8440084F8450084F83D00002003
:1030300010BD000080B582B0006844F20041C4F2C7
:103040000101884220D040F60041C4F200018842CC
:1030500029D10020019043F64000C4F2020001682B
:10306000002241F0080101600068052100F008001D
:10307000019001983220FFF791F9322002B0BDE8AB
:103080008040FFF779B900BF0020009043F6400070
:10309000C4F20200416841F400314160406800F42C
:1030A00000300090009802B080BD000090F83D1004
:1030B00001291CBF01207047022180F83D100068E3
:1030C00041F2FF72C168C4F20002904241F0010176
:1030D000C1600DDC40F2FF71C4F20001884215DCD2
:1030E000B0F1804F2AD040F20041C4F2000123E049
:1030F00040F2FF31C4F20101884213DC41F60001C5
:10310000C4F20001884219D0002113E040F600010A
:10311000C4F20001884211D040F60041C4F200011F
:103120000AE000BF44F20001C4F20101884205D068
:1031300040F20041C4F20101884206D1816801F0E9
:103140000701062904BF00207047016841F0010112
:10315000016000207047000090F83C20012A4FF0E9
:10316000020200F0C58080B580F83D20D0F800C094
:103170004FF67772DCF8083023EA0202CCF8082018
:103180000B684F2B28DC1F2B44DD202B45D0302B28
:1031900043D0402B40F0AE80D1F804E0C968DCF8A1
:1031A0002030DCF8202022F00102CCF82020DCF8CE
:1031B000182022F0F00242EA011123F00A0242EA4A
:1031C0000E02CCF81810CCF82020DCF8081041F0E2
:1031D000470121F0300180E06F2B27DDB3F5005F60
:1031E00048D0B3F5805F7AD0702B40F08380D1E96E
:1031F00001E3C968DCF8082043EA0E0322F47F42A9
:1032000043EA01211143CCF80810DCF8081041F022
:10321000770162E00BB1102B6CD1DCF8081021F0C3
:103220007001194341F0070157E000BF502B35D022
:10323000602B5FD1D1F804E0C968DCF8203023F0BE
:103240001003CCF82030DCF81830DCF8202023F410
:10325000704322F0A00243EA013142EA0E12CCF898
:103260001810CCF82020DCF8081041F0670121F09C
:10327000100132E0D1E901E3C968DCF8082043EA33
:103280000E0322F47F4243EA01211143CCF80810D7
:10329000DCF8081041F480411FE000BFD1F804E0E1
:1032A000C968DCF82030DCF8202022F00102CCF8DC
:1032B0002020DCF8182022F0F00242EA011123F06D
:1032C0000A0242EA0E02CCF81810CCF82020DCF8F2
:1032D000081041F0570121F02001CCF8081000221D
:1032E000012180F83D10002180F83C10BDE88040AD
:1032F000104670470122F3E77047000010B50168DF
:1033000004460869800744BFC8685FEA807039D402
:103310000869400744BFC8685FEA40703ED4086946
:10332000000744BFC8685FEA007045D40869C0065A
:1033300044BFC8685FEAC0604AD40869C0071CBFC0
:10334000C8685FEAC07051D10869000644BFC86808
:103350005FEA006052D40869400644BFC8685FEA6B
:10336000406053D40869800646BFC8685FEA806041
:1033700010BD6FF0200220460A61BDE81040FFF743
:10338000CBBD00BF6FF00200086101202077886983
:10339000800743D02046FFF7AFFF45E06FF0040001
:1033A000086102202077886910F4407F40D02046D1
:1033B000FFF7A2FF42E000BF6FF0080008610420A1
:1033C0002077C86980073DD02046FFF795FF3FE092
:1033D0006FF01000086108202077C86910F4407F62
:1033E0003AD02046FFF788FF3CE000BF6FF00100B5
:1033F0000861204600F010FA2168A5E76FF0800010
:1034000008612046FFF786FD2168A4E76FF04000C1
:103410000861204600F00AFA2168A3E7204600F080
:1034200025F8204600F066F92168002020776FE734
:10343000204600F01BF8204600F05CF921680020CF
:1034400020776CE7204600F011F8204600F052F992
:1034500021680020207769E7204600F007F8204621
:1034600000F048F921680020207766E770470000E7
:1034700090F83C30012B04BF022070474FEAB202A3
:10348000032A00F201812DE9F043DFE802F0033F57
:103490007FBF00BF036840F200461A6A43F48065AC
:1034A00022F001021A621C6A1A46D3F804C052F8CC
:1034B00018EF8F6824F00204C4F20106B54244EA12
:1034C000070405D1CF6824F00C0427F004073C431F
:1034D0000F68B54206D1D1E905582CF440762E4349
:1034E00046EA080C2EF073063743C3F804C09F6108
:1034F0004F6809695F631C629F6947F008079F6115
:103500009F6927F004079F61B2E000BF036840F2A3
:1035100000481A6A43F4806522F010021A621C6A9D
:103520001A46D3F804C052F818EF8F6824F020042C
:10353000C4F20108454544EA071407D1CF686FF08B
:10354000400624F0C00406EA07163443D1F8009080
:10355000454506D1D1E905562CF440672E4347EA8C
:10356000860C2EF4E64747EA0927C3F804C09F619A
:103570004F6809699F631C629F6947F400679F61F8
:103580009F6927F480679F6171E000BF036840F284
:1035900000481A6A43F4806522F480721A621C6A39
:1035A0001A46D3F804C052F81CEF8F6824F4007454
:1035B000C4F20108454544EA072408D1CF6840F227
:1035C000FF463F0224F4406427EA06063443D1F85C
:1035D0000090454506D1D1E905562CF440572E43BD
:1035E00047EA061C2EF0730747EA0907C3F804C030
:1035F000DF614F680969DF631C62DF6947F0080714
:10360000DF61DF6927F00407DF6131E0036840F222
:1036100000451A6A43F4806722F480521A621A46FF
:10362000D3F820C05C6852F81CEFD1F800808E6897
:10363000C4F20105AF4204D14D6924F4804444EA48
:1036400085142CF4005747EA06372EF4E64646EA7E
:1036500008265C60DE614E6809691E641F62DF69CE
:1036600047F40067DF61DF6927F48067DF610902E3
:103670001368194311600021BDE8F043002280F86F
:103680003C200846704700BF0121002280F83C2002
:1036900008467047002804BF0120704710B5044653
:1036A00090F83D0028B9002084F83C00204600F046
:1036B0001FF8022084F83D002068211D02F0A0F8C8
:1036C000012084F8460084F83E0084F83F0084F826
:1036D000400084F8410084F8420084F8430084F8F4
:1036E000440084F8450084F83D00002010BD00002F
:1036F000704700007047000041B1082910D004292C
:1037000014BF00F1410200F13F020BE090F83E20AF
:10371000012A1CBF01207047022280F83E2013E0DE
:1037200000F140021278012A1CBF012070470222DA
:10373000082907D0042914BF80F8412080F83F20D1
:1037400002E000BF80F84020006801F01F01012264
:10375000036A02FA01F123EA01020262026A1143DA
:1037600041F2FF72C4F200029042016210DC40F2AA
:10377000FF71C4F2000188421CDCB0F1804F3FD0E1
:1037800040F20041C4F20001884239D03DE000BF60
:1037900040F2FF31C4F20101884219DC41F6000118
:1037A000C4F2000188422BD00021C4F201018842FA
:1037B0001AD02AE040F60001C4F2000188421FD06E
:1037C00040F60041C4F20001884219D01DE000BF5C
:1037D00044F20001C4F20101884211D040F20041DC
:1037E000C4F20101884210D1416C40F2004340F420
:1037F0008062C4F2010341F400419A42416404D161
:10380000816801F00701062903D0016841F0010138
:103810000160002070470000006841F20001C4F21E
:103820000001884218BF7047FEF7FCBC70470000DB
:10383000002804BF0120704710B5044690F83D00F1
:1038400028B9002084F83C00204600F021F824200C
:1038500084F83D002068C16821F40051C160204611
:1038600002F06CF82068016921F49041016141691E
:1038700021F02A014161C16841F40051C16000207A
:103880002021206484F83D1084F83E1010BD000013
:1038900070B586B00446016844F60000C4F200002A
:1038A000814201D006B070BD002643F6300101967A
:1038B000C4F202010A6900F5E03042F480220A6194
:1038C0000A6902F480220192019A01960A6842F084
:1038D00004020A60096801F00401019101994FF4A2
:1038E000406101910221CDE90216032104910721D3
:1038F000059101A9FEF7AEFA40F2984546F228007C
:10390000C2F20005C4F202004FF0006185E84300F6
:103910004FF440304FF48062C5E908062846C5E9F7
:103920000362C5E90566EE61FEF7A2F9002818BF3B
:10393000FDF792FC272005210022A563AC63FEF76A
:103940002DFD2720FEF718FD06B070BDFEE7000034
:1039500080B540F2883046F20041C2F20000C4F265
:1039600000010322002380E80E0000F10C014FF457
:10397000102C4FF4001E81E808504FF48071018331
:10398000C0F81A30FDF716FF002808BF80BDBDE85B
:103990008040FDF761BC000080B540F2B03046F6D3
:1039A0000001C2F20000C4F200010322002380E8FB
:1039B0000E0000F10C014FF4102C4FF4001E81E8B2
:1039C00008504FF480710183C0F81A30FDF7F2FE01
:1039D000002808BF80BDBDE88040FDF73DBC000069
:1039E00080B582B0002043F630010190C4F202019C
:1039F0000A6842F400120A600A6802F40012019296
:103A0000019A00900868002240F48000086008686D
:103A1000052100F48000009000980C20FEF7BEFC09
:103A20000C20FEF7A9FC382000210022FEF7B6FC8E
:103A30003820FEF7A1FC3B2005210022FEF7AEFC5A
:103A40003B2002B0BDE88040FEF796BC10B545F2C1
:103A500065504AF22C12C0F60000C0F600020021A8
:103A600002F0ECFF40F2C004C2F20004206045F214
:103A70006D504AF2EC02C0F60000C0F600020021D0
:103A800002F0DCFF606045F2D5304AF2C802C0F6B1
:103A90000000C0F60002002102F0D0FFA06010BDBF
:103AA0002DE9F04786B0002143F6300005910091E2
:103AB000C4F20200026841F6000442F00202026011
:103AC0000268C4F2020402F002020092009A00911D
:103AD0000268402742F0010202600268012502F0FC
:103AE00001020092009A0091026842F0080202600E
:103AF000026802F008020092009A0091026842F007
:103B000004020260026802F004020092009A00912E
:103B1000026842F080020260026802F080020092B5
:103B2000009A0091026842F040020260026802F0CE
:103B300040020092009A00910168012241F02001A8
:103B400001600068402100F02000009000982046AD
:103B5000FEF750FAA4F5C0563046102101224FF06E
:103B60001009FEF747FAA4F5A058404601210122AA
:103B7000FEF740FACDE9017501AF20463946CDE99F
:103B80000355FEF767F9092001904FF4041A204607
:103B90003946CDE902A5FEF75DF9CDE901954FF073
:103BA0000209304639460395CDF81090FEF752F9D8
:103BB0003020CDE9010AA4F5805039460395FEF77F
:103BC00049F940463946CDE90155CDE90359FEF79B
:103BD00041F90A2000210022FEF7E0FB0A20FEF74F
:103BE000CBFB172000210022FEF7D8FB1720FEF7A1
:103BF000C3FB06B0BDE8F08780B540F2F84045F65B
:103C00000041C2F20000C4F2000141F6802200230C
:103C10004FF4804CC0F2060280E80E00C0E9033C7D
:103C2000C0E90533C0E90733FEF7F0F9002808BF03
:103C300080BDBDE88040FDF70FBB0000B0B540F28D
:103C40004C5043F20001C2F20000C4F201014FF4F3
:103C50008272002380E80E0000F10C014FF0020C8C
:103C60004FF0010E4FF40074382581E808500A2106
:103C7000C0E90645C0E90833C0E90A31FEF7D2FEC3
:103C8000002808BFB0BDBDE8B040FDF7E5BA0000B0
:103C9000B0B58CB044F2004540F2A450C4F2010526
:103CA0000021C2F2000041F28732CDE90511CDE9D1
:103CB0000311C0E90051C0E9021201618161FFF7FF
:103CC0008BF9002818BFFDF7C7FA40F2A450C2F2E2
:103CD0000000FFF7DFFC002818BFFDF7BDFA6020E9
:103CE00040F2A45400900020C2F20004CDE901008B
:103CF0000490694620460022FFF7BAFB002818BF4F
:103D0000FDF7AAFA2068A84202D00CB0B0BD00BFEF
:103D10000020079043F63000C4F20200016841F031
:103D2000200101600068012100F020000790079841
:103D30004020079002200890CDE9091003200B9045
:103D400005F5504007A9FEF785F80CB0B0BD00009E
:103D500080B586B040F2EC5040F600420021C2F23D
:103D60000000C4F20002532340F2E73C0591CDE984
:103D70000311CDE90011C0E90023C0E9021C016173
:103D80008161FFF729F9002818BFFDF765FA4FF4A4
:103D90008050029040F2EC50C2F2000002A9FFF7FE
:103DA000DBF9002818BFFDF757FA40F2EC50C2F2D9
:103DB00000006946FFF7B2F8002818BFFDF74CFA7B
:103DC00006B080BD80B540F27C6044F60001C2F2CE
:103DD0000000C4F2000148F2A062C0F20102002318
:103DE00080E80E0000F10C014FF4806C4FF0040EDF
:103DF00081E80850C0E90633FFF71AFD002808BF24
:103E000080BDBDE88040FDF727BA0000B5EE403A1E
:103E1000F1EE10FA0CD1F5EE403AF1EE10FA07D1BE
:103E2000B5EE404AF1EE10FA02D100F0CDB900BF74
:103E30002DED108BF5EE401A45F6DF11F1EE10FA7C
:103E4000C5F6377110D1B5EE402AF1EE10FA0BD15C
:103E5000F5EE402AF1EE10FA06D190ED015A90ED00
:103E6000024A90ED033A3BE122EE025A21EEA16AAA
:103E700036EE055A22EEA26A36EE055A15EE102AE3
:103E8000A1EB6202FEEE004A06EE102A25EE245A4D
:103E900025EE065A25EE065AB7EE087A35EE075A91
:103EA00065EE065A23EEA35A23EE036A36EE055A50
:103EB00024EE046A36EE055A15EE102AA1EB6202D2
:103EC00006EE102A25EE245A25EE065A25EE065A4D
:103ED00035EE075A25EE065A25EE237A65EE043AAA
:103EE00090ED024A25EE036A90ED033A64EE046A0F
:103EF000B6EE008A63EE037A38EE665A35EE679ABC
:103F000090ED00AA90ED015A2AEE03BA25EE04CAFC
:103F10003CEE4BDA27EE0DEA26EE09FA3CEE0BBA40
:103F200025EE05CA3FEE0EEA2AEE04FA65EE038A94
:103F300038EE4C8A7FEE289A38EE67CA63EEA9AA5B
:103F400027EE0CCA26EE0BBA3AEE8EEA3BEE0CBA1E
:103F50002AEE05CA64EE03AA7AEECCBA63EEABBAD7
:103F60003BEE8BBA3EEE0EEA3BEE0BBA2BEE0BBAF3
:103F70002EEE0EEA3EEE0BBA65EE82BAB1EECB2A19
:103F800025EEA1EA65EEA21A78EECF2A7CEE2A5A37
:103F900027EE25BA26EE22CA78EE666A3CEE0BBA08
:103FA00023EEA68A2AEE0AAA38EE0B8A7AEE244A73
:103FB00074EEA74A78EE087A22EE098A22EEA79AD2
:103FC00038EE098A22EE0D9A25EEA7AA66EEA76AB8
:103FD00022EE292A39EE0A9A72EE266A25EEA12AE5
:103FE0006BEEA47A64EE8E4A61EEA21A37EEC22A14
:103FF00069EE237A71EEE41A66EE864A63EE883A39
:1040000073EEE43A40F2581273EEA11A62EEAB2A54
:104010006EEE253AC2F2000273EEE22AD2ED003AC9
:1040200027EE26AA28EE077A26EE096A7AEE677A44
:1040300036EE476AF5EE403A37EE822AF1EE10FA94
:1040400036EE226A32DD92ED007ADFED5D2A22EE55
:10405000077AD2ED013A27EE227A37EE237A82ED03
:10406000017A92ED007AD2ED023A21EE877A27EEBC
:10407000227A37EE237A82ED027A92ED007AD2ED3F
:10408000033A26EE077A27EE227A37EE237A82ED7C
:10409000037A92ED017A37EE000A92ED027AD2EDC0
:1040A000032A77EE200A32EE811A03E000235360E0
:1040B0009360D36040F25802C2F2000292ED007A9F
:1040C00027EE022A92ED007A32EE000A27EE212A2C
:1040D00092ED007A72EE200A27EE062A32EE011ADD
:1040E0009FED382A20EE020A20EE826A21EE021AA3
:1040F00090ED002A26EE047A65EE400A30EEC77A8B
:1041000063EE010A37EE607A61EE040A62EE001A8D
:1041100071EEA00A63EE061A70EEE10A61EE051A6E
:1041200062EE062A75EE200A72EEE11A63EE002AAC
:1041300026EE055A22EE011A32EE077A72EEA11A25
:1041400031EE051A24EE000A74EE211A31EE400A0F
:1041500020EEA01A27EE072A33EE000A32EE011AEB
:1041600021EEA12A32EE011A20EE002A32EE011AC7
:1041700011EE102AA1EB6201BEEE003A02EE101A17
:1041800021EE031A21EE021A21EE021AB7EE083AC6
:1041900031EE031A21EE021A27EE012A20EE813AAF
:1041A00021EE814A20EE010A80ED002A80ED013ADD
:1041B00080ED024A80ED030ABDEC108B704700BF12
:1041C0006F12833A6F12033AF5EE401A45F6DF118B
:1041D000F1EE10FAC5F6377110D1B5EE402AF1EEC6
:1041E00010FA0BD1F5EE402AF1EE10FA06D190ED5F
:1041F000014A90ED023A90ED032AA9E022EE023A3C
:1042000021EEA14A34EE033A22EEA24A34EE033AFA
:1042100013EE102AA1EB6202BEEE005A04EE102A41
:1042200023EE053A23EE043A23EE043AB7EE086A89
:1042300033EE063A23EE043A23EE217A63EE021AB5
:1042400023EE226AD0ED002A90ED014A90ED023A69
:1042500090ED032A63EE223A64EE024A62EE845A3B
:1042600062EEA22A74EEE33A62EE034A32EE855A17
:1042700062EE022A75EEA44A72EE852A40F25812C6
:1042800024EE865A61EEA25A62EE872A26EE236A4F
:10429000C2F2000236EE626AD2ED002A63EEA11A83
:1042A00027EE247AF5EE402A35EEC55AF1EE10FAE3
:1042B00037EE617A32DDD2ED001ADFED5C2A65EE71
:1042C000211AD2ED013A61EEA21A71EEA31AC2EDE3
:1042D000011AD2ED001AD2ED023A66EE211A61EE11
:1042E000A21A71EEA31AC2ED021AD2ED001AD2ED93
:1042F000033A67EE211A61EEA21A71EEA31AC2ED1B
:10430000031AD2ED011A31EE800AD2ED021AD2ED73
:10431000032A71EEA00A32EE811A03E000235360F3
:104320009360D36040F25802C2F20002D2ED001A4C
:1043300021EE855AD2ED001A35EE000A21EE865A9A
:1043400092ED006A75EE200A26EE075A35EE011A44
:104350009FED375A20EE050A20EE856A21EE051AF8
:1043600090ED005A26EE037A64EE400A30EEC77AEA
:1043700062EE010A37EE607A61EE030A65EE001A1A
:1043800071EEA00A62EE061A70EEE10A74EE200ADF
:1043900061EE041A65EE062A26EE044A25EE011A9D
:1043A00072EEE11A62EE002A31EE041A23EE000AE0
:1043B00035EE077A72EEA11A31EE400A73EE211A39
:1043C00032EE000A20EEA01A27EE072A32EE011A7A
:1043D00021EEA12A32EE011A20EE002A32EE011A55
:1043E00011EE102AA1EB6201BEEE003A02EE101AA5
:1043F00021EE031A21EE021A21EE021AB7EE083A54
:1044000031EE031A21EE021A27EE012A20EE813A3C
:1044100021EE814A20EE010A80ED002A80ED013A6A
:1044200080ED024A80ED030A704700BF6F12833AA5
:104430006F12033AFEE70000FEE7000000284FD0AD
:10444000017890ED0F1A90ED102A80ED070A30EEFA
:10445000C00A0029C0ED060A80ED0F0A80ED101A8F
:1044600080ED112A40D0012940F0888090ED015A5A
:1044700090ED026A30EE414A31EE011A90ED037A76
:1044800024EE054A20EE065A30EE410A32EE000ACA
:10449000D0E90C2180ED0C0A20EE070A34EE051A53
:1044A00090ED082A90ED043A80ED0B0A31EE000AF7
:1044B00032EE000AB4EE430AF1EE10FA80ED094A3A
:1044C00080ED0A5AC0E90D2180ED080AC2BF80EDD7
:1044D000083AB0EE430A7047B1EE431A43E000BF1A
:1044E0009FED280A704700BF90ED024A90ED0A6ADE
:1044F00090ED012A90ED053A24EE004A90ED035A22
:1045000034EE064A20EE022AD0E90C2130EE410AB0
:10451000B4EE434A80ED0C0A20EE050AF1EE10FAE3
:1045200080ED092A80ED0A4AC0E90D2180ED0B0AD1
:1045300006DCB1EE433AB4EE434AF1EE10FA03DA88
:10454000B0EE434A80ED0A3A32EE042A90ED041AA6
:1045500030EE020AB4EE410AF1EE10FA80ED080ADC
:1045600007DCB1EE411AB4EE410AF1EE10FAA8BF31
:104570007047B0EE410A80ED081A704790ED080AC6
:10458000704700BF00000000002818BF002A01D1BA
:10459000704700BF01701168416051688160916887
:1045A00080ED040AC160C0ED050A704700000000FC
:1045B000EFF30980BFF36F8F154B1A681EF0100FD1
:1045C00008BF20ED108A20E9F04F10602DE90900A6
:1045D0004FF0500080F31188BFF34F8FBFF36F8F00
:1045E00003F0DAF94FF0000080F31188BDE809000C
:1045F00019680868B0E8F04F1EF0100F08BFB0EC63
:10460000108A80F30988BFF36F8F704700BF00BF27
:10461000240800202DE9F04F81B040F2D833C2F2D7
:104620000003D3F800C08046DCF8003023F001031B
:10463000CCF8003040F23843C2F200031B681F6818
:1046400027F001071F60DCF80070FF073ED0DCF8A0
:10465000000020F00100CCF80000DCF80000C007EA
:1046600034D0DCF8000020F00100CCF80000DCF8C9
:104670000000C0071FBFDCF8000020F00100CCF8EC
:104680000000DCF8000018BF5FEAC0701ED0DCF844
:10469000000020F00100CCF80000DCF80000C007AA
:1046A000D5D113E0186820F0010018601868C00721
:1046B0001FBF186820F001001860186818BF5FEA73
:1046C000C0700FD0186820F0010018601868C0078B
:1046D0001FBF186820F001001860186818BF5FEA53
:1046E000C070DFD140F24C54C2F20004E06C46F2DC
:1046F0000C49C4F20209056846F2080E09F14C0B98
:1047000046F28847C4F2020E5D45C4F2020717D98B
:10471000BD4200F0AD8046F27040C4F20200854216
:1047200040F0D8802020C9F800001020C9F800000F
:104730000820C9F800000420C9F800000120A8E002
:104740000EF1B0008542009152D946F21046C4F2F3
:10475000020646F2284A46F24044B542C4F2020A32
:10476000C4F20204414600F08782554500F03681CC
:10477000A5420CBF4FF400184FF00068B542CEF8C8
:10478000008400F032815545884600F03781A5420B
:104790000CBF4FF480104FF08060B542CEF800049B
:1047A00000F03381554500F03781A5420CBF4FF42E
:1047B00000204FF00070B542CEF8000400F03381C5
:1047C000554500F03781A5420CBF4FF480204FF0D3
:1047D0008070B542CEF8000400F03381554500F0FA
:1047E0003381A5420CBF4FF480304FF480002CE1A0
:1047F0000EF1500646F2100146F2700AB542C4F2BC
:104800000201C4F2020A40F2D380554500F044820E
:1048100046F28800C4F20200854200F0458246F26A
:10482000A000C4F2020085420CBF4FF400104FF00C
:104830000060CEF80400B54200F257828D4200F0CD
:104840003B8246F22800C4F20200854200F03C821E
:1048500046F24000C4F2020085420CBF4FF48010C3
:104860004FF08060CEF80000B54240F21C8355E264
:104870004FF40060C9F800004FF48060C9F80000F0
:104880004FF40070C9F800004FF48070C9F80000C0
:104890004020C9F80000A06C06685E4540F2E18047
:1048A000BE4245D046F27040C4F20200864255D165
:1048B0002020C9F800001020C9F800000820C9F81D
:1048C00000000420C9F800000120C9F8000000F031
:1048D00038BC00BF09F194004FF00066854208BF64
:1048E0004FF40016C9F800604FF0806608BF4FF41F
:1048F0008016C9F800604FF00076854208BF4FF47B
:104900000026C9F800604FF0807608BF4FF480267B
:10491000C9F800604FF48006854208BF4FF4803626
:10492000C9F80060A06C06685E4540F29A80B7E75F
:104930004FF40060C9F800004FF48060C9F800002F
:104940004FF40070C9F800004FF48070C9F80000FF
:104950004020C9F8000000F0F4BB00BF09F194004A
:104960004FF00067864208BF4FF40017C9F8007087
:104970004FF0806708BF4FF48017C9F800704FF000
:104980000077864208BF4FF40027C9F800704FF047
:10499000807708BF4FF48027C9F800704FF4800774
:1049A000864208BF4FF48037C9F80070C9E300BFE2
:1049B0008D4200F0918146F22800C4F20200854247
:1049C00000F08C8146F24000C4F2020085420CBF28
:1049D0004FF400104FF0006082E100BF4FF4006818
:1049E000B542CEF800847FF4CEAE10208846B542A2
:1049F000CEF800047FF4D6AE07E000BF4FF480602D
:104A0000B542CEF800047FF4CDAE0820B542CEF812
:104A100000047FF4D5AE06E04FF40070B542CEF846
:104A200000047FF4CDAE0420B542CEF800047FF43C
:104A3000D5AE06E04FF48070B542CEF800047FF4A6
:104A4000CDAE012001E000BF4020009940F24C545F
:104A5000C2F20004CEF80004A06C06685E453FF682
:104A60001FAF0EF1B000864272D946F21044C4F274
:104A70000204A64200F0088146F22840C4F2020077
:104A8000864200F0BF8046F24040C4F202008642F7
:104A90000CBF4FF400104FF00060A642CEF80004A7
:104AA00000F0B78046F22840C4F20200864200F0CF
:104AB000B78046F24040C4F2020086420CBF4FF479
:104AC00080104FF08060A642CEF8000400F0AF8066
:104AD00046F22840C4F20200864200F0AF8046F25F
:104AE0004040C4F2020086420CBF4FF400204FF059
:104AF0000070A642CEF8000400F0A78046F22840DD
:104B0000C4F20200864200F0A78046F24040C4F2A0
:104B1000020086420CBF4FF480204FF08070A64206
:104B2000CEF8000400F09F8046F22840C4F2020054
:104B3000864200F09D8046F24040C4F20200864268
:104B40000CBF4FF480304FF48000CEF80004F8E240
:104B50000EF15004A6423BD946F27000C4F20200A6
:104B6000864200F00F8146F28800C4F202008642BD
:104B700000F0108146F2A000C4F2020086420CBF91
:104B80004FF400104FF00060CEF80400A64200F28F
:104B9000228146F21000C4F20200864200F0028137
:104BA00046F22800C4F20200864200F0038146F279
:104BB0004000C4F2020086420CBF4FF480104FF058
:104BC0008060CEF80000A64240F2AD8120E100BF37
:104BD00046F21000C4F20200864200F0F38046F272
:104BE0002800C4F20200864200F0EE8046F2400047
:104BF000C4F2020086420CBF4FF400104FF0006078
:104C0000E4E000BF4FF40060A642CEF800047FF459
:104C100049AF1020A642CEF800047FF459AF06E059
:104C20004FF48060A642CEF800047FF451AF082014
:104C3000A642CEF800047FF461AF06E04FF40070A6
:104C4000A642CEF800047FF459AF0420A642CEF865
:104C500000047FF469AF06E04FF48070A642CEF8FE
:104C600000047FF461AF0120CEF8000469E200BFC8
:104C70004020CEF8000464E24FF02008B542CEF8A0
:104C800000847FF480ADB0E62020A642CEF8000478
:104C90007FF408AFBDE700BF2020CEF80400B54286
:104CA0007FF6CCAD21E000BF4FF40060CEF80400E9
:104CB000B5421AD8C2E500BF1020CEF80000B542B8
:104CC00040F2F1802AE000BF4FF48060CEF800008F
:104CD000B54240F2E88021E0202001E04FF400607E
:104CE000CEF80000B5427FF6A9AD554500F0CC8066
:104CF00046F28800C4F20200854200F0CD8046F200
:104D0000A000C4F2020085420CBF4FF480104FF0A7
:104D10008060CEF80400B54240F2C580554500F0F1
:104D2000D58046F28800C4F20200854200F0D480AB
:104D300046F2A000C4F2020085420CBF4FF40020EE
:104D40004FF00070CEF80400B54200F22A818D4287
:104D500000F0CA8046F22800C4F20200854200F04A
:104D6000CB8046F24000C4F2020085420CBF4FF4F3
:104D700080204FF08070CEF80000B54240F2828172
:104D800025E100BF2020CEF80400A6427FF601AF47
:104D900021E000BF4FF40060CEF80400A6421AD80C
:104DA000F7E600BF1020CEF80000A64240F2BB801C
:104DB0002EE000BF4FF48060CEF80000A64240F223
:104DC000B28025E0202001E04FF40060CEF8000022
:104DD000A6427FF6DEAE46F27000C4F202008642C2
:104DE00000F0928046F28800C4F20200864200F091
:104DF000938046F2A000C4F2020086420CBF4FF43A
:104E000080104FF08060CEF80400A64240F28B8004
:104E100046F27000C4F20200864200F09B8046F227
:104E20008800C4F20200864200F09A8046F2A00098
:104E3000C4F2020086420CBF4FF400204FF0007015
:104E4000CEF80400A64200F2E08046F21000C4F260
:104E50000200864200F08C8046F22800C4F2020074
:104E6000864200F08D8046F24000C4F20200864285
:104E70000CBF4FF480204FF08070CEF80000A642A7
:104E800040F22E81DBE000BF1020CEF80400B542D6
:104E90003FF644AF07E000BF4FF48060CEF8040057
:104EA000B5423FF63BAF8D4272D046F22800C4F2C5
:104EB000020085426ED046F24000C4F202008542F4
:104EC0000CBF4FF400204FF0007065E00820CEF8D2
:104ED0000400B54265D83AE74FF40070CEF80400FC
:104EE000B5427FF634AF5CE00420CEF80000B54256
:104EF00040F2C8806BE000BF4FF48070CEF8000035
:104F0000B54240F2BF8062E01020CEF80400A64215
:104F10003FF67EAF07E000BF4FF48060CEF804009C
:104F2000A6423FF675AF46F21000C4F20200864278
:104F300062D046F22800C4F2020086425ED046F2F9
:104F40004000C4F2020086420CBF4FF400204FF034
:104F5000007055E00820CEF80400A64255D874E74A
:104F60004FF40070CEF80400A6427FF66EAF4CE01E
:104F70000420CEF80000A64240F2B2805FE000BFFD
:104F80004FF48070CEF80000A64240F2A98056E0AF
:104F9000082001E04FF40070CEF80000B5427FF623
:104FA000D6AE554562D046F28800C4F20200854272
:104FB00062D046F2A000C4F2020085420CBF4FF45A
:104FC00080204FF08070CEF80400B5425AD9554584
:104FD0006CD046F28800C4F202000099854269D084
:104FE00046F2A000C4F2020085420CBF4FF48030AC
:104FF0004FF480005FE000BF082001E04FF4007034
:10500000CEF80000A6427FF620AF46F27000C4F250
:105010000200864258D046F28800C4F2020086425E
:1050200058D046F2A000C4F2020086420CBF4FF4F2
:1050300080204FF08070CEF80400A64250D946F28E
:105040007000C4F20200864262D046F28800C4F2C8
:10505000020086425ED046F2A000C4F20200864200
:105060000CBF4FF480304FF4800054E00420CEF8A1
:105070000400B542ABD805E04FF48070CEF80400D0
:10508000B542A4D88D4249D046F22800C4F20200AD
:105090000099854246D046F24000C4F202008542A3
:1050A0000CBF4FF480304FF480003CE001200099A9
:1050B00001E000BF4020CEF80400A06C06685E4509
:1050C0003FF6EEABCDE400BF0420CEF80400A642CC
:1050D000B5D805E04FF48070CEF80400A642AED8F3
:1050E00046F21000C4F20200864225D046F22800A3
:1050F000C4F20200864221D046F24000C4F202000F
:1051000086420CBF4FF480304FF4800017E000BFA0
:10511000012000E04020CEF8040012E000990120B8
:1051200001E000BF4020CEF80000A06C06685E459C
:105130007FF697ACFFF7B4BB012000E04020CEF82B
:105140000000CCF80C10C3F80C80CCF804205A6096
:10515000DCF8000040F00100CCF80000186840F0D6
:105160000100186001B0BDE8F08F0000B0B540F25A
:105170004C53C2F200031B685D6845F002055D6098
:105180005D6845F001055D601D6845F040051D60E6
:1051900040F2D833C2F200031B681D6825F00105F8
:1051A0001D601D68ED0716D01D6825F001051D6006
:1051B0001D68ED071FBF1D6825F001051D601D68F6
:1051C00018BF5FEAC57506D01D6825F001051D6092
:1051D0001D68ED07E1D146F20C4CC4F2020C0CF153
:1051E0004C0446F2080EA342C4F2020E04D94FF456
:1051F0000015CCF8005013E00EF1B005AB4205D914
:105200004FF40015CEF800540AE000BF0EF150052F
:10521000AB424FF4001594BFCEF80050CEF80450C6
:1052200043F20C05C4F201059D60D9605A6019680B
:1052300041F01001196040F23841C2F200010968E2
:105240000B6823F001030B600B68DB0716D00B68BB
:1052500023F001030B600B68DB071FBF0B6823F013
:1052600001030B600B6818BF5FEAC37306D00B68BD
:1052700023F001030B600B68DB07E1D1A14207D9E2
:105280004FF00063CCF800308D60C8604A60B0BD5C
:105290000EF1B003994207D94FF00063CEF8003405
:1052A0008D60C8604A60B0BD0EF1500399424FF066
:1052B000006394BFCEF80030CEF804308D60C86033
:1052C0004A60B0BD2DE9F04182B01E4690460D46C1
:1052D0000446FCF795FE301A00EB0807FCF790FE39
:1052E00040F25401C2F200010968C1F3CB317943A5
:1052F000019121688A682A40AA4227D1064618F1FE
:1053000001001FD0FCF77CFE801BB84222D201981E
:1053100001990028A1F1010101912168896808BF64
:10532000074601EA0500A842ECD00FE08868284053
:10533000A8420BD188682840A84207D18868284035
:10534000A84203D188682840A842EFD0002002B0CC
:10535000BDE8F081D4E900014268B1F5827F22F016
:10536000E00242600AD1A168B1F5004F02D0B1F568
:10537000806F03D1016821F040010160A16AB1F59D
:10538000005F07D1016821F400510160016841F418
:1053900000510160012084F85100002084F8500081
:1053A000032002B0BDE8F081000000000000000012
:1053B000074B19680868B0E8F04F80F30988BFF31D
:1053C0006F8F4FF0000080F31188704700BF00BF5F
:1053D0002408002040F24425C2F2000540F20004F7
:1053E0009FED5D8A9FED5D9A05F16408C2F20004AD
:1053F000404600212246B0EE480AF0EE490AFFF787
:10540000C3F805F11C09484600212246B0EE480ABF
:10541000F0EE490AFFF7B8F805F1AC0A5046002152
:105420002246B0EE480AF0EE490AFFF7ADF805F162
:10543000F407384600212246B0EE480AF0EE490A49
:10544000FFF7A2F840F26816C2F20006DFED440A48
:1054500006F1340004F10C02B7EE000A0021FFF758
:1054600093F806F11C044EE0B5F90200D5ED030AED
:1054700000EE100AB8EEC00A4846FEF7DFFFB5F9A5
:105480000410BDEEC00A10EE100A00EE101AD5EDA1
:10549000040AA5F83C01B8EEC00A4046FEF7CEFF6C
:1054A000B5F90610BDEEC00A10EE100A00EE101A93
:1054B000D5ED050AA5F83E01B8EEC00A5046FEF744
:1054C000BDFFB5F90810BDEEC00A10EE100A00EEDF
:1054D000101AD5ED060AA5F84001B8EEC00A384604
:1054E000FEF7ACFFBDEEC00AB5F93C01B5F93E11BF
:1054F000B5F9402110EE103AA5F84231FBF704FA55
:10550000012001F059FA01F065F901462046162202
:10551000FAF738FF3088B0F5967F01D900200DE00A
:1055200096F826000138B0FA80F04FEA5010287043
:1055300005D196F82700022818BF03202870FBF732
:1055400013FAFBF7BDFB287800288DD1002000213D
:1055500000220023D2E700BF000080460080BB4548
:1055600000000000012001F027FAFBE7072001F00E
:1055700023FAFBF79DF830B1642001F01DFAFBF728
:1055800097F80028F8D140F2E415C2F2000505F1C1
:10559000480005F1380105F14402FBF7A1F840F29B
:1055A000C0604AF250129FED4E0ADFED4E0AC2F281
:1055B0000000C0F600020021FEF7E6FF40F24C506A
:1055C000C2F200001021C161FDF72CFA002818BFBB
:1055D000FBF742FE40F21806C2F2000606F1080090
:1055E00005F10A010822FFF7C1FD9FED3F8A012066
:1055F00006F11C04BFEE009AE87000BF05F14800F8
:1056000095ED0E3A95ED104A90EC030A96ED005A8E
:1056100095ED0F2AB1EE400A35EE411AF1EE431A2C
:10562000F1EE442A2046B0EE483AF0EE483AB0EEA9
:10563000484AFEF7EBFB96ED071A96ED082A96ED21
:10564000090A96ED0A3A22EE000A21EE033A22EE0A
:10565000022A21EE011A31EE021A33EE000A31EE6F
:10566000011A30EE000A71EE090A03F003F985ED24
:10567000070A96ED070A96ED081A96ED092A96EDA7
:105680000A3A22EE000A21EE031A30EE410A30EE09
:10569000000A03F059F885ED080A96ED071A96ED11
:1056A000090A96ED0A2A96ED083A20EE020A21EE42
:1056B000033A22EE022A21EE011A31EE021A33EEEB
:1056C000000A31EE011A30EE000A71EE090A03F009
:1056D000D1F8012085ED090A01F06EF98EE700BFCF
:1056E00000A08C45008089450000000080B54EF286
:1056F0001000CEF20000006802F0C2FD012808BFD1
:1057000080BDBDE8804002F02FBA0000B0B592B075
:10571000002443F64000CDE90A44CDE9084405944D
:10572000CDE90344CDE901440094C4F202000168CC
:10573000022541F080510160006800F08050009027
:10574000009847F200000094C4F20000016841F4A0
:1057500080410160006800F48040009000980120C2
:1057600006904FF4803007904FF480000D90062093
:105770000E90A820CDE90F050420119006A80C95E5
:10578000FCF778FF20B1EFF3108072B6FEE700BFA0
:105790000F20CDE901054FF4A05004904FF4805044
:1057A000059001A805210394FCF734FE20B1EFF326
:1057B000108072B6FEE700BF12B0B0BD4EF6885042
:1057C000CEF20000016841F47001016070470000F2
:1057D00080B540F2EC50C2F20000FDF78FFD40F2C0
:1057E0006810C2F200000188CA087C2A9CBF0131FF
:1057F000018080BD40F23460C2F20000FDF77EBD42
:1058000010B540F6FF3E0368C4F2000E40F2004CB3
:105810007045C4F2010C27DCB0F1804F31D040F26A
:105820000042C4F2000290422BD040F60002C4F2C3
:105830000002904225D041F6FF72C4F2000290426D
:1058400029DC70453CDCB0F1804F5FD040F2004273
:10585000C4F20002904259D040F60002C4F20002A5
:10586000904253D056E000BF40F60042C4F200021E
:10587000904206D0604504D00022C4F2010290425A
:10588000D9D14A6823F07003134341F6FF72C4F282
:1058900000029042D5DD43F6FF72C4F2010290424D
:1058A00022DC42F20002C4F2000290422ED000221A
:1058B000C4F20102904229D0604527D02AE000BFFF
:1058C00040F60042C4F2000290421FD041F60002AE
:1058D000C4F20002904219D041F60042C4F2000224
:1058E000904213D016E000BF44F20002C4F201025D
:1058F00090420BD044F60002C4F20102904205D05F
:1059000044F20042C4F20102904203D1CA6823F477
:105910004073134323F080024B69D1F800E08C6898
:105920001A430260C46240F48062C0F828E0624515
:1059300004BF096901630121416110BD10B504462E
:105940000068D4E902C22369016921F4405111437E
:105950000161626943EA0C01E3691143C2681943BA
:1059600049F20C639A431143C1604169A26921F471
:10597000407141F20043114340F48062C4F20103DC
:105980009A42416102D1FCF72BFE01E0FCF714FEC4
:10599000E16963681922B1F5004FA0FB020123D130
:1059A0005A00DB0FFAF776FC48F21F51C5F2EB11F3
:1059B000A0FB01235A094FF69C73C0F6FF7303F155
:1059C000805302FB0300322303EBC000A0FB010164
:1059D0004FF4F87000EA111000EB0210C1F342110D
:1059E00008442168886010BD9A009B0FFAF752FCAA
:1059F00048F21F51C5F2EB11A0FB01235A094FF6E3
:105A00009C73C0F6FF7302FB0300322303EB00100C
:105A1000A0FB0101F02000EA511000EB0210C1F3DD
:105A2000431108442168886010BD00002DE9F0434F
:105A300082B040F27C60C2F2000000680168890612
:105A40005CD444F60001C4F200010968C90640F1C3
:105A5000C8800021009101682423009140680090D3
:105A6000009840F29840C2F20000006801680268A5
:105A7000090322F0010202604268436091B247D4F8
:105A80000268122942F400220260026842F0010218
:105A9000026040F0A68040F2D400C2F20000C17F54
:105AA00090F822304FEA810890F82110B0F81AC01F
:105AB000C1F3011404748C09447490F82340477FA7
:105AC0006442C3EB0423838290F8253090F824408D
:105AD0005B42C4EB0323C48C4382038D90F8209077
