:020000040800F2
:10000000C8960024B9030008817A0008217300080B
:10001000197A0008A10600083995000800000000C0
:10002000000000000000000000000000417E000809
:10003000690B000800000000917A00081180000898
:10004000D3030008D3030008D3030008D303000838
:10005000D3030008D3030008D3030008D303000828
:10006000D3030008D3030008D3030008A90600083F
:10007000B9060008C9060008D9060008E906000804
:10008000F906000809070008D3030008990B0008C7
:10009000B90B0008A90B0008C90B0008D30300081E
:1000A000D3030008C1810008D3030008D30300086C
:1000B000D3030008D3030008D3030008D3030008C8
:1000C000D3030008D3030008D3030008D3030008B8
:1000D000497D0008A9910008B991000879930008AA
:1000E000710B0008D303000800000000D3030008D0
:1000F000D3030008D3030008D3030008190700083E
:10010000D3030008D3030008D3030008D303000877
:10011000D303000849830008D3030008D303000871
:1001200029070008D3030008D3030008D3030008FD
:10013000D3030008D3030008D3030008D303000847
:1001400000000000000000000000000000000000AF
:10015000D3030008D3030008D3030008D303000827
:10016000D3030008D3030008D3030008D303000817
:10017000D3030008D3030008D303000800000000E5
:10018000D3030008D3030008D3030008D3030008F7
:10019000D3030008D3030008D3030008D3030008E7
:1001A000D3030008D3030008D303000800000000B5
:1001B000D3030008D3030008D3030008D3030008C7
:1001C000D3030008D3030008000000000000000073
:1001D0000000000000000000D30300080000000041
:1001E000000000000000000000000000000000000F
:1001F0000000000000000000D3030008D303000843
:10020000D3030008D303000800000000D303000854
:10021000D3030008D3030008D3030008D303000866
:10022000D303000800000000D30300080000000012
:10023000D3030008D303000800000000D303000824
:10024000D3030008D3030008D3030008D303000836
:10025000D3030008D3030008D3030008D303000826
:10026000D3030008D3030008D3030008D303000816
:10027000D3030008D3030008D303000800000000E4
:10028000D3030008D3030008D3030008D3030008F6
:1002900000000000D3030008D303000800000000A2
:1002A00000000000D3030008D3030008D3030008B4
:1002B000D3030008D3030008D3030008D3030008C6
:1002C000D3030008D3030008D303000800F002F8AA
:1002D00000F062F814A696E8000CB244B344DA4584
:1002E00001D100F059F8BAE80F000FA696E83000E7
:1002F000A5EB040504EB0607AAEB0704A7F1010729
:100300004FEA15154FEA3414A4F10104AC4201D3AD
:1003100000F042F813F0010F18BFFB1A43F001037D
:1003200000F001F8DBE71847D8AE0000F8AE000097
:100330000A4410F8014B14F00F0508BF10F8015BD8
:10034000240908BF10F8014B6D1E05D010F8013BC1
:100350006D1E01F8013BF9D1641E03D0641E01F843
:10036000015BFBD19142E4D370470000704700006D
:100370000023002400250026103A28BF78C1FBD8AE
:10038000520728BF30C148BF0B6070471FB50AF045
:10039000C8FE1FBD10B510BD00F047F91146FFF7AC
:1003A000F5FF09F01DFA00F065F903B4FFF7F2FF5D
:1003B00003BC00F06DF90000094880470948004778
:1003C000FEE7FEE7FEE7FEE7FEE7FEE7FEE7FEE705
:1003D000FEE7FEE704480549054A064B7047000062
:1003E00011810008CD020008C88C0024C8960024A2
:1003F000C88E0024C88E002453EA020C00F06980E5
:100400002DE9F04B4FF00006002B1FBFB3FA83F528
:1004100003FA05F424FA05F65E4012BF1643B2FA59
:1004200082F502FA05F4C5F120051EBF22FA05FC8B
:1004300044EA0C04203556EA044C4FEA144418BF31
:10044000641C4FF000084FF00009904271EB030C60
:1004500039D3002919BFB1FA81F701FA07F6B0FACA
:1004600080F700FA07F6C7F120071EBF20FA07FC45
:1004700046EA0C062037B6FBF4FCA7EB0507103F55
:1004800007F01F0BCBF120062CFA06F60CFA0BFB3B
:1004900044BFB3460026202FA4BF5E464FF0000B9A
:1004A0005BEA060C08BF4FF0010B19EB0B0948EB98
:1004B0000608ABFB027C06FB02CC0BFB03CCC01B8B
:1004C00071EB0C01C1E70B46024641464846BDE8C8
:1004D000F08B13B5084318BF4FF0FF300146AFF360
:1004E0000080BDE81C407047032A40F2308010F0C5
:1004F000030C00F0158011F8013BBCF1020F6244BF
:1005000098BF11F801CB00F8013B38BF11F8013B4F
:10051000A2F1040298BF00F801CB38BF00F8013BFC
:1005200011F0030300F04F80083AC0F0088051F842
:10053000043B083A51F804CBA0E80810F5E7121D77
:100540005CBF51F8043B40F8043BAFF30080D20796
:1005500024BF11F8013B11F801CB48BF11F8012B62
:1005600024BF00F8013B00F801CB48BF00F8012B85
:1005700070474FF0000200B5134694469646203966
:1005800022BFA0E80C50A0E80C50B1F12001BFF44C
:10059000F7AF090728BFA0E80C5048BF0CC05DF8B2
:1005A00004EB890028BF40F8042B08BF704748BF00
:1005B00020F8022B11F0804F18BF00F8012B704774
:1005C00070477047704710B5203AC0F00B80B1E813
:1005D0001850A0E81850B1E81850A0E81850203A78
:1005E000BFF4F5AF5FEA027C24BFB1E81850A0E881
:1005F000185044BF18C918C0BDE810405FEA827C9B
:1006000024BF51F8043B40F8043B08BF7047D207B1
:1006100028BF31F8023B48BF11F8012B28BF20F852
:10062000023B48BF00F8012B7047754600F02CF8DC
:10063000AE4605006946534620F00700854618B0CF
:1006400020B5FFF7C7FEBDE820404FF000064FF091
:1006500000074FF000084FF0000BAC46ACE8C009B3
:10066000ACE8C009ACE8C009ACE8C00921F007015A
:100670008D46704710B50446AFF300802046BDE8B4
:100680001040FFF792BE0000004870473001002480
:1006900001491820ABBEFEE72600020070470000AB
:1006A000FEE700000000000040F27450C2F200407B
:1006B00000F0F6BE0000000040F2EC50C2F2004034
:1006C00000F0EEBE0000000040F2CC70C2F200402C
:1006D00000F0E6BE0000000040F64400C2F2004018
:1006E00000F0DEBE0000000040F6BC00C2F2004098
:1006F00000F0D6BE0000000040F63410C2F2004008
:1007000000F0CEBE0000000040F26460C2F2004083
:1007100000F0C6BE0000000040F25470C2F200407B
:1007200000F0BEBE0000000040F2DC60C2F20040FB
:1007300000F0B6BE0000000040F20F42D0F800C04A
:10074000C4F20202944511DC6F22C4F20202944505
:1007500022DC3F22C4F20202944539DC1022C4F2AA
:10076000020294455AD0282254E000BF40F26F4262
:10077000C4F2020294451BDC40F23F42C4F2020282
:1007800094452DDC40F21042C4F20202944545D05B
:1007900040F228423EE000BF9F22C4F2020294458C
:1007A00028DC7022C4F20202944537D0882231E05E
:1007B00040F29F42C4F20202944523DC40F27042B0
:1007C000C4F20202944529D040F2884222E000BFE0
:1007D0004022C4F20202944520D058221AE000BF01
:1007E00040F24042C4F20202944517D040F258420F
:1007F00010E000BFA022C4F2020294450ED0B8223D
:1008000008E000BF40F2B842C4F20202944505D0AD
:1008100040F2A042C4F20202944517D10CF0F80253
:100820004AF6AB23103ACAF6AA23A2FB03310AA365
:100830005F2AC1F302115B5C40F2FF312CEA010137
:10084000C36588BF04318165084670472CF0FF01FD
:1008500081650846704700BF000610160006101696
:1008600070B540F26F44D0F800C0C4F20204D0F872
:1008700058E0A4451ADC9F25C4F20205AC4533DCE0
:100880005725C4F20205AC455ADC1025C4F2020516
:10089000AC4500F098802825C4F20205AC4500F074
:1008A00092804025C4F202058AE000BF45F22F4540
:1008B000C5F60205AC452DDC40F2B745C4F2020591
:1008C000AC454BDC40F27045C4F20205AC457AD031
:1008D00040F28845C4F20205AC4574D040F2A04510
:1008E000C4F202056CE000BF40F22745C4F20205E5
:1008F000AC4543DCA025C4F20205AC4563D0B82565
:10090000C4F20205AC455ED040F21045C4F20205C7
:1009100056E000BF45F26B45C5F60205AC453FDC2D
:1009200045F23045C5F60205AC454CD045F244458C
:10093000C5F60205AC4546D045F258453EE000BF3D
:100940005825C4F20205AC453DD07025C4F202051D
:10095000AC4538D08825C4F2020531E040F2B845F4
:10096000C4F20205AC452ED045F20845C5F6020595
:10097000AC4528D045F21C4520E000BF40F2284598
:10098000C4F20205AC451ED040F24045C4F2020557
:10099000AC4518D040F25845C4F2020510E000BF43
:1009A00045F26C45C5F60205AC450CD045F29445C0
:1009B000C5F60205AC4506D045F28045C5F60205F0
:1009C000AC4540F0D080456EC66E002E866E6E60DF
:1009D0001CBFD0E91C566E60A44515DC9F24C4F2F0
:1009E0000204A4452CDC5724C4F20204A44551DCC3
:1009F0001024C4F20204A4457AD02824C4F20204CC
:100A0000A44575D040246FE045F22F44C5F602049A
:100A1000A44529DC40F2B744C4F20204A44545DCF5
:100A200040F27044C4F20204A44561D040F288440C
:100A3000C4F20204A4455BD040F2A04454E000BFDD
:100A400040F22744C4F20204A4453FDCA024C4F2CF
:100A50000204A4454CD0B824C4F20204A44547D0F3
:100A600040F2104440E000BF45F26B44C5F602047A
:100A7000A44555DC45F23044C5F60204A44561D0D6
:100A800045F24444C5F60204A4455BD045F25844FF
:100A900054E000BF5824C4F20204A44528D07024B6
:100AA000C4F20204A44523D088241DE040F2B844D7
:100AB000C4F20204A4451BD045F20844C5F6020462
:100AC000A4453FD045F21C4438E000BF40F2284422
:100AD000C4F20204A4450BD040F24044C4F2020424
:100AE000A44505D040F25844C4F20204A4453AD1CA
:100AF0008468C06D00F01F003F2505FA00F0CEF8B5
:100B00000800DCF80000402C20F48020CCF8000025
:100B1000CCF8043023D1CCF80820CCF80C1070BDF0
:100B200045F26C44C5F60204A4450BD045F280445E
:100B3000C5F60204A44505D045F29444C5F6020466
:100B4000A44510D1C46D012504F01F04806805FA86
:100B500004F4CEF804404028CCF80430DBD0CCF8C4
:100B60000810CCF80C2070BD704700000000000099
:100B700080B54FF4806002F093FC4FF48050BDE8E4
:100B8000804002F08DBC0000EFF3108072B600BF11
:100B9000FEE700000000000040F6AC10C2F200408A
:100BA00001F096BF0000000040F6AC10C2F2004019
:100BB00001F08EBF0000000040F64C20C2F2004061
:100BC00001F086BF0000000040F64C20C2F2004059
:100BD00001F07EBF0000000080B588B00020022137
:100BE000CDE9000002910121CDE90310059040F606
:100BF000AC10C2F20040694601F022FE08B1FFF7D6
:100C0000C3FF40F64C206946C2F2004001F018FED6
:100C100008B1FFF7B9FF40F6AC10C2F2004002F095
:100C2000F7FB08B1FFF7B0FF40F6AC100121C2F2AC
:100C30000040002201F040FD08B1FFF7A5FF40F69B
:100C40004C20C2F2004002F0E3FB08B1FFF79CFF2A
:100C500040F64C200121C2F20040002201F02CFDA0
:100C600008B1FFF791FF08B080BD00000000000050
:100C700040F27822030AC2F200425070080A9070D3
:100C80000020D1704FF40021C2E90300C2E9051031
:100C9000C2E90700C2E9090040F6AC101146C2F2F1
:100CA000004013704FF4007341F8083F01F04CBD51
:100CB0002DE9F041044602F0DBFC1CB3054694F834
:100CC0003500022822D140F20F462768C4F20206FE
:100CD00040F26F48B7426FF00E00C4F202081DDC0C
:100CE0006F21C4F202018F422ADC3F21C4F20201CB
:100CF0008F4241DC1021C4F202018F4263D02821CF
:100D00005CE000BF0120BDE8F08100BF802060658D
:100D10000120002184F83410BDE8F08147451BDC38
:100D200040F23F41C4F202018F422DDC40F21041FB
:100D3000C4F202018F4246D040F228413EE000BF9B
:100D40009F21C4F202018F4228DC7021C4F202010B
:100D50008F4238D0882131E040F29F41C4F2020135
:100D60008F4223DC40F27041C4F202018F422AD04C
:100D700040F2884122E000BF4021C4F202018F42CC
:100D800021D058211AE000BF40F24041C4F20201D4
:100D90008F4218D040F2584110E000BFA021C4F2A9
:100DA00002018F420FD0B82108E000BF40F2B841E5
:100DB000C4F202018F4206D040F2A041C4F2020107
:100DC0008F42394607D13946386820F01E0041F875
:100DD000140B6FF080000A68474500EA02000860C3
:100DE0001ADC9F20C4F20200874233DC5720C4F291
:100DF000020087425ADC1020C4F20200874200F051
:100E000097802820C4F20200874200F091804020A1
:100E1000C4F202008AE000BF45F22F40C5F602008E
:100E200087422DDC40F2B740C4F2020087424BDC1F
:100E300040F27040C4F20200874279D040F288400C
:100E4000C4F20200874273D040F2A040C4F2020014
:100E50006CE000BF40F22740C4F20200874243DC4E
:100E6000A020C4F20200874262D0B820C4F202007F
:100E700087425DD040F21040C4F2020056E000BF4D
:100E800045F26B40C5F6020087423FDC45F2304038
:100E9000C5F6020087424BD045F24440C5F6020039
:100EA000874245D045F258403EE000BF5820C4F28A
:100EB000020087423CD07020C4F20200874237D043
:100EC0008820C4F2020031E040F2B840C4F20200CF
:100ED00087422DD045F20840C5F60200874227D050
:100EE00045F21C4020E000BF40F22840C4F202005E
:100EF00087421DD040F24040C4F20200874217D022
:100F000040F25840C4F2020010E000BF45F26C40CD
:100F1000C5F6020087420BD045F29440C5F60200A8
:100F2000874205D045F28040C5F60200874204D1D1
:100F3000206E016821F480710160386820F00100A2
:100F4000386000BF3868C00710D002F091FB401B2A
:100F50000628F7D320206065032084F8350001209F
:100F6000002184F83410BDE8F08100BF2068B04251
:100F700010DC6F21C4F2020188421DDC3F21C4F263
:100F80000201884234DC1021C4F20201884255D0AB
:100F900028214FE040451BDC40F23F41C4F20201F2
:100FA00088422DDC40F21041C4F20201884245D053
:100FB00040F228413EE000BF9F21C4F20201884276
:100FC00028DC7021C4F20201884237D0882131E048
:100FD00040F29F41C4F20201884223DC40F270419A
:100FE000C4F20201884229D040F2884122E000BFC9
:100FF0004021C4F20201884220D058211AE000BFEB
:1010000040F24041C4F20201884217D040F25841F8
:1010100010E000BFA021C4F2020188420ED0B82126
:1010200008E000BF40F2B841C4F20201884205D096
:1010300040F2A041C4F2020188425BD1D4E9161209
:1010400002F01F023F2303FA02F28A6040455BDC94
:101050009F21C4F20201884214DC5721C4F202012C
:10106000884227DC1021C4F20201884200F0A280ED
:101070002821C4F20201884200F09C804021C4F281
:10108000020195E040F22741C4F2020188421FDCD0
:10109000A021C4F20201884200F08C80B821C4F281
:1010A0000201884200F0868040F21041C4F2020141
:1010B0007EE000BF5821C4F2020188427AD070213C
:1010C000C4F20201884275D08821C4F202016FE0A7
:1010D00040F22841C4F2020188426BD040F2404104
:1010E000C4F20201884265D040F25841C4F20201C4
:1010F0005EE000BFD4E9161202F01F02012303FADA
:1011000002F24A604045A3DD45F22F41C5F60201D7
:10111000884217DC40F2B741C4F20201884227DC62
:1011200040F27041C4F20201884243D040F288414B
:10113000C4F2020188423DD040F2A041C4F2020153
:1011400036E000BF45F26B41C5F6020188421FDC64
:1011500045F23041C5F6020188422BD045F24441A8
:10116000C5F60201884225D045F258411EE000BF75
:1011700040F2B841C4F2020188421BD045F2084156
:10118000C5F60201884215D045F21C410EE000BFB1
:1011900045F26C41C5F6020188420BD045F29441FC
:1011A000C5F60201884205D045F28041C5F602012C
:1011B00088420BD1616EA26EE06E4A6030B1016868
:1011C00021F480710160D4E91C014160012084F8A0
:1011D00035000020002184F83410BDE8F0810000C3
:1011E000F0B190F83510022918D180B540F20F42C5
:1011F0000168C4F20202914214DC6F23C4F20203BC
:10120000994225DC3F23C4F2020399423CDC1023BF
:10121000C4F2020399425DD0282357E08021416542
:101220000120704740F26F43C4F2020399421BDC75
:1012300040F23F43C4F2020399422DDC40F21043D6
:10124000C4F20203994245D040F228433EE000BF79
:101250009F23C4F20203994228DC7023C4F20203E4
:10126000994237D0882331E040F29F43C4F2020311
:10127000994223DC40F27043C4F20203994229D020
:1012800040F2884322E000BF4023C4F202039942A7
:1012900020D058231AE000BF40F24043C4F20203BA
:1012A000994217D040F2584310E000BFA023C4F287
:1012B000020399420ED0B82308E000BF40F2B843C1
:1012C000C4F20203994205D040F2A043C4F20203E3
:1012D000994277D191424FF0040280F8352011DC19
:1012E0006F20C4F20200814222DC3F20C4F20200DF
:1012F000814239DC1020C4F20200814259D02820FA
:1013000054E000BF40F26F40C4F2020081421BDC97
:1013100040F23F40C4F2020081422DDC40F2104016
:10132000C4F20200814244D040F228403EE000BFB7
:101330009F20C4F20200814228DC7020C4F2020027
:10134000814236D0882031E040F29F40C4F2020052
:10135000814223DC40F27040C4F20200814228D076
:1013600040F2884022E000BF4020C4F202008142E7
:101370001FD058201AE000BF40F24040C4F20200E3
:10138000814216D040F2584010E000BFA020C4F2C5
:10139000020081420DD0B82008E000BF40F2B84002
:1013A000C4F20200814204D040F2A040C4F2020024
:1013B0008142086820F0010008600021BDE88040FB
:1013C000084670470A6822F00E020A6045F257424A
:1013D000C5F6020291420A6822F001020A600FDC9F
:1013E00045F22F42C5F60202914219DC45F208424D
:1013F000C5F60202914229D045F21C4222E000BF0C
:1014000045F27F42C5F60202914213DC45F2584292
:10141000C5F60202914219D045F26C4212E000BFBB
:1014200045F23042C5F6020291420FD045F24442E5
:1014300008E000BF45F29442C5F60202914205D091
:1014400045F28042C5F6020291421AD1D0E9181C39
:10145000D0E916E30A6822F480720A6003F01F01E3
:10146000012202FA01F1CEF80410816ECCF80410CA
:10147000C16E31B10A6822F480720A60D0E91C1290
:101480004A60012180F83510026D0021002A80F8A1
:10149000341093D0904790E7406D704700000000F3
:1014A0002DE9F04782B00021019140F22411044659
:1014B000C2F2004148F2B512C1F64E32A56D09687C
:1014C00040F26F490068C4F20209A1FB02184845C6
:1014D0002E68296816DC9F21C4F2020188422DDCA7
:1014E0005721C4F20201884252DC1021C4F20201E9
:1014F00088427CD02821C4F20201884277D0402162
:1015000070E000BF45F22F42C5F60202904229DC8E
:1015100040F2B742C4F20202904245DC40F2704110
:10152000C4F20201884262D040F28841C4F2020152
:1015300088425CD040F2A04154E000BF40F2274115
:10154000C4F2020188423FDCA021C4F202018842B9
:101550004DD0B821C4F20201884248D040F2104177
:1015600040E000BF45F26B42C5F60202904275DCD6
:1015700045F23042C5F60202904200F0828045F208
:101580004442C5F6020290427BD045F2584273E0D5
:101590005821C4F20201884229D07021C4F202010C
:1015A000884224D088211DE040F2B842C4F20202F1
:1015B00090421CD045F20842C5F60202904260D02B
:1015C00045F21C4258E000BF40F22841C4F202013B
:1015D00088420CD040F24041C4F20201884206D059
:1015E00040F25841C4F20201884240F05183E16D5B
:1015F000082201F01F0140F20F4A8A40C4F2020A99
:10160000324200F0DE8050454FF0040312DC6F27B9
:10161000C4F20207B8426DDC3F27C4F20207B842A9
:1016200000F39C801027C4F20207B84200F0BD808E
:101630002827B5E0484569DC40F23F47C4F202077D
:10164000B84200F3938040F21047C4F20207B84258
:1016500000F0AB8040F22847A2E000BF45F26C42A8
:10166000C5F6020290420CD045F28042C5F6020255
:10167000904206D045F29442C5F60202904240F0F4
:1016800007830268E36D03F01F0304279F400F42A6
:1016900018BF12F0040623D102279F400F4218BF43
:1016A00012F0020642D1D940090740F1F18212F04E
:1016B000080100F0ED82016821F00E0101600120B7
:1016C00000FA03F16960606584F83500E16C002977
:1016D0004FF0000084F8340040F0D582D8E200BF1B
:1016E00011046F6034D4910636D4016821F00401EE
:1016F000016031E09F27C4F20207B84240DC702746
:10170000C4F20207B84250D0882749E040F29F4710
:10171000C4F20207B8423BDC40F27047C4F2020751
:10172000B84242D040F288473AE000BF11046F60EF
:1017300000F1B282910600F1B382016821F00A0142
:101740000160012084F83500002084F83400A7E20D
:10175000D00301D4A16C95E2216C93E24027C4F23E
:101760000207B84221D058271AE000BF40F2404794
:10177000C4F20207B84218D040F2584710E000BF48
:10178000A027C4F20207B8420FD0B82708E000BF74
:1017900040F2A047C4F20207B84206D040F2B84770
:1017A000C4F20207B84218BF082307681F4208D0D6
:1017B000036823F004030360AA60626D42F0010233
:1017C000626501228A4032426FD0504510DC6F239F
:1017D000C4F2020398421DDC3F23C4F20203984284
:1017E00034DC1023C4F20203984256D028234FE081
:1017F00048451BDC40F23F43C4F2020398422DDC13
:1018000040F21043C4F20203984246D040F228430B
:101810003EE000BF9F23C4F20203984228DC7023FD
:10182000C4F20203984238D0882331E040F29F434B
:10183000C4F20203984223DC40F27043C4F2020374
:1018400098422AD040F2884322E000BF4023C4F2ED
:101850000203984221D058231AE000BF40F24043CF
:10186000C4F20203984218D040F2584310E000BF7F
:10187000A023C4F2020398420FD0B82308E000BFAF
:1018800040F2A043C4F20203984206D040F2B843AB
:10189000C4F20203984240F0058243691B0604D556
:1018A000AA60626D42F00202626504228A403242FE
:1018B0006FD0504510DC6F23C4F2020398421DDC48
:1018C0003F23C4F20203984234DC1023C4F2020323
:1018D000984256D028234FE048451BDC40F23F4356
:1018E000C4F2020398422DDC40F21043C4F202031A
:1018F000984246D040F228433EE000BF9F23C4F206
:101900000203984228DC7023C4F20203984238D0C4
:10191000882331E040F29F43C4F20203984223DC63
:1019200040F27043C4F2020398422AD040F2884346
:1019300022E000BF4023C4F20203984221D0582382
:101940001AE000BF40F24043C4F20203984218D0AC
:1019500040F2584310E000BFA023C4F202039842B3
:101960000FD0B82308E000BF40F2A043C4F2020346
:10197000984206D040F2B843C4F20203984240F0C5
:10198000998103689B0704D5AA60626D42F0040246
:101990006265102202FA01F1314200F08180504567
:1019A0004FF0080210DC6F23C4F2020398421DDCE2
:1019B0003F23C4F20203984234DC1023C4F2020332
:1019C000984256D028234FE048451BDC40F23F4365
:1019D000C4F2020398422DDC40F21043C4F2020329
:1019E000984246D040F228433EE000BF9F23C4F215
:1019F0000203984228DC7023C4F20203984238D0D4
:101A0000882331E040F29F43C4F20203984223DC72
:101A100040F27043C4F2020398422AD040F2884355
:101A200022E000BF4023C4F20203984221D0582391
:101A30001AE000BF40F24043C4F20203984218D0BB
:101A400040F2584310E000BFA023C4F202039842C2
:101A50000FD0B82308E000BF40F2A043C4F2020355
:101A6000984206D040F2B843C4F20203984218BF2D
:101A700004220368134213D0A96001684903016876
:101A800008D4C90508D4016821F008010160216C5F
:101A900021B905E008034FD4216C09B120468847DD
:101AA000E06D00F01F01202000FA01F2324200F048
:101AB000AD8020681023504510DC6F27C4F2020768
:101AC000B8421DDC3F27C4F20207B84238DC1027B9
:101AD000C4F20207B8425AD0282753E048451BDC1D
:101AE00040F23F47C4F20207B84231DC40F21047EF
:101AF000C4F20207B8424AD040F2284742E000BF91
:101B00009F27C4F20207B8422CDC7027C4F20207F8
:101B1000B8423CD0882735E040F29F47C4F2020724
:101B2000B84227DC40F27047C4F20207B8422ED018
:101B300040F2884726E000BFA16C0029AED1AFE794
:101B40004027C4F20207B84221D058271AE000BF4C
:101B500040F24047C4F20207B84218D040F258475A
:101B600010E000BFA027C4F20207B8420FD0B82788
:101B700008E000BF40F2A047C4F20207B84206D016
:101B800040F2B847C4F20207B84218BF0223076800
:101B90001F423BD0AA6094F83520042A02681DD168
:101BA00022F016020260426922F080024261226C39
:101BB0000AB9A26C1AB1026822F0080202603F2042
:101BC0008840A860012084F83500216D00294FF07D
:101BD000000084F8340056D15AE000BF5103016878
:101BE0000CD4C9050ED4016821F010010160012058
:101BF00084F83500002084F8340003E0080301D4A1
:101C0000616C00E0E16B09B120468847606D0028F7
:101C10003ED0606DC00734D0042084F835002068C1
:101C20004FEA9821026822F001020260019A013213
:101C300001928A421AD80268D20717D0019A01325B
:101C400001928A4212D80268D2070FD0019A01325B
:101C500001928A420AD80268D20707D0019A01325B
:101C600001928A4202D80268D207DFD10068C00719
:101C70004FF0030008BF012084F83500002084F8ED
:101C80003400E16C21B1204602B0BDE8F0470847BE
:101C900002B0BDE8F08700BFD00301D4616CF1E76A
:101CA000E16BEFE7026804228A4032427FF401AE22
:101CB0006FE600BF02686CE62DE9F04381B0044690
:101CC00001F0D6FC002C00F0AF8040F26F480546D2
:101CD0002068C4F20208404516DC9F21C4F20201CC
:101CE00088422DDC5721C4F20201884254DC1021C5
:101CF000C4F20201884200F07E802821C4F2020171
:101D0000884278D0402171E045F22F41C5F60201AA
:101D1000884229DC40F2B741C4F20201884247DC24
:101D200040F27041C4F20201884264D040F288411E
:101D3000C4F2020188425ED040F2A04156E000BFEA
:101D400040F22741C4F20201884241DCA021C4F2E2
:101D5000020188424FD0B821C4F2020188424AD021
:101D600040F2104142E000BF45F26B41C5F602016E
:101D7000884200F3BB8045F23041C5F6020188423B
:101D800000F0C78045F24441C5F60201884200F0E8
:101D9000C08045F25841B7E05821C4F202018842A0
:101DA00029D07021C4F20201884224D088211DE08C
:101DB00040F2B841C4F2020188421CD045F2084109
:101DC000C5F60201884200F0A48045F21C419BE068
:101DD00040F22841C4F2020188420CD040F2404156
:101DE000C4F20201884206D040F25841C4F2020116
:101DF000884240F02381022184F83510002184F8C4
:101E00003410016821F00101016000BF2068016801
:101E1000C9070DD001F02CFC401B0628F6D320206A
:101E20006065032084F83500012001B0BDE8F0832F
:101E300048F23F0204F108060168CFF61062114033
:101E4000D4F818C06CCE11431943E3692943256ABD
:101E50000E43616A3343042943EA050343EA0C0352
:101E600003D1D4E90B652E433343666843F48012F3
:101E7000A6F13F07A6F12905042FA6F1470938BFAF
:101E80001346062DA6F14F0E38BF1346B9F1020FC7
:101E900026F0030738BF1346BEF1040F38BF1346C0
:101EA000742F08BF134604290360426922F0070219
:101EB00041EA020140F0DE80D4E90A53002B41EAF6
:101EC000050100F0D780BCF5005F00F0B980BCF1DF
:101ED000000F40F0C180022D00F0C180012D00F004
:101EE000B580002D00F0BB80C4E000BF45F26C411E
:101EF000C5F6020188420CD045F28041C5F60201C8
:101F0000884206D045F29441C5F60201884240F06D
:101F1000958004F1080E022184F83510002184F820
:101F200034100168A3699EE80450A2F18005E769B6
:101F3000B5FA85F566696D09402A4FEA853543EAA9
:101F400007026FF3101142EA060208BF102541EAAA
:101F5000DC0142EA0E02236A294341EAD20141EA46
:101F6000131140F80819C0B2CD2148433C2101EAC1
:101F70009020E0652046FEF7DFFBE16D012201F0D5
:101F80001F0102FA01F141602068404500F38180A1
:101F90009F21C4F20201884214DC5721C4F20201DD
:101FA000884227DC1021C4F20201884200F0C78079
:101FB0002821C4F20201884200F0C1804021C4F20D
:101FC0000201B9E040F22741C4F20201884221DC5B
:101FD000A021C4F20201884200F0B180B821C4F20D
:101FE0000201884200F0AB8040F21041C4F20201CD
:101FF000A2E000BF5821C4F20201884200F09F8095
:102000007021C4F20201884200F099808821C4F254
:10201000020191E040F22841C4F20201884200F03E
:102020008E8040F24041C4F20201884200F0878075
:1020300040F25841C4F202017EE000BF4020EFE6CA
:10204000032D17D8DFE805F00E0B0E02A3F1C072C6
:10205000B2FA82F2520904E0032D03D30AD1C3F38A
:1020600000623AB140206065012084F8350001B07B
:10207000BDE8F08341612046FEF75EFBE16D3F2243
:1020800001F01F0102FA01F18160206840457FF7ED
:102090007FAF45F22F41C5F60201884216DC40F2BF
:1020A000B741C4F20201884226DC40F27041C4F21A
:1020B0000201884243D040F28841C4F202018842C2
:1020C0003DD040F2A041C4F2020135E045F26B413F
:1020D000C5F6020188421FDC45F23041C5F6020117
:1020E00088422CD045F24441C5F60201884226D0F0
:1020F00045F258411EE000BF40F2B841C4F202016F
:1021000088421CD045F20841C5F60201884216D02B
:1021100045F21C410EE000BF45F26C41C5F60201DC
:1021200088420CD045F29441C5F60201884206D09F
:1021300045F28041C5F60201884240F0E18045F257
:10214000574C45F6FC01C5F6020CC5F60201604588
:102150000EDC45F22F42C5F60202904218DC45F231
:102160000842C5F60202904228D045F21C4221E006
:1021700045F27F42C5F60202904213DC45F2584216
:10218000C5F60202904219D045F26C4212E000BF3F
:1021900045F23042C5F6020290420FD045F2444269
:1021A00008E000BF45F29442C5F60202904205D015
:1021B00045F28042C5F60202904247D100F0FC028F
:1021C0004CF6CD43083ACCF6CC43A2FB0323A1F155
:1021D000FC05A1F17C061B0905EB830503F01F023A
:1021E000A3682566802B4FF0010303FA02F26666AE
:1021F000A26605D100206060286072601EE000BF0A
:102200006768FBB2013F072F2B60726016D85E1E15
:10221000082E19D2604501F1440237DC45F22F4700
:10222000C5F60207B84241DC45F20847C5F6020789
:10223000B84259D045F21C474AE000BF0020606711
:10224000C4E91B005CE000BFE06E54E000F0F8025F
:102250004AF6AB23103ACAF6AA23A2FB032740F2A0
:102260000F43C4F2020308253A09984203F1AA0673
:10227000134688BF05EB171340F60005B042C4F2C1
:10228000020505F1800628BF1346A5E745F27F4702
:10229000C5F60207B84213DC45F25847C5F60207F7
:1022A000B84221D045F26C4712E000BF45F23047FA
:1022B000C5F60207B84217D045F2444708E000BF10
:1022C00045F28047C5F60207B8420DD045F2944763
:1022D000C5F60207B84207D040F60000C4F202007B
:1022E00000F1FC0100F5A07201EB83000121E06622
:1022F000B1402267616700210160D4E91C0141609F
:1023000000206065012184F8351001B0BDE8F0833C
:1023100040B1B0B5054690F83400012804D1022040
:10232000B0BD00BF01207047012085F8340095F84A
:102330003500012828D1022085F835000020686585
:102340002868046824F0010404602846FEF788FA2F
:1023500040F20F422868C4F2020240F26F419042FC
:10236000C4F2020118DC6F23C4F20203984225DC98
:102370003F23C4F2020398423CDC1023C4F2020360
:1023800098425ED0282357E04FF400606865002033
:1023900085F834000120B0BD88421BDC40F23F4389
:1023A000C4F2020398422DDC40F21043C4F202034F
:1023B000984246D040F228433EE000BF9F23C4F23B
:1023C0000203984228DC7023C4F20203984238D0FA
:1023D000882331E040F29F43C4F20203984223DC99
:1023E00040F27043C4F2020398422AD040F288437C
:1023F00022E000BF4023C4F20203984221D05823B8
:102400001AE000BF40F24043C4F20203984218D0E1
:1024100040F2584310E000BFA023C4F202039842E8
:102420000FD0B82308E000BF40F2B843C4F2020363
:10243000984206D040F2A043C4F20203984240F012
:102440002F8103680B2464F3440303602B6C1BB1DE
:102450000823046823430360884219DC9F23C4F2E5
:102460000203984232DC5723C4F20203984259DC3B
:102470001023C4F20203984200F096802823C4F28D
:102480000203984200F090804023C4F2020389E0E6
:1024900045F22F43C5F6020398422DDC40F2B743C4
:1024A000C4F2020398424BDC40F27043C4F20203D0
:1024B000984279D040F28843C4F20203984273D024
:1024C00040F2A043C4F202036CE000BF40F2274395
:1024D000C4F20203984243DCA023C4F202039842F0
:1024E00062D0B823C4F2020398425DD040F2104398
:1024F000C4F2020356E000BF45F26B43C5F6020387
:1025000098423FDC45F23043C5F6020398424BD077
:1025100045F24443C5F60203984245D045F258437C
:102520003EE000BF5823C4F2020398423CD070231F
:10253000C4F20203984237D08823C4F2020331E088
:1025400040F2B843C4F2020398422DD045F208434A
:10255000C5F60203984227D045F21C4320E000BF95
:1025600040F22843C4F2020398421DD040F2404397
:10257000C4F20203984217D040F25843C4F2020357
:1025800010E000BF45F26C43C5F6020398420BD041
:1025900045F29443C5F60203984205D045F28043C4
:1025A000C5F60203984274D12B6E1C68E40303D570
:1025B0001C6844F480741C60EB6E1BB11D6845F40C
:1025C00080751D60904211DC6F21C4F202018842C7
:1025D0001EDC3F21C4F20201884235DC1021C4F226
:1025E0000201884255D0282150E000BF88421BDC00
:1025F00040F23F41C4F2020188422DDC40F210411A
:10260000C4F20201884244D040F228413EE000BFBB
:102610009F21C4F20201884228DC7021C4F2020129
:10262000884236D0882131E040F29F41C4F2020155
:10263000884223DC40F27041C4F20201884228D073
:1026400040F2884122E000BF4021C4F202018842EA
:102650001FD058211AE000BF40F24041C4F20201ED
:10266000884216D040F2584110E000BFA021C4F2C9
:10267000020188420DD0B82108E000BF40F2B84105
:10268000C4F20201884204D040F2A041C4F2020127
:102690008842016841F0010101600020B0BD00BF27
:1026A0000368052464F3430303602B6C002B3FF4A1
:1026B000D3AE0423CDE6000090F89830013B012B07
:1026C0000ED80068836D0B4212D0836D0B408B4295
:1026D00016D1C36D43F00203C3658B0514D418E013
:1026E00000F19C01012002220B681A430A60704726
:1026F000C36D43F00103C3658B0505D409E000BF3A
:102700000323C3658B0504D5D0F8E0301343C0F82C
:10271000E0304B0504D5D0F8E4301A43C0F8E4208B
:102720004FF6FF72436DC3F6CF720A401A434265FB
:102730008A0F4AF614010020C4F200010B681A4304
:102740000A6070470000000090F89830022B1BD1FF
:102750002DE9F0410668D6F8C03013F07C5F1BD03D
:10276000D6F8C4309B0221D4D6F8C4300C69C3F328
:10277000044CD1E90035002D8D6821D023432B4333
:1027800043F0804E20E000BFD0F89C1041F00801DB
:10279000C0F89C1001207047D0F89C1041F0200137
:1027A000C0F89C100120BDE8F08100BFD0F89C105B
:1027B00041F40071C0F89C100120BDE8F08100BF19
:1027C00044EA834343EA050E836E0D6AD1E9068429
:1027D0000CFB03F744EA0563D0F884404D6943EAF3
:1027E000080343EA050804EB8703CD6844F827E0B3
:1027F00048EA05075F60CF68B7F5803F0FD34BF21B
:10280000C415083303320024C0F60005171957F821
:10281000037C1F51CF890434EF5DBC42F6D3012104
:1028200001FA0CF1C6F8D010C0F894100020BDE8F1
:10283000F081000000000000704700000000000070
:1028400090F89820013A012A0CD880B50A68002A2D
:10285000CA680FD00B69072A43EA427E18D18B69F8
:102860001BE000BFD0F89C1041F00201C0F89C10A2
:1028700001207047072A19D10A69D1E906C3120459
:1028800042EA032242EA0C0242F0605218E000BF22
:10289000D1F808C04B6943EA8C73006F496800EBBC
:1028A000C10240F831E05360002080BD8B68D1E95F
:1028B00004CE9B0743EAC26242EA0C4242EA0E029D
:1028C0004968C06E40F82120002080BD0000000053
:1028D000704700000000000070470000000000008A
:1028E0002DE9F04390F89870022F1DD1402925D191
:1028F0000768D7F8A06016F4FE0F00F0AF80D7F895
:10290000A460760600F0BC80D7F8A46000F17404DF
:10291000F60148BFD7F8A060D7F8A470466CC7F39B
:102920000525AC4631E000BFD0F89C1041F008010D
:10293000C0F89C100120BDE8F08300BF41291BD1E5
:102940000768D7F8B06016F4FE0F00F08780D7F85C
:10295000B460760600F09480D7F8B46000F1780493
:10296000F60148BFD7F8B060D7F8B470C66CC7F3AB
:102970000525AC4609E000BF076D8F426ED900F116
:102980007C04456D4FF0000C0E467543246804EB43
:10299000850E54F8257017F08047576054F825705D
:1029A00027F0604608BFC7F38A46166054F82570C2
:1029B00007F00057976054F8254004F00044146174
:1029C000BEF80440D461DEF8044014F47024D460EE
:1029D000DEF8044004F480145461DEF8044004F48A
:1029E000001494619EF8074004F07F041462DEF83E
:1029F00004404FEAD474546228D04BF2C418002427
:102A0000C0F600080EEB0406651C377A1F55D789FF
:102A100018F80770BD4219D21F19757A7D70D589D3
:102A200018F80590A51C4D453FBFB57ABD70D589F6
:102A300018F805903CBFE51C4D4507D2F57A0434E3
:102A4000FD70D58918F80550AC42DBD340290FD171
:102A50000068C0F8A8C00020BDE8F083D0F89C1042
:102A600041F02001C0F89C100120BDE8F08300BFB8
:102A700041290FD10068C0F8B8C00020BDE8F0833C
:102A8000D0F89C1041F48071C0F89C100120BDE882
:102A9000F08300BF1F2909D80068012202FA01F162
:102AA000C0F898100020BDE8F08300BF006801F076
:102AB0001F01012202FA01F1C0F89C100020BDE8BC
:102AC000F0830000000000007047000000000000DC
:102AD0002DE9F04F89B004464AF61000C4F2000018
:102AE00001684AF61400C4F200000268206802EA95
:102AF0000108056DD0F85490036D0893436D07935A
:102B0000036D0293436D0193076D436D0593036D50
:102B10000493436D0393D0F854A0D0F850B05FEA0B
:102B2000CA5306970FD51BF480710CD04FF48071F7
:102B300001654AF610010020C4F200010860204639
:102B4000FFF7C2FF20685FEA4A5105EA09064FEA2B
:102B5000887717D54AF610091BF48061C4F2000982
:102B600014D0D0F8DC10D0F8E42011404FF480628B
:102B700002650020C9F80000204600F07DFC2068B6
:102B800004E000BF4AF61009C4F20009DDE907219C
:102B900001EA020506F4704657B10021016508F00C
:102BA0000300C9F8000020463946FFF745FE2068BB
:102BB000DDE90121DDF80C8001EA020705F00F05CF
:102BC00046B106650020C9F800002046314600F0F5
:102BD0005BFC206807F0F00645B105650020C9F8E8
:102BE00000002046294600F08FFB2068DDE90457ED
:102BF00046B106650020C9F800002046314600F0C5
:102C000003FC2068069E5FEA0A510CD51BF40061A4
:102C100009D04FF4006101650020C9F8000020468A
:102C200000F036FC20685FEA8A5111D51BF4007170
:102C30000ED0D0F8D810D0F8E02011404FF4007238
:102C400002650020C9F80000204600F019FC206849
:102C50005FEA0A310CD51BF4002109D04FF40021A2
:102C600001650020C9F80000204600F049FB2068FB
:102C70005FEACA310CD51BF4803109D04FF48031A2
:102C800001650020C9F80000204600F0F1FB206833
:102C90005FEA4A3105EA08050CD51BF4802109D00A
:102CA0004FF4802101650020C9F80000204600F0A3
:102CB000DBFB20685FEA8A3106EA070205F06071F3
:102CC0000ED51BF400330BD04FF400330365002303
:102CD000C9F80030D4F89C3043F08003C4F89C302D
:102CE00002F0715539B101650020C9F80000204695
:102CF000FFF7F2FD206845B105650021C9F8001015
:102D0000D4F89C102943C4F89C10A9F501618842AD
:102D10000AD0D4F89C00002868D0204609B0BDE84D
:102D2000F04FFFF7D5BD00BF606881688907F0D01C
:102D3000016A426A036A476A114003EA070202F025
:102D40003005D0F82080D0F82490D0F820B0D0F80A
:102D500024A0026A089211F00F01426A0792466AA3
:102D6000026A069203D00162204600F071FB08EA75
:102D700009072DB1606829460562204600F070FB06
:102D800070060BEA0A0607F4C0750ED5069810F017
:102D900040000AD060684023C16BC26B090C02F08E
:102DA0003F020362204600F057FBDDE9071000EA0E
:102DB000010706F4FC462DB16068294605622046ED
:102DC00000F042FB07F4F02036B161680E62D4F8DF
:102DD0009C103143C4F89C1000289AD061680862A6
:102DE000D4F89C100843C4F89C0092E709B0BDE8F1
:102DF000F08F000000000000F0B12DE9F04F83B02B
:102E00004AF200080446C4F200080068404533D086
:102E100094F89810B9B3816921F01001816100F034
:102E200027FC054620688169090707D500F020FCCA
:102E3000401B0B28F6D312E001207047816941F056
:102E40000101816100F014FC054600BF2068816922
:102E5000C90721D100F00CFC401B0B28F6D3012040
:102E6000D4F89C100843C4F89C00032084F8980010
:102E7000012003B0BDE8F08F08F58071616094F81F
:102E800098100029C7D1002084F89900204600F04E
:102E9000B3F92068BFE700BF816941F00201816199
:102EA000217C826922F04002012918BF40328261F0
:102EB000617C826922F48042012908BF02F58042C8
:102EC0008261A17C826922F48052012918BF02F537
:102ED00080528261816921F44073D4E902120B436C
:102EE0008361836923F0A4038361036923F01003E2
:102EF00003619AB1012A0DD0022A09D08369032AFD
:102F000043F080038361036943F01002026105D13D
:102F1000202200E0042283691A438261D4E9057209
:102F2000E369561E6FF0FF02256A02EB0323B1F539
:102F3000407F43EA4663A5F1010646EA030640F2F4
:102F40000003CFF6FF7303EB074746EA0701C161B1
:102F500010D1D4E90B65D4E90917013F02EB062231
:102F60006FF00F063A4306EB05173A4303EB0141B6
:102F70001143C160236E2BB1616ED0F8C0201143A4
:102F8000C0F8C010E16DCDE90113D9424BF23C11FC
:102F9000C0F6000109D0D0F8C820A36E22F00702C5
:102FA00051F823301A43C0F8C820D4F840A0BAF131
:102FB000000F09D0D0F8BC20636C22F0070251F852
:102FC00023301A43C0F8BC20D4F848C0BCF1000F2D
:102FD0000AD0D0F8BC20E36C22F0700251F8233004
:102FE00042EA0312C0F8BC20D4F850B0BBF1000F85
:102FF0000AD0D0F8BC20636D22F4E06251F82310AF
:1030000042EA0121C0F8BC10404504D161688A68D9
:1030100022F003028A600021C4F89410C4F89C10C6
:10302000012184F8981004F13409D0F884104FF687
:10303000FC729143656C99E80C02009541EA8201AB
:10304000C0F88410D0F8841021F47F0141EA0341D4
:10305000C0F884109918D0F888306FF38F0343EAD2
:103060008103C0F88830D0F8883023F4FE0343EAA7
:103070000943C0F8883001EB4903D0F8A0606FF332
:103080008F0646EA8306C0F8A060D0F8A06026F458
:10309000FE0646EA0A46C0F8A06005FB0A36D0F8EC
:1030A000B0306FF38F0343EA8603C0F8B030D0F836
:1030B000B03023F4FE0343EA0C43C0F8B030E36CB5
:1030C000D0F8AC506FF38F0503FB0C6645EA86051C
:1030D000C0F8AC50D4F8548008FB0B65D0F8F06011
:1030E0006FF38F0646EA8506C0F8F060D0F8F0E08E
:1030F000A66D2EF47C1747EA0647C0F8F070F7007B
:1031000007EB8507D0F8C0506FF38F052F43C0F849
:10311000C070D0F8C070009D27F47C1705FB0AF53D
:10312000DDF804A003FB0C5347EA0A47C0F8C0705F
:103130004AF20007D0F8C0E0C4F20007DDF808C08A
:1031400007F5406707EB820207EB81012EF07C5701
:1031500047EA0C67C0F8C07001EBC90008FB0B37E9
:103160002167A16E00EB8505606700EB8303E266D3
:10317000C4E91E530AFB01F300EB87000CFB01F1CD
:10318000C4F8800000EBC600C4F8840000EB8300A4
:10319000C4F8880000EB81004DF2FC31C4F200015C
:1031A000C4F89000884201D9202059E682421FD2FB
:1031B0001146002041F8040BD4F890309942BFF436
:1031C00058AE506002F10801D4F8903099423FBFE8
:1031D000906002F10C01D4F890309942BFF449AEEE
:1031E000D0601032D4F890108A42E1D341E600BF9B
:1031F000002003B0BDE8F08FB0B586B04AF20042BF
:103200000068C4F20002002190420591CDE903114B
:10321000CDE9011130D04AF20001C4F20001884228
:103220006CD140F2E02144F2E040C2F20041C5F628
:1032300002000A68002A02F101020A6008D1C1688E
:1032400041F48071C160C16801F4807100910099FE
:103250000168152441F0080101600068132500F0A1
:1032600008000090009840F20040C5F602000321DB
:1032700000F5006027E000BF40F2E02144F2E040AA
:10328000C2F20041C5F602000A68002A02F10102FA
:103290000A6008D1C16841F48071C160C16801F45D
:1032A0008071009100990168162441F002010160CB
:1032B0000068142500F002000090009840F20040E1
:1032C0006021C5F602000191022102910021CDE9A1
:1032D00003110921059101A900F0EEF80521002252
:1032E000284600F0DDFA284600F0C6FA0521002243
:1032F000204600F0D5FA204600F0BEFA06B0B0BD78
:103300007047000000000000C90708BF7047B0B553
:1033100040F29C144021C2F20044054604F1080228
:103320002346FFF7DDFA08B1FDF72EFC40F6AC109E
:10333000C2F2004085420FD040F64C20C2F200405D
:10334000854252D1A06840F2052188424DD140F219
:103350000C30C2F2004011E0A06840F20221884225
:1033600008D040F2012188423FD140F2E420C2F26D
:10337000004003E040F2F820C2F2004021880268D9
:10338000826062889FED1A1A00F1100C09BA9FED55
:103390001B3A0B0C038011BA00EE103A090C418065
:1033A00009B200F10C0202EE101AB8EE400AA18830
:1033B000851D0430B8EEC22A09BA80EE010A9FEDDD
:1033C0000D1A090C82EE032A9FED0B3AA0EE013A8A
:1033D0009FED0B1A0180A07932EE020A287082ED6F
:1033E000003A20EE010A8CED000ABDE8B0407047BB
:1033F00000F8FF450000B443000034C300007042F1
:10340000D00F49400000000070470000000000009D
:1034100090F8981001290DD1022180F898100168C8
:103420008A6922F001028A610021C0F89C100846D6
:10343000704700BFD0F89C1041F00401C0F89C1008
:1034400001207047000000007047000000000000ED
:1034500070470000000000007047000000000000FE
:1034600070470000000000007047000000000000EE
:1034700070470000000000007047000000000000DE
:1034800070470000000000007047000000000000CE
:1034900070470000000000007047000000000000BE
:1034A0008821C5F600010A68024208BF704708601B
:1034B000FFF7F2BF000000002DE9F04F82B00D6869
:1034C000002D00F0C78000F1264242F2004402F1D4
:1034D000FF728305C5F602040A27A04243EA92223E
:1034E00008BF0927082A40F2040C38BF1746C5F662
:1034F000000C4FF0000E0097002700260AE000BFE6
:1035000001360D6835FA06F207F102070EF1040ED6
:1035100000F0A080012202FA06FB15EA0B08EFD0AA
:10352000D1F804A003220AF0030502FA07F36C1E87
:103530006FEA0309012C0FD88368CC6803EA0903FA
:10354000BC4023438360CAF30014436823EA0B039F
:10355000B4402343436003E0032D01D1032520E061
:10356000C3688C6803EA0903BC40022D43EA0403E4
:10357000C36016D16FF003020EF01C0502EA560379
:103580000F22034402FA05FBD3F820A00C692AEAB3
:103590000B0AAC4044EA0A041C62D1F804A00AF009
:1035A0000305036805FA07F403EA09031AF4403F28
:1035B00043EA04030360A3D044F2F44240F2084A11
:1035C000C5F60202C5F6000A136843F00203136051
:1035D00013680F2203F00203019326F00303019CFA
:1035E0000EF00C0453F80A9002FA04F5009A29EA46
:1035F000050502FA04F44FF0B0492C4343F80A40A1
:10360000D9F800304C6843EA0805E20258BF23EAC3
:103610000805C9F80050A502DCF8002042EA0803BA
:1036200058BF22EA0803A503CCF80030DCF880205C
:1036300042EA080358BF22EA0803E403CCF88030CA
:10364000DCF87C2042EA080358BF22EA0803CCF8E1
:103650007C3055E702B0BDE8F08F000000000000AC
:10366000002A08BF090481617047000000000000C3
:1036700048F67020C2F20040006870470000000069
:1036800040F21C1048F67021C2F20040C2F2004124
:1036900000780A68104408607047000000000000CD
:1036A00080B5032000F02CF901F0E2F944F2184152
:1036B0004BF29C13C5F60201C0F600030A68C2F380
:1036C00003229A5C096801F00F0102F01F02595CA5
:1036D000D04040F22812C2F2004201F01F0120FA4D
:1036E00001F1116040F22411C2F2004108600F2084
:1036F00000F00AF800281CBF012080BD00F0A4F8EB
:10370000002080BD000000000F2843D8B0B58AB06B
:103710000446192000222146002500F0C1F8192096
:1037200000F0AAF840F22010C2F20040046044F217
:10373000F040C5F60200016841F001010160006837
:1037400001A900F001000290029802A801F0DCF843
:1037500001F05EF94DF683614000C4F21B31002296
:10376000A0FB010140F67430C2F200404FF0FF337D
:10377000C4F20102026003EB9141C0E9011540F27D
:10378000E731C0E9031502F017F828B101200AB0AB
:10379000B0BD00BF0120704740F67430C2F2004057
:1037A00002F03EF80AB0B0BDB0B502784EF69C5CAF
:1037B000CEF2000C43784CF8043CFAB14368CCF8E4
:1037C0000030037BC17A90F80AE0457B447A42EAF4
:1037D0000372837B42EA0161C27B41EACE41007AF7
:1037E00041EA854141EA434141EA024141EA04217B
:1037F00041EA4000CCF80400B0BD00BF0020CCF886
:103800000000CCF80400B0BD4EF62450CEF200000B
:10381000BFF35F8F016821F48031016000210167EF
:1038200070470000000000004EF6245140F00100F7
:10383000CEF200010867086840F480300860BFF3EA
:103840004F8FBFF36F8F704781B044F2F440002276
:10385000C5F60200016841F00201016000680F2115
:1038600000F0020000906FF00100009B01B000F03A
:1038700017B8000000000000002848BF704700F0A3
:103880001F01012202FA01F14EF20012C0F34A10A8
:10389000CEF2000242F82010704700000000000045
:1038A00070B54EF60C5C4FF0FF36CEF2000C00F116
:1038B000604505F56445DCF80030C3F3022E8EF058
:1038C0000703042B28BF0423BEF1030406FA03F305
:1038D00021EA030100F00F0338BF0024043B002855
:1038E000634406FA04F048BF03F10C05A14022EA44
:1038F000000008430001287070BD000000000000B7
:103900004EF60C514FF6FF03CEF200010A681A4042
:1039100060F30A2242F0806040F0FD70086070475A
:10392000B0B544F60C05C5F60205296849072968B3
:1039300006D401F00701081A18BF0120B0BD00BF6E
:1039400021F0070108432860FFF792FE044600BFFC
:1039500055F8080C800407D4FFF78AFE001BB0F569
:103960007A7FF5D90120B0BD0020B0BD0000000075
:1039700080B500F0F5FF44F220414BF29C12C5F6F1
:103980000201C0F600020968C1F30211515C01F0A6
:103990001F01C84080BD000080B544F2384EC5F616
:1039A000020E5EF8103C5EF8101C5EF80C2CC1F3A1
:1039B000053CDEF80410BCF1000F15D0C908D20692
:1039C00001EAE2716FF35F3100EE101A03F00301B8
:1039D0000229B8EE400A0DD081B95EF8381C89067C
:1039E00010D49FED361A1BE000218160C0E9001160
:1039F00080BD00BF9FED301A12E000BF9FED2D1A71
:103A00000EE000BF5EF8381C49F20002C0F2D0326E
:103A1000C1F3C10122FA01F101EE101AB8EE411A08
:103A2000DEF800109FED263A6FF35F2102EE101AC8
:103A3000DEF80010C1F34621B8EE422A00EE032A58
:103A400000EE10CAB7EE003AB8EE400A81EE000A66
:103A500032EE031A02EE101AB8EE422A20EE010AE4
:103A600032EE031A80EE011ABCEEC11A80ED001A84
:103A7000DEF80010C1F3064101EE101AB8EE411A4B
:103A800031EE031A80EE011ABCEEC11A80ED011A64
:103A9000DEF80010C1F3066101EE101AB8EE411A0B
:103AA00031EE031A80EE010ABCEEC00A10EE101AC5
:103AB000816080BD0024744A001BB74B0024744C05
:103AC000000000390000000080B544F2404EC5F609
:103AD000020E5EF8183C5EF8181C5EF8142CC1F358
:103AE000055CDEF80410BCF1000F15D0C908D20542
:103AF00001EAE2716FF35F3100EE101A03F0030187
:103B00000229B8EE400A0DD081B95EF8401C890642
:103B100010D49FED361A1BE000218160C0E900112E
:103B200080BD00BF9FED301A12E000BF9FED2D1A3F
:103B30000EE000BF5EF8401C49F20002C0F2D03235
:103B4000C1F3C10122FA01F101EE101AB8EE411AD7
:103B5000DEF800109FED263A6FF35F2102EE101A97
:103B6000DEF80010C1F34621B8EE422A00EE032A27
:103B700000EE10CAB7EE003AB8EE400A81EE000A35
:103B800032EE031A02EE101AB8EE422A20EE010AB3
:103B900032EE031A80EE011ABCEEC11A80ED001A53
:103BA000DEF80010C1F3064101EE101AB8EE411A1A
:103BB00031EE031A80EE011ABCEEC11A80ED011A33
:103BC000DEF80010C1F3066101EE101AB8EE411ADA
:103BD00031EE031A80EE010ABCEEC00A10EE101A94
:103BE000816080BD0024744A001BB74B0024744CD4
:103BF00000000039000000002DE9F0470446C078BD
:103C000044F22C480007C5F6020833D5606E4FEA2F
:103C1000305103290CD8DFE801F003111D2600BF45
:103C2000D8F8001041F40031C8F800101BE000BFC4
:103C300001266078C0070BD020E000BF04F1080027
:103C4000022103F059FF064660B16078C00715D124
:103C5000354646E004F12800022103F0E1FF064664
:103C60000028F2D1606ED8F8241021F440110843E6
:103C7000C8F8240000266078C007E9D0A06D0428A9
:103C80000ED83546DFE800F00412181E1E0000BFF3
:103C9000D8F80000354640F40030C8F8000011E0C4
:103CA00001250127607840071FD453E004F1080084
:103CB000002103F021FF04E004F12800002103F0BB
:103CC000AFFF05462F461DB1607840070DD441E097
:103CD000D8F82400A16D20F0070000250843C8F89B
:103CE000240037466078400734D5D4F8A4004FEA62
:103CF000705005280CD8DFE800F00311171D1D1DBA
:103D0000D8F8000040F40030C8F8000012E000BF0E
:103D1000012501266078000720D455E004F1080051
:103D2000002103F0E9FE04E004F12800002103F083
:103D300077FF05462E461DB1607800070ED443E09C
:103D4000D8F82C00D4F8A41020F460000025084313
:103D5000C8F82C003E466078000735D5D4F8A80096
:103D60004FEA306005280DD8DFE800F00412181E75
:103D70001E1E00BFD8F8000040F40030C8F8000054
:103D800012E000BF01250127E078800720D44EE033
:103D900004F10800002103F0AFFE04E004F1280064
:103DA000002103F03DFF05462F461DB1E078800756
:103DB0000ED43CE0D8F82C00D4F8A81020F0E06035
:103DC00000250843C8F82C003746E07880072ED538
:103DD000E06C4FEA301003280ED8DFE800F009034A
:103DE000130900BFD8F8000040F40030C8F8000004
:103DF0002E467DB912E000BF012501266078C0067D
:103E000019D44CE004F10800022103F075FE0546C8
:103E10002E461DB16078C0060DD440E0D8F82000D1
:103E2000E16C20F0300000250843C8F820003E4631
:103E30006078C00633D5E06D4FEA303004280DD8E5
:103E4000DFE800F00412181E1E0000BFD8F80000C2
:103E500040F40030C8F8000012E000BF012501273F
:103E6000607880061FD44EE004F10800002103F0C2
:103E700043FE04E004F12800002103F0D1FE0546D2
:103E80002F461DB1607880060DD43CE0D8F82400A0
:103E9000E16D20F4E04000250843C8F824003746CF
:103EA000607880062FD5206E4FEA3040052809D86B
:103EB000DFE800F0040E1404040400BF2E46ADB980
:103EC00018E000BF01250126607840061FD44FE0AE
:103ED00004F10800012103F00FFE04E004F12800C2
:103EE000012103F09DFE05462E461DB16078400677
:103EF0000DD43DE0D8F82400216E20F4E020002508
:103F00000843C8F824003E466078400630D5D4F80F
:103F1000AC004FEA3070052808D8DFE800F0030D48
:103F2000130303032F46ADB918E000BF0125012795
:103F30006078000620D442E004F10800012103F07B
:103F4000DBFD04E004F12800012103F069FE0546D1
:103F50002F461DB1607800060ED430E0D8F82C0052
:103F6000D4F8AC1020F0E04000250843C8F82C003D
:103F700037466078000622D5E06E58B1B0F1005F98
:103F80000CD0B0F1805F2FD1D8F8000040F40030A1
:103F9000C8F800002E469DB908E000BF04F10800F3
:103FA000012103F0A9FD05462E464DB9D8F824009D
:103FB000E16E20F0405000250843C8F824003E463A
:103FC000E078C00733D0A06C032813D8DFE800F0F6
:103FD00008021A08D8F8000040F40030C8F80000C1
:103FE000A946BDB91AE000BF01250126E078C00747
:103FF000E9D11CE001254FF00109A07840061AD54F
:104000001CE000BF04F10800022103F075FD054625
:10401000A9461DB1A07840060DD50FE0D8F82000C4
:10402000A16C20F0030000250843C8F82000B14629
:10403000A078400602D44F4618E000BFD8F8D40359
:1040400040F48070C8F8D403FFF712FB064600BFA7
:10405000D8F8D403C00507D4FFF70AFB801B6428F7
:10406000F6D90325032701E02F468DB12078C0073C
:1040700061D0A06F4FEAF00005283BD8DFE800F0E0
:1040800004404604040400BF002D2E4646D149E0FA
:10409000D8F84410D4F8B000414011F4407F11D05A
:1040A000D8F84410D8F8442042F48032C8F84420AC
:1040B000D8F8442021F4407122F48032C8F844201A
:1040C000C8F84410B0F5807F40F0CE82FFF7D0FAF8
:1040D000064641F2883A0325032700BFD8F844007A
:1040E000800700F1BF82FFF7C3FA801B5045F5D966
:1040F000BCE700BF01250126207880071FD44CE0D3
:1041000004F10800012103F0F7FC04E004F12800A9
:10411000012103F085FD05462E461DB1207880075C
:104120000DD43AE0D8F82800A16F20F0380000251F
:104130000843C8F828003E46207880072DD5606FD8
:10414000052809D8DFE800F0040E1404040400BFB9
:104150002F46ADB918E000BF0125012720784007A0
:104160001FD44DE004F10800012103F0C5FC04E078
:1041700004F12800012103F053FD05462F461DB12F
:10418000207840070DD43BE0D8F82800616F20F07C
:10419000070000250843C8F8280037462078400764
:1041A0002ED5D4F89000052808D8DFE800F0030DDC
:1041B000130303032E46ADB918E000BF0125012605
:1041C0002078800620D451E004F10800012103F09A
:1041D00093FC04E004F12800012103F021FD0546D1
:1041E0002E461DB1207880060ED43FE0D8F82C0072
:1041F000D4F8901020F0070000250843C8F82C00E0
:104200003E462078800631D5D4F88C004FEA3070D5
:10421000052809D8DFE800F0040E1404040400BFE8
:104220002F46ADB918E000BF0125012720784006D0
:1042300020D451E004F10800002103F05DFC04E00B
:1042400004F12800022103F0EBFC05462F461DB1C6
:10425000207840060ED43FE0D8F82800D4F88C101F
:1042600020F0E04000250843C8F8280037462078B1
:10427000400631D5D4F898004FEAB020052809D877
:10428000DFE800F0040E1404040400BF2E46ADB9AC
:1042900018E000BF012501262078000620D454E054
:1042A00004F10800002103F027FC04E004F12800D9
:1042B000022103F0B5FC05462E461DB1207800060C
:1042C0000ED442E0D8F82C00D4F8981020F4E05036
:1042D00000250843C8F82C003E462078000634D557
:1042E000D4F89C004FEA703005280FD8DFE800F0C2
:1042F00004141A04040400BF2F46E5B12068010726
:1043000027D4C1063ED4000355D475E0012501270A
:1043100020680107F5D51CE004F10800002103F036
:10432000EBFB04E004F12800022103F079FC0546D0
:10433000002D2F46E2D1D8F82C00D4F89C1020F4A0
:10434000604000250843C8F82C0037462068010764
:10435000D7D5D4F88000B0F5805F09D104F12800EA
:10436000022103F05DFC002818BF0127D4F880006B
:10437000D8F8281021F440510843C8F828002068D4
:10438000C106C0D5D4F89400B0F5807F09D104F1FE
:104390002800022103F044FC002818BF0127D4F8AC
:1043A0009400D8F82C1021F440710843C8F82C0070
:1043B0002068000320D5D4F8A000B0F5003F0FD04E
:1043C000B0F5803F06D078BB04F10800002103F06F
:1043D00093FB04E004F12800022103F021FC0546D0
:1043E0002E4655B9D8F82C00D4F8A01020F440304F
:1043F00000250843C8F82C003E46A07840072BD57E
:10440000D4F88400B0F5401F0BD0B0F5001F11D0D8
:10441000B0F5801F2AD1D8F8000040F40030C8F869
:1044200000002F46CDB90DE001250126A0784007F8
:10443000E6D411E004F12800012103F0F1FB054668
:104440002F4655B9D8F82800D4F8841020F440102D
:1044500000250843C8F828003746A078C0070AD1CD
:104460003E462168880016D533E000BF01250127AC
:10447000A078C007F4D0206DB0F5803F10D018BBF5
:10448000D8F8000040F40030C8F800002E4685B18E
:10449000216888001DD460688A0326D465E000BFC7
:1044A00004F10800022103F027FB0546002D2E46EB
:1044B000EED1D8F82000216D20F48030002508438B
:1044C000C8F82000CCE700BF01250126216888003C
:1044D000E1D504F12800022103F0A2FB002818BF57
:1044E0000126D4E900108A033FD5E26F6FF0010383
:1044F00003EB3223022B0BD34FEA322343B1012BC0
:1045000040F0AA80D8F8003043F40033C8F80030F7
:1045100025B3CA022CD48A0234D44A003CD4CA0F30
:1045200049D1090251D4C1075AD1810763D4410747
:104530006CD4010776D4C10600F18080800607D5CF
:1045400004F12800022103F06BFB002818BF0125AD
:10455000002D18BF01252846BDE8F087D8F828307F
:1045600023F440731A43C8F828203546CA02D2D52E
:10457000D8F82420236F22F000421A43C8F82420E0
:104580008A02CAD5D8F82420A36E22F080721A437A
:10459000C8F824204A00C2D558F81C2C22F4004246
:1045A00048F81C2CD4F8B42058F81C3C1A4348F89E
:1045B0001C2CCA0FB5D0D8F82020636D22F04052D1
:1045C0001A43C8F820200902ADD5D8F82810D4F82D
:1045D000882021F440011143C8F82810C107A4D055
:1045E00004F10800002103F087FA002818BF0546EF
:1045F000606881079BD504F10800012103F07CFA73
:10460000002818BF05466068410792D504F10800EC
:10461000022103F071FA002818BF054660680107FF
:104620007FF589AF04F12800002103F0F9FA002892
:1046300018BF05466068C1067FF580AF04F1280009
:10464000012103F0EDFA002818BF054660688006D6
:104650003FF576AF7CE700BF0125CA027FF55BAF6F
:1046600086E700BFD4F8B0004FF6CF7358F81C2C83
:10467000C0F2FF0300F4407122F47C5203EA1013ED
:104680006FF31F30B1F5407F08BF1A43002548F88B
:104690001C2CD8F844100843C8F84400FFF7CBBCE2
:1046A0002DE9F04381B0002800F02A8142F2000891
:1046B0000446C5F200288946D8F8000000F00F0033
:1046C00088420ED2D8F8000020F00F0040EA09001E
:1046D000C8F80000D8F8000000F00F00484540F08E
:1046E0000F81206844F218474107C5F602070AD532
:1046F00021693A6802F07002914204D93A6822F0C6
:1047000070021143396001070AD561697A6802F0C5
:104710007002914204D97A6822F0700211437960E4
:10472000C1060AD5A1697A6802F4E062914204D90F
:104730007A6822F4E0621143796081060AD5E16962
:10474000BA6802F07002914204D9BA6822F070028D
:104750001143B96010F002010AD0E2683B6803F02F
:104760000F039A4204D93B6823F00F031A433A60BF
:10477000C20746D03968D4E9010221F470610128EA
:1047800041EA0201396009D003280DD0022811D175
:1047900057F8181C890312D4B2E000BF57F8181C50
:1047A000C9050CD4ACE000BF57F8181C890106D429
:1047B000A6E000BF57F8181C490740F1A18057F840
:1047C000081C21F00701084347F8080CFEF750FFCA
:1047D000064641F2883500BF57F8080C616800F0C2
:1047E0003800B0EBC10F09D0FEF742FF801BA84292
:1047F000F2D9032001B0BDE8F08300BF206800F0CB
:10480000020151B1E1683A6802F00F02914204D20C
:104810003A6822F00F0211433960D8F8001001F015
:104820000F0149450DD9D8F8001021F00F0141EAD8
:104830000901C8F80010D8F8001001F00F0149452F
:104840005ED141070AD521693A6802F070029142AF
:1048500004D23A6822F070021143396001070AD588
:1048600061697A6802F07002914204D27A6822F09B
:10487000700211437960C1060AD5A1697A6802F411
:10488000E062914204D27A6822F4E06211437960D6
:1048900080060AD5E069B96801F07001884204D247
:1048A000B96821F070010843B86000F0E1F8396898
:1048B0004BF29C12C0F60002C1F30321515C3B682D
:1048C00003F00F0301F01F01D25C20FA01F102F0A6
:1048D0001F0040F22812C2F2004221FA00F01060DC
:1048E00040F2201040F22412C2F20040C2F2004214
:1048F0000068116001B0BDE8F043FEF705BF00BFDE
:10490000012001B0BDE8F0833F22026044F218426A
:10491000C5F6020252F8083C03F00703436013682F
:1049200003F470638360136803F00F03C3601368BC
:1049300003F070030361536803F07003436153682D
:1049400003F4E0638361926802F07002C26142F294
:104950000000C5F20020006800F00F0008607047FA
:1049600080B500F085F844F218414BF29C13C5F66F
:104970000201C0F600030A68C2F303229A5C0968C8
:1049800001F00F0102F01F02595C20FA02F201F05F
:104990001F0040F22811C2F2004122FA00F0086024
:1049A00040F22411C2F200410A6080BD0000000004
:1049B00080B500F05DF844F2184C4BF29C13C5F63C
:1049C000020CC0F60003DCF80020C2F303229A5C5C
:1049D000DCF8001001F00F0102F01F02595CD0401A
:1049E00040F22812C2F2004201F01F0120FA01F148
:1049F000116040F22412C2F200421060DCF80400A0
:104A0000C0F30210185C00F01F0021FA00F080BD16
:104A100080B500F02DF844F2184C4BF29C13C5F60B
:104A2000020CC0F60003DCF80020C2F303229A5CFB
:104A3000DCF8001001F00F0102F01F02595CD040B9
:104A400040F22812C2F2004201F01F0120FA01F1E7
:104A5000116040F22412C2F200421060DCF804003F
:104A6000C0F30220185C00F01F0021FA00F080BDA6
:104A700044F20041C5F602010869C0F3C2000328F0
:104A800010D002282ED098BB0868800649F200009A
:104A9000C0F2D03058BF70470968C1F3C101C840A7
:104AA000704700BF8A6A886AC0F3051CC86ABCF1F7
:104AB000000F4B6B22D000F0010002F003024042D5
:104AC000022A00EAD3006FF35F3000EE100AB8EE5E
:104AD000400A15D0C2B90868800619D49FED281A7B
:104AE00023E000BF43F20060C0F26E10704700BFC9
:104AF00040F60010C0F23D00704700BF0020704734
:104B00009FED1E1A11E000BF9FED1B1A0DE000BFC4
:104B1000086849F20002C0F2D032C0F3C10022FAA4
:104B200000F001EE100AB8EE411A086B9FED153A3D
:104B30006FF35F2002EE100A086BC0F34620B8EE58
:104B4000422A013000EE032A00EE10CAB7EE003A06
:104B5000B8EE400A81EE000A32EE031A20EE010A96
:104B600001EE100AB8EE411A80EE010ABCEEC00A4E
:104B700010EE100A704700BF0024744A001BB74BA8
:104B80000024744C0000003970B3F0B581B00446C5
:104B9000007844F20046C007C5F6020626D1207808
:104BA00080076ED5306910F03801B06A46D01829F8
:104BB00008BF5FEA807041D0E0683168002800F0EB
:104BC000318121F0190108433060FEF751FD05469F
:104BD000306840074ED4FEF74BFD401B0228F7D942
:104BE000032001B0F0BD00BF01207047306900F024
:104BF0003801B06A102905D018290BD100F0030044
:104C0000022807D130688003C9D560680028C6D162
:104C1000AEE000BF6068002800F03A81B0F5A02F38
:104C200000F04E81B0F5803F00F04E81306820F4F6
:104C300080303060306820F4802048E130684007E0
:104C4000E06802D5002800F09380316821F0190156
:104C500008433060FEF70CFD054600BF3068400792
:104C600008D4FEF705FD401B02284FF00300F5D9DC
:104C700001B0F0BD7068216920F0FE4040EA01609B
:104C800070602078C0061AD5306900F03801B06A2B
:104C9000082907D0182940F0858000F0030001287A
:104CA00040F080803068C00502D5E06980285FD17F
:104CB000F068216A20F07C5040EA0160F0602078C2
:104CC00000073FD42078800656D42078400700F1B2
:104CD0008180656A9DB3306900F03800182840F083
:104CE0001981012DB16A306B42D001F00302A36A31
:104CF0009A423DD1C1F30511E26A914238D1014691
:104D0000226B6FF35F21013A914231D1C0F3462209
:104D1000616B01398A422BD1C0F30642A16B013984
:104D20008A4225D1C0F30660E16B013988421FD168
:104D3000706BA16CC0F3CC00814240F0A1810020D7
:104D400001B0F0BD60690028706F59D040F00100DB
:104D50007067FEF78DFC0546706F8007B2D4FEF7D2
:104D600087FC401B0228F7D9032001B0F0BD00BF2B
:104D7000012001B0F0BD00BFA0690028306875D0E7
:104D800040F480503060FEF773FC054630688004C4
:104D90009BD4FEF76DFC401B0228F7D9032001B01D
:104DA000F0BD00BFE0690028306800F0A18040F04D
:104DB00080003060FEF75CFC054600BF3068C0052F
:104DC0003FF576AFFEF754FC401B02284FF003007E
:104DD000F4D94DE7D6F8000440F48070C6F800041A
:104DE000FEF746FC054600BFD6F80004C0052BD4EC
:104DF000FEF73EFC401B6428F6D9032001B0F0BD4D
:104E000020F001007067FEF733FC0546706F8007E5
:104E10007FF558AFFEF72CFC401B02284FF0030033
:104E2000F4D925E721F001003060FEF721FC0546AA
:104E3000306840077FF525AFFEF71AFC401B0228BB
:104E40004FF00300F4D913E7A068002800F0848035
:104E5000052800F09B80012800F09C80306F20F036
:104E600001003067306F20F0040096E020F480509D
:104E70003060FEF7FDFB0546306880047FF525AF06
:104E8000FEF7F6FB401B02284FF00300F4D9EFE6D3
:104E9000306820F480303060306820F4802030604A
:104EA000FEF7E6FB054600BF306880037FF577AE6E
:104EB000FEF7DEFB401B64284FF00300F4D9D7E671
:104EC000306840F480203060306840F480303060DA
:104ED000FEF7CEFB054600BF306880033FF55FAEAE
:104EE000FEF7C6FB401B6428F6D9032001B0F0BDD5
:104EF00020F080003060FEF7BBFB05463068C0053F
:104F00007FF5DDAEFEF7B4FB401B02284FF0030037
:104F1000F4D9ADE6306820F080703060FEF7A8FB71
:104F2000022D05460CD100BF3068800148D5FEF740
:104F30009FFB401B02284FF00300F5D998E600BF05
:104F4000306880017FF5FBAEFEF792FB401B022824
:104F50004FF00300F4D98BE6306F20F0010030678A
:104F6000306F20F004003067FEF782FB054641F207
:104F70008837306F80077FF5ACAEFEF779FB401BBA
:104F8000B8424FF00300F4D972E600BF306F40F032
:104F900004003067306F40F001003067FEF768FBB7
:104FA000054641F2883700BF306F80073FF591AE6C
:104FB000FEF75EFB401BB8424FF00300F4D957E602
:104FC00004F12807B06A40F2F33188438ECF0843DA
:104FD000591E40EA02104FF47E426FF35F21B06227
:104FE00002EB47204FF4FE0280B2E36B0844A16B52
:104FF00002EB01414FF0FE4201F4FE0102EB0362BD
:10500000084402F0FE4108443063F06A4FF6F8713C
:1050100020F00100F062706BA26C884340EAC2008D
:105020007063F06A216C20F00C000843F062F06AB3
:10503000616C20F002000843F062F06A40F48030B6
:10504000F062F06A40F40030F062F06A40F48020D0
:10505000F062F06A40F00100F062306840F0807069
:105060003060FEF705FB0446306880013FF567AE0F
:10507000FEF7FEFA001B02284FF00300F4D9F7E513
:10508000F06A20F00100F062FEF7F2FA0546FEF742
:10509000EFFAA842FBD0706B4FF6F871A26C884310
:1050A00040EAC2007063F06A40F00100F062002044
:1050B00001B0F0BD00000000F0B581B0C8B10446F9
:1050C000D0F888001E4615460F4628B9002084F8FF
:1050D0008400204601F09CFD2420C4F8880020684C
:1050E000016821F001010160204603F095FC0128D0
:1050F00002D1012001B0F0BDA06A10B1204603F03A
:105100002BF92068816841F480418160816821F435
:105110000041394381603104026841EA45516FF32F
:10512000194211430160016841F00101016020460C
:1051300001B0BDE8F04003F07FB9000000000000BE
:10514000704700000000000070B504460068026966
:105150004369816894F881501E050BD512F008064A
:1051600008D0816941F4006181612046BDE870404A
:1051700000F09ABA03EA020606F06402042A07D194
:10518000616F20468847216F2046BDE87040084780
:1051900006F04502012A07D1216F2046884706F014
:1051A0002600022804D070BD06F02602022A05D18E
:1051B000616F2046BDE87040084700BF320711D438
:1051C00016F4587FEFD070065CD4B00567D4F005B4
:1051D00072D4B00600F17E80D4F88400002840F03C
:1051E0008980E0E721688A6942F008028A618A6959
:1051F00042F010028A618A6942F400628A610A6997
:1052000022F008020A61896811F4404F23D0204639
:1052100002F0A2FD012084F88100D4F88400002867
:1052200040F0A180032D00F0A380042D00F0A680A3
:10523000052DB8D12046BDE8704000F03DBA00BF52
:105240002268616E126B41F8042B6166B4F86A1033
:105250000139A4F86A10B4F86A100029D7D0E168BF
:105260001029EDD2082905D3028E616E21F8022B98
:10527000EBE700BF216891F83010626E1170616E2B
:105280000131E2E72068D4F8842042F00402C4F837
:105290008420826942F040028261B00597D520687F
:1052A000D4F8842042F00102C4F88420826942F4D8
:1052B00000728261F0058CD52068D4F8842042F019
:1052C0000802C4F88420826942F480728261B006C8
:1052D0007FF582AF2068D4F8842042F08002C4F8C1
:1052E0008420826942F020028261D4F88400002880
:1052F0003FF459AF206801F4404140F26B33B1F5FF
:10530000404F026822F001020260026922EA0301B2
:10531000016125D1816847F6296521F4404181600A
:10532000E06FC0F6000548B10565FBF759FF28B1ED
:10533000D4F8840040F04000C4F88400A06F002836
:105340003FF431AF0565FBF74BFF002808BF70BD88
:10535000D4F8840040F04000C4F8840070BD00BF61
:10536000012084F881002046BDE87040FFF7E8BEC8
:105370002046BDE8704000F09BB900BF2046BDE864
:10538000704000F08DB9000000284DD02DE9F04F9D
:1053900081B043F6000104460068C4F2000143F204
:1053A000000E43F6004C8842C4F2010EC4F2000C19
:1053B0004FF00002A26203D0604518BF704541D192
:1053C000E36B0125E268884202F1080205EB531302
:1053D0004FEAD20202FB03F318BF704526D1102B0F
:1053E00033D894F8810028B9002084F88000204642
:1053F00000F0AAF8022084F88100D4E90009D4F86A
:1054000018800368B8F1806F23F00103036083689C
:1054100003F4F81E26D1B9F1000F1BD0B9F5800FA7
:1054200020D1A36B23BB19E001207047604518BF52
:10543000082B0AD80CF574418842D0D06045CED0F4
:10544000CFE700BFE3680F2BBAD9012001B0BDE858
:10545000F08F00BFA36BB3F1805F06D1036843F404
:10546000805303605FEA492302D44FF0010C0FE040
:10547000E368072B0AD3056825F4807C256D45EA8F
:105480000C0505604FF0000C07E000BF4FF0000C6A
:10549000036823F480730360E368E769A26A47EA5C
:1054A0000E07E16B3A43A7681143B9F1000FD4E945
:1054B00004BA41EA03018160616BA56B626A41EA4B
:1054C0000201226A41EA050141EA0B0141EA0A01AF
:1054D000D4E9126341EA0201A26D41EA030141EA03
:1054E000070141EA060141EA020141EA080141EAF5
:1054F0000901C1600ED0016DBCF1000F21F0010166
:10550000016515D1C168626D21F000411143C16090
:105510000EE000BF8168012262F3CC2181608168C6
:10552000022262F34A218160016D21F001010165CF
:105530000020C4F88400012184F8811001B0BDE886
:10554000F08F0000000000002DE9F04FB3B0694675
:10555000044601F10800B021FBF70BF843F6000107
:105560002068C4F20001884202D033B0BDE8F08F59
:105570004FF480500090684600270197FEF73CFBEF
:1055800008B1FBF701FB44F2E04040F20045C5F6EC
:105590000200C5F602052EAE40F2100881684FF0F9
:1055A000020941F4804181608168C4F2020801F47B
:1055B00080412E912E99016841F00401016001683B
:1055C0004FF0030A01F004012E912E99016841F079
:1055D000020101600068314600F002002E902E9812
:1055E00006202E9005F58060CDF8BC904FF0050B9D
:1055F0003097CDF8C4A0CDF8C8B0FDF75DFF4FF4EB
:1056000000503146CDE92E0930A880E8800C2846AC
:10561000FDF752FF40F274552720C2F200454FF4C7
:105620008066C5E901074FF44030C5F80080C5E940
:1056300008072846EF60C5E90467C5E90677FCF767
:105640003BFB08B1FBF7A0FAE56708F11800AC6373
:1056500040F2EC55C2F200454FF40031286028209A
:1056600068604020A8600020C5E90306C5E9050080
:10567000E861C5E908102846FCF71EFB08B1FBF7F6
:1056800083FA242006210022A567AC63FEF708F9FF
:105690002420FEF7F1F833B0BDE8F08F00000000E1
:1056A000704700000000000070470000000000008C
:1056B000704700000000000070470000000000007C
:1056C000704700000000000070470000000000006C
:1056D000704700000000000090F83C20012A4FF0C5
:1056E000020266D0B0B580F83D2040F2004C02685E
:1056F000C4F2010C42F4806363455368D2F808E0B9
:1057000002BF23F470034C6823434DF6FF740D6809
:10571000C4F2000423F07003A24243EA050353607D
:1057200014DC40F2FF73C4F200039A4222DD40F61B
:105730000003C4F200039A422ED040F60043C4F2A4
:1057400000039A4228D041F6000321E04FF6FF7390
:10575000C4F200039A4213DD0023C4F201039A420B
:105760001AD044F20003C4F201039A4214D06245F5
:1057700012D016E0B2F1804F0ED040F2004307E0A5
:105780004EF20003C4F200039A4205D04EF20043E9
:10579000C4F200039A4204D12EF0800389681943B1
:1057A00091600022012180F83D1080F83C20BDE886
:1057B000B04010467047000060B310B5044690F842
:1057C0003D0028B9002084F83C00204600F024F871
:1057D000022084F83D002068211D02F0F9FC012020
:1057E00084F8480084F83E0084F83F0084F84000C4
:1057F00084F8410084F8420084F8430084F84400AF
:1058000084F8450084F8460084F8470084F83D0099
:10581000002010BD0120704770470000000000000C
:1058200090F83D10012927D1022180F83D10016830
:105830004DF6FF70C4F200008142C86840F00100DC
:10584000C8601BDC40F2FF70C4F2000081422DDD15
:1058500040F60000C4F2000081423DD040F6004016
:10586000C4F20000814237D041F60000C4F20000CB
:10587000814231D03CE000BF012070474FF6FF70FD
:10588000C4F2000081421BDD0020C4F2010081420D
:1058900022D044F20000C4F2010081421CD040F248
:1058A0000040C4F20100814216D021E0B1F1804FE6
:1058B00012D040F20040C4F2000081420CD017E048
:1058C0004EF20000C4F20000814205D04EF20040CA
:1058D000C4F2000081420BD107228868C0F20102A5
:1058E00002400020062A18BFB2F5803F00D1704761
:1058F000086840F0010008600020704700000000C8
:10590000704700000000000010B5044600680169FF
:10591000890744BFC1685FEA81713FD401694907C3
:1059200044BFC1685FEA417144D40169090744BFBB
:10593000C1685FEA01714BD40169C90644BFC168FF
:105940005FEAC16150D40169C9071CBFC1685FEA41
:10595000C17157D10169090644BFC1685FEA01619D
:1059600058D40169C90544BFC1685FEA016159D4CF
:105970000169490644BFC1685FEA41615AD40169BF
:10598000890646BFC1685FEA816110BD6FF02001E2
:1059900001612046BDE81040FFF79ABE6FF002019A
:1059A000016101212177806980074BD02046FFF7F4
:1059B000A7FF4DE06FF004010161022121778069AA
:1059C00010F4407F48D02046FFF79AFF4AE000BF1E
:1059D0006FF00801016104212177C069800745D07B
:1059E0002046FFF78DFF47E06FF0100101610821AD
:1059F0002177C06910F4407F42D02046FFF780FF36
:105A000044E000BF6FF001010161204600F0F0FAB0
:105A100020689FE76FF0800101612046FFF754FE88
:105A200020689EE76FF4807101612046FFF748FE11
:105A300020689DE76FF040010161204600F0E4FA24
:105A400020689CE7204600F027F8204600F0CCFABA
:105A500000202077206861E7204600F01DF82046EE
:105A600000F0C2FA0020207720685EE7204600F0B0
:105A700013F8204600F0B8FA0020207720685BE792
:105A8000204600F009F8204600F0AEFA002020770A
:105A9000206858E700000000704700000000000088
:105AA00090F83C30012B01D1022070474FEAB2023E
:105AB000052A33D82DE9F041DFE812F00600360060
:105AC0007400B200D800FE00036843F6FF76C4F20B
:105AD00001061A6AB34222F001021A621A461C6ACF
