:020000040800F2
:10000000900700249903000809270008912500089B
:10001000012700089105000849350008000000008C
:100020000000000000000000000000006929000836
:100030009905000800000000112700087129000838
:10004000B3030008B3030008B3030008B3030008B8
:10005000B3030008B3030008B3030008B3030008A8
:10006000B3030008B3030008B3030008B303000898
:10007000B3030008B3030008B3030008B303000888
:10008000B3030008B3030008B3030008B303000878
:10009000B3030008B3030008B3030008B303000868
:1000A000B3030008B3030008B3030008B303000858
:1000B000B3030008B3030008B3030008B303000848
:1000C000B3030008B3030008B3030008B303000838
:1000D000B3030008B3030008B3030008B303000828
:1000E000B3030008B303000800000000B3030008D6
:1000F000B3030008B3030008B3030008B303000808
:10010000B3030008B3030008B3030008B3030008F7
:10011000B3030008B3030008B3030008B3030008E7
:10012000B3030008B3030008B3030008B3030008D7
:10013000B3030008B3030008B3030008B3030008C7
:1001400000000000000000000000000000000000AF
:10015000B3030008B3030008B3030008B3030008A7
:10016000B3030008B3030008B3030008B303000897
:10017000B3030008B3030008B30300080000000045
:10018000B3030008B3030008B3030008B303000877
:10019000B3030008B3030008B3030008B303000867
:1001A000B3030008B3030008B30300080000000015
:1001B000B3030008B3030008B3030008B303000847
:1001C000B3030008B30300080000000000000000B3
:1001D0000000000000000000B30300080000000061
:1001E000000000000000000000000000000000000F
:1001F0000000000000000000B3030008B303000883
:10020000B3030008B303000800000000B3030008B4
:10021000B3030008B3030008B3030008B3030008E6
:10022000B303000800000000B30300080000000052
:10023000B3030008B303000800000000B303000884
:10024000B3030008B3030008B3030008B3030008B6
:10025000B3030008B3030008B3030008B3030008A6
:10026000B3030008B3030008B3030008B303000896
:10027000B3030008B3030008B30300080000000044
:10028000B3030008B3030008B3030008B303000876
:1002900000000000B3030008B303000800000000E2
:1002A00000000000B3030008B3030008B303000814
:1002B000B3030008B3030008B3030008B303000846
:1002C000B3030008B3030008B303000800F002F80A
:1002D00000F052F814A696E8000CB244B344DA4594
:1002E00001D100F049F8BAE80F000FA696E83000F7
:1002F000A5EB040504EB0607AAEB0704A7F1010729
:100300004FEA15154FEA3414A4F10104AC4201D3AD
:1003100000F032F813F0010F18BFFB1A43F001038D
:1003200000F001F8DBE71847C4320000E4320000B7
:10033000103A24BF78C878C1FAD8520724BF30C811
:1003400030C144BF04680C60704700007047000073
:100350000023002400250026103A28BF78C1FBD8CE
:10036000520728BF30C148BF0B6070471FB503F06C
:100370000EF91FBD10B510BD00F0D0F81146FFF703
:10038000F5FF03F0E5F800F0EEF803B4FFF7F2FF35
:1003900003BC00F0F5F80000094880470948004711
:1003A000FEE7FEE7FEE7FEE7FEE7FEE7FEE7FEE725
:1003B000FEE7FEE704480549054A064B7047000082
:1003C000492A0008CD02000890010024900700246B
:1003D000900300249003002453EA020C00F069808B
:1003E0002DE9F04B4FF00006002B1FBFB3FA83F549
:1003F00003FA05F424FA05F65E4012BF1643B2FA7A
:1004000082F502FA05F4C5F120051EBF22FA05FCAB
:1004100044EA0C04203556EA044C4FEA144418BF51
:10042000641C4FF000084FF00009904271EB030C80
:1004300039D3002919BFB1FA81F701FA07F6B0FAEA
:1004400080F700FA07F6C7F120071EBF20FA07FC65
:1004500046EA0C062037B6FBF4FCA7EB0507103F75
:1004600007F01F0BCBF120062CFA06F60CFA0BFB5B
:1004700044BFB3460026202FA4BF5E464FF0000BBA
:100480005BEA060C08BF4FF0010B19EB0B0948EBB8
:100490000608ABFB027C06FB02CC0BFB03CCC01BAB
:1004A00071EB0C01C1E70B46024641464846BDE8E8
:1004B000F08B13B5084318BF4FF0FF300146AFF380
:1004C0000080BDE81C4070474FF0000200B51346A5
:1004D00094469646203922BFA0E80C50A0E80C5064
:1004E000B1F12001BFF4F7AF090728BFA0E80C5015
:1004F00048BF0CC05DF804EB890028BF40F8042B0E
:1005000008BF704748BF20F8022B11F0804F18BF7A
:1005100000F8012B7047704770477047754600F030
:100520002BF8AE4605006946534620F00700854685
:1005300018B020B5FFF73EFFBDE820404FF00006A1
:100540004FF000074FF000084FF0000BAC46ACE84E
:10055000C009ACE8C009ACE8C009ACE8C00921F0AA
:1005600007018D46704710B50446AFF30080204662
:10057000BDE81040FFF709BF004870471000002495
:1005800001491820ABBEFEE72600020070470000BC
:10059000FEE70000000000007047000000000000BF
:1005A000EFF3108072B600BFFEE70000000000000D
:1005B0002DE9F04F82B00D68002D00F0C78000F1EA
:1005C000264242F2004402F1FF728305C5F602049E
:1005D0000A27A04243EA922208BF0927082A40F2CC
:1005E000040C38BF1746C5F6000C4FF0000E0097FC
:1005F000002700260AE000BF01360D6835FA06F232
:1006000007F102070EF1040E00F0A080012202FAA9
:1006100006FB15EA0B08EFD0D1F804A003220AF07C
:10062000030502FA07F36C1E6FEA0309012C0FD8C9
:100630008368CC6803EA0903BC4023438360CAF3A0
:100640000014436823EA0B03B4402343436003E0F0
:10065000032D01D1032520E0C3688C6803EA090358
:10066000BC40022D43EA0403C36016D16FF00302BD
:100670000EF01C0502EA56030F22034402FA05FBA2
:10068000D3F820A00C692AEA0B0AAC4044EA0A0419
:100690001C62D1F804A00AF00305036805FA07F408
:1006A00003EA09031AF4403F43EA04030360A3D0BA
:1006B00044F2F44240F2084AC5F60202C5F6000AC6
:1006C000136843F00203136013680F2203F0020360
:1006D000019326F00303019C0EF00C0453F80A90DA
:1006E00002FA04F5009A29EA050502FA04F44FF02B
:1006F000B0492C4343F80A40D9F800304C6843EA2B
:100700000805E20258BF23EA0805C9F80050A5020F
:10071000DCF8002042EA080358BF22EA0803A503D8
:10072000CCF80030DCF8802042EA080358BF22EA07
:100730000803E403CCF88030DCF87C2042EA0803AC
:1007400058BF22EA0803CCF87C3055E702B0BDE878
:10075000F08F000000000000002A08BF090481613A
:10076000704700000000000040F28C10C2F2004010
:10077000006870470000000040F2000040F28C1159
:10078000C2F20040C2F2004100780A6810440860DA
:10079000704700000000000080B5032000F0E8F87A
:1007A00001F072F944F2184143F2B453C5F6020164
:1007B000C0F600030A68C2F303229A5C096801F0DC
:1007C0000F0102F01F02595CD04040F20C02C2F24D
:1007D000004201F01F0120FA01F1116040F208010E
:1007E000C2F2004108600F2000F00AF800281CBF88
:1007F000012080BD00F07CF8002080BD00000000DA
:1008000070B540F20006C2F200463178E1B104460C
:1008100040F20800C2F200404FF47A72B2FBF1F1EC
:100820000068B0FBF1F001F077FD0F2C4FF00105EF
:1008300008D838B94FF0FF3000222146002500F0DB
:1008400067F87460284670BD012070BD000000008C
:1008500010B54EF6A05E4178CEF2000E90F800C0C2
:100860004EF8081CDEF8001021F00101CEF800104F
:1008700041684EF8041C017BC37A827A447B1B06D4
:1008800043EA0171837B41EAC241C27B41EA844170
:10089000447A41EA4341007A41EA024141EA0421B3
:1008A00041EA400040EA0C00CEF8000010BD000014
:1008B0004EF62450CEF20000BFF35F8F016821F4A2
:1008C00080310160002101677047000000000000D6
:1008D0004EF6245140F00100CEF20001086708688E
:1008E00040F480300860BFF34F8FBFF36F8F7047C5
:1008F00081B044F2F440C5F60200016841F0020103
:100900000160006800F002000090009801B070479C
:1009100070B54EF60C5C4FF0FF36CEF2000C00F1D5
:10092000604505F56445DCF80030C3F3022E8EF017
:100930000703042B28BF0423BEF1030406FA03F3C4
:1009400021EA030100F00F0338BF0024043B002814
:10095000634406FA04F048BF03F10C05A14022EA03
:10096000000008430001287070BD00000000000076
:100970004EF60C514FF6FF03CEF200010A681A4002
:1009800060F30A2242F0806040F0FD70086070471A
:10099000B0B544F60C05C5F6020529684907296873
:1009A00006D401F00701081A18BF0120B0BD00BF2E
:1009B00021F0070108432860FFF7D6FE044600BF78
:1009C00055F8080C800407D4FFF7CEFE001BB0F5E5
:1009D0007A7FF5D90120B0BD0020B0BD0000000035
:1009E00080B500F0C9FF44F2204143F2B452C5F68D
:1009F0000201C0F600020968C1F30211515C01F066
:100A00001F01C84080BD000080B544F2384EC5F6D5
:100A1000020E5EF8103C5EF8101C5EF80C2CC1F360
:100A2000053CDEF80410BCF1000F15D0C908D20651
:100A300001EAE2716FF35F3100EE101A03F0030177
:100A40000229B8EE400A0DD081B95EF8381C89063B
:100A500010D49FED361A1BE000218160C0E900111F
:100A600080BD00BF9FED301A12E000BF9FED2D1A30
:100A70000EE000BF5EF8381C49F20002C0F2D0322E
:100A8000C1F3C10122FA01F101EE101AB8EE411AC8
:100A9000DEF800109FED263A6FF35F2102EE101A88
:100AA000DEF80010C1F34621B8EE422A00EE032A18
:100AB00000EE10CAB7EE003AB8EE400A81EE000A26
:100AC00032EE031A02EE101AB8EE422A20EE010AA4
:100AD00032EE031A80EE011ABCEEC11A80ED001A44
:100AE000DEF80010C1F3064101EE101AB8EE411A0B
:100AF00031EE031A80EE011ABCEEC11A80ED011A24
:100B0000DEF80010C1F3066101EE101AB8EE411ACA
:100B100031EE031A80EE010ABCEEC00A10EE101A84
:100B2000816080BD0024744A001BB74B0024744CC4
:100B3000000000390000000080B544F2404EC5F6C8
:100B4000020E5EF8183C5EF8181C5EF8142CC1F317
:100B5000055CDEF80410BCF1000F15D0C908D20501
:100B600001EAE2716FF35F3100EE101A03F0030146
:100B70000229B8EE400A0DD081B95EF8401C890602
:100B800010D49FED361A1BE000218160C0E90011EE
:100B900080BD00BF9FED301A12E000BF9FED2D1AFF
:100BA0000EE000BF5EF8401C49F20002C0F2D032F5
:100BB000C1F3C10122FA01F101EE101AB8EE411A97
:100BC000DEF800109FED263A6FF35F2102EE101A57
:100BD000DEF80010C1F34621B8EE422A00EE032AE7
:100BE00000EE10CAB7EE003AB8EE400A81EE000AF5
:100BF00032EE031A02EE101AB8EE422A20EE010A73
:100C000032EE031A80EE011ABCEEC11A80ED001A12
:100C1000DEF80010C1F3064101EE101AB8EE411AD9
:100C200031EE031A80EE011ABCEEC11A80ED011AF2
:100C3000DEF80010C1F3066101EE101AB8EE411A99
:100C400031EE031A80EE010ABCEEC00A10EE101A53
:100C5000816080BD0024744A001BB74B0024744C93
:100C600000000039000000002DE9F0470446C0787C
:100C700044F22C480007C5F6020833D5606E4FEAEF
:100C8000305103290CD8DFE801F003111D2600BF05
:100C9000D8F8001041F40031C8F800101BE000BF84
:100CA00001266078C0070BD020E000BF04F10800E7
:100CB000022101F031FD064660B16078C00715D110
:100CC000354646E004F12800022101F0B9FD064650
:100CD0000028F2D1606ED8F8241021F440110843A6
:100CE000C8F8240000266078C007E9D0A06D042869
:100CF0000ED83546DFE800F00412181E1E0000BFB3
:100D0000D8F80000354640F40030C8F8000011E083
:100D100001250127607840071FD453E004F1080043
:100D2000002101F0F9FC04E004F12800002101F0A9
:100D300087FD05462F461DB1607840070DD441E080
:100D4000D8F82400A16D20F0070000250843C8F85A
:100D5000240037466078400734D5D4F8A4004FEA21
:100D6000705005280CD8DFE800F00311171D1D1D79
:100D7000D8F8000040F40030C8F8000012E000BFCE
:100D8000012501266078000720D455E004F1080011
:100D9000002101F0C1FC04E004F12800002101F071
:100DA0004FFD05462E461DB1607800070ED443E086
:100DB000D8F82C00D4F8A41020F4600000250843D3
:100DC000C8F82C003E466078000735D5D4F8A80056
:100DD0004FEA306005280DD8DFE800F00412181E35
:100DE0001E1E00BFD8F8000040F40030C8F8000014
:100DF00012E000BF01250127E078800720D44EE0F3
:100E000004F10800002101F087FC04E004F128004F
:100E1000002101F015FD05462F461DB1E078800741
:100E20000ED43CE0D8F82C00D4F8A81020F0E060F4
:100E300000250843C8F82C003746E07880072ED5F7
:100E4000E06C4FEA301003280ED8DFE800F0090309
:100E5000130900BFD8F8000040F40030C8F80000C3
:100E60002E467DB912E000BF012501266078C0063C
:100E700019D44CE004F10800022101F04DFC0546B4
:100E80002E461DB16078C0060DD440E0D8F8200091
:100E9000E16C20F0300000250843C8F820003E46F1
:100EA0006078C00633D5E06D4FEA303004280DD8A5
:100EB000DFE800F00412181E1E0000BFD8F8000082
:100EC00040F40030C8F8000012E000BF01250127FF
:100ED000607880061FD44EE004F10800002101F084
:100EE0001BFC04E004F12800002101F0A9FC0546E8
:100EF0002F461DB1607880060DD43CE0D8F8240060
:100F0000E16D20F4E04000250843C8F8240037468E
:100F1000607880062FD5206E4FEA3040052809D82A
:100F2000DFE800F0040E1404040400BF2E46ADB93F
:100F300018E000BF01250126607840061FD44FE06D
:100F400004F10800012101F0E7FB04E004F12800AE
:100F5000012101F075FC05462E461DB16078400662
:100F60000DD43DE0D8F82400216E20F4E0200025C7
:100F70000843C8F824003E466078400630D5D4F8CF
:100F8000AC004FEA3070052808D8DFE800F0030D08
:100F9000130303032F46ADB918E000BF0125012755
:100FA0006078000620D442E004F10800012101F03D
:100FB000B3FB04E004F12800012101F041FC0546E7
:100FC0002F461DB1607800060ED430E0D8F82C0012
:100FD000D4F8AC1020F0E04000250843C8F82C00FD
:100FE00037466078000622D5E06E58B1B0F1005F58
:100FF0000CD0B0F1805F2FD1D8F8000040F4003061
:10100000C8F800002E469DB908E000BF04F10800B2
:10101000012101F081FB05462E464DB9D8F8240088
:10102000E16E20F0405000250843C8F824003E46F9
:10103000E078C00733D0A06C032813D8DFE800F0B5
:1010400008021A08D8F8000040F40030C8F8000080
:10105000A946BDB91AE000BF01250126E078C00706
:10106000E9D11CE001254FF00109A07840061AD50E
:101070001CE000BF04F10800022101F04DFB054611
:10108000A9461DB1A07840060DD50FE0D8F8200084
:10109000A16C20F0030000250843C8F82000B146E9
:1010A000A078400602D44F4618E000BFD8F8D40319
:1010B00040F48070C8F8D403FFF756FB064600BF23
:1010C000D8F8D403C00507D4FFF74EFB801B642873
:1010D000F6D90325032701E02F468DB12078C007FC
:1010E00061D0A06F4FEAF00005283BD8DFE800F0A0
:1010F00004404604040400BF002D2E4646D149E0BA
:10110000D8F84410D4F8B000414011F4407F11D019
:10111000D8F84410D8F8442042F48032C8F844206B
:10112000D8F8442021F4407122F48032C8F84420D9
:10113000C8F84410B0F5807F40F0CE82FFF714FB72
:10114000064641F2883A0325032700BFD8F8440039
:10115000800700F1BF82FFF707FB801B5045F5D9E0
:10116000BCE700BF01250126207880071FD44CE092
:1011700004F10800012101F0CFFA04E004F1280095
:10118000012101F05DFB05462E461DB12078800748
:101190000DD43AE0D8F82800A16F20F038000025DF
:1011A0000843C8F828003E46207880072DD5606F98
:1011B000052809D8DFE800F0040E1404040400BF79
:1011C0002F46ADB918E000BF012501272078400760
:1011D0001FD44DE004F10800012101F09DFA04E064
:1011E00004F12800012101F02BFB05462F461DB11B
:1011F000207840070DD43BE0D8F82800616F20F03C
:10120000070000250843C8F8280037462078400723
:101210002ED5D4F89000052808D8DFE800F0030D9B
:10122000130303032E46ADB918E000BF01250126C4
:101230002078800620D451E004F10800012101F05B
:101240006BFA04E004F12800012101F0F9FA0546E7
:101250002E461DB1207880060ED43FE0D8F82C0031
:10126000D4F8901020F0070000250843C8F82C009F
:101270003E462078800631D5D4F88C004FEA307095
:10128000052809D8DFE800F0040E1404040400BFA8
:101290002F46ADB918E000BF012501272078400690
:1012A00020D451E004F10800002101F035FA04E0F7
:1012B00004F12800022101F0C3FA05462F461DB1B2
:1012C000207840060ED43FE0D8F82800D4F88C10DF
:1012D00020F0E04000250843C8F828003746207871
:1012E000400631D5D4F898004FEAB020052809D837
:1012F000DFE800F0040E1404040400BF2E46ADB96C
:1013000018E000BF012501262078000620D454E013
:1013100004F10800002101F0FFF904E004F12800C5
:10132000022101F08DFA05462E461DB120780006F7
:101330000ED442E0D8F82C00D4F8981020F4E050F5
:1013400000250843C8F82C003E462078000634D516
:10135000D4F89C004FEA703005280FD8DFE800F081
:1013600004141A04040400BF2F46E5B120680107E5
:1013700027D4C1063ED4000355D475E001250127CA
:1013800020680107F5D51CE004F10800002101F0F8
:10139000C3F904E004F12800022101F051FA0546E6
:1013A000002D2F46E2D1D8F82C00D4F89C1020F460
:1013B000604000250843C8F82C0037462068010724
:1013C000D7D5D4F88000B0F5805F09D104F12800AA
:1013D000022101F035FA002818BF0127D4F8800057
:1013E000D8F8281021F440510843C8F82800206894
:1013F000C106C0D5D4F89400B0F5807F09D104F1BE
:101400002800022101F01CFA002818BF0127D4F897
:101410009400D8F82C1021F440710843C8F82C002F
:101420002068000320D5D4F8A000B0F5003F0FD00D
:10143000B0F5803F06D078BB04F10800002101F030
:101440006BF904E004F12800022101F0F9F90546E6
:101450002E4655B9D8F82C00D4F8A01020F440300E
:1014600000250843C8F82C003E46A07840072BD53D
:10147000D4F88400B0F5401F0BD0B0F5001F11D098
:10148000B0F5801F2AD1D8F8000040F40030C8F829
:1014900000002F46CDB90DE001250126A0784007B8
:1014A000E6D411E004F12800012101F0C9F9054654
:1014B0002F4655B9D8F82800D4F8841020F44010ED
:1014C00000250843C8F828003746A078C0070AD18D
:1014D0003E462168880016D533E000BF012501276C
:1014E000A078C007F4D0206DB0F5803F10D018BBB5
:1014F000D8F8000040F40030C8F800002E4685B14E
:10150000216888001DD460688A0326D465E000BF86
:1015100004F10800022101F0FFF80546002D2E46D7
:10152000EED1D8F82000216D20F48030002508434A
:10153000C8F82000CCE700BF0125012621688800FB
:10154000E1D504F12800022101F07AF9002818BF42
:101550000126D4E900108A033FD5E26F6FF0010342
:1015600003EB3223022B0BD34FEA322343B1012B7F
:1015700040F0AA80D8F8003043F40033C8F80030B7
:1015800025B3CA022CD48A0234D44A003CD4CA0FF0
:1015900049D1090251D4C1075AD1810763D4410707
:1015A0006CD4010776D4C10600F18080800607D58F
:1015B00004F12800022101F043F9002818BF012599
:1015C000002D18BF01252846BDE8F087D8F828303F
:1015D00023F440731A43C8F828203546CA02D2D5EE
:1015E000D8F82420236F22F000421A43C8F82420A0
:1015F0008A02CAD5D8F82420A36E22F080721A433A
:10160000C8F824204A00C2D558F81C2C22F4004205
:1016100048F81C2CD4F8B42058F81C3C1A4348F85D
:101620001C2CCA0FB5D0D8F82020636D22F0405290
:101630001A43C8F820200902ADD5D8F82810D4F8EC
:10164000882021F440011143C8F82810C107A4D014
:1016500004F10800002101F05FF8002818BF0546DA
:10166000606881079BD504F10800012101F054F85E
:10167000002818BF05466068410792D504F10800AC
:10168000022101F049F8002818BF054660680107EB
:101690007FF589AF04F12800002101F0D1F800287E
:1016A00018BF05466068C1067FF580AF04F12800C9
:1016B000012101F0C5F8002818BF054660688006C2
:1016C0003FF576AF7CE700BF0125CA027FF55BAF2F
:1016D00086E700BFD4F8B0004FF6CF7358F81C2C43
:1016E000C0F2FF0300F4407122F47C5203EA1013AD
:1016F0006FF31F30B1F5407F08BF1A43002548F84B
:101700001C2CD8F844100843C8F84400FFF7CBBCA1
:101710002DE9F04381B0002800F02A8142F2000850
:101720000446C5F200288946D8F8000000F00F00F2
:1017300088420ED2D8F8000020F00F0040EA0900DD
:10174000C8F80000D8F8000000F00F00484540F04D
:101750000F81206844F218474107C5F602070AD5F1
:1017600021693A6802F07002914204D93A6822F085
:1017700070021143396001070AD561697A6802F085
:101780007002914204D97A6822F0700211437960A4
:10179000C1060AD5A1697A6802F4E062914204D9CF
:1017A0007A6822F4E0621143796081060AD5E16922
:1017B000BA6802F07002914204D9BA6822F070024D
:1017C0001143B96010F002010AD0E2683B6803F0EF
:1017D0000F039A4204D93B6823F00F031A433A607F
:1017E000C20746D03968D4E9010221F470610128AA
:1017F00041EA0201396009D003280DD0022811D135
:1018000057F8181C890312D4B2E000BF57F8181C0F
:10181000C9050CD4ACE000BF57F8181C890106D4E8
:10182000A6E000BF57F8181C490740F1A18057F8FF
:10183000081C21F00701084347F8080CFEF794FF45
:10184000064641F2883500BF57F8080C616800F081
:101850003800B0EBC10F09D0FEF786FF801BA8420D
:10186000F2D9032001B0BDE8F08300BF206800F08A
:10187000020151B1E1683A6802F00F02914204D2CC
:101880003A6822F00F0211433960D8F8001001F0D5
:101890000F0149450DD9D8F8001021F00F0141EA98
:1018A0000901C8F80010D8F8001001F00F014945EF
:1018B0005ED141070AD521693A6802F0700291426F
:1018C00004D23A6822F070021143396001070AD548
:1018D00061697A6802F07002914204D27A6822F05B
:1018E000700211437960C1060AD5A1697A6802F4D1
:1018F000E062914204D27A6822F4E0621143796096
:1019000080060AD5E069B96801F07001884204D206
:10191000B96821F070010843B86000F0B5F8396883
:1019200043F2B452C0F60002C1F30321515C3B689C
:1019300003F00F0301F01F01D25C20FA01F102F065
:101940001F0040F20C02C2F2004221FA00F01060C7
:1019500040F2040040F20802C2F20040C2F200422B
:101960000068116001B0BDE8F043FEF749BF00BF59
:10197000012001B0BDE8F08380B500F085F844F2A5
:10198000184143F2B453C5F60201C0F600030A68D9
:10199000C2F303229A5C096801F00F0102F01F02F2
:1019A000595C20FA02F201F01F0040F20C01C2F271
:1019B000004122FA00F0086040F20801C2F2004142
:1019C0000A6080BD0000000080B500F05DF844F2C0
:1019D000184C43F2B453C5F6020CC0F60003DCF811
:1019E0000020C2F303229A5CDCF8001001F00F0122
:1019F00002F01F02595CD04040F20C02C2F20042D9
:101A000001F01F0120FA01F1116040F20802C2F258
:101A100000421060DCF80400C0F30210185C00F013
:101A20001F0021FA00F080BD80B500F02DF844F2CF
:101A3000184C43F2B453C5F6020CC0F60003DCF8B0
:101A40000020C2F303229A5CDCF8001001F00F01C1
:101A500002F01F02595CD04040F20C02C2F2004278
:101A600001F01F0120FA01F1116040F20802C2F2F8
:101A700000421060DCF80400C0F30220185C00F0A3
:101A80001F0021FA00F080BD44F20041C5F60201BA
:101A90000869C0F3C200032810D002282ED098BBDA
:101AA0000868800649F20000C0F2D03058BF704785
:101AB0000968C1F3C101C840704700BF8A6A886ADB
:101AC000C0F3051CC86ABCF1000F4B6B22D000F0BC
:101AD000010002F003024042022A00EAD3006FF341
:101AE0005F3000EE100AB8EE400A15D0C2B908689F
:101AF000800619D49FED281A23E000BF43F200604E
:101B0000C0F26E10704700BF40F60010C0F23D00FA
:101B1000704700BF002070479FED1E1A11E000BF04
:101B20009FED1B1A0DE000BF086849F20002C0F2E9
:101B3000D032C0F3C10022FA00F001EE100AB8EE74
:101B4000411A086B9FED153A6FF35F2002EE100A01
:101B5000086BC0F34620B8EE422A013000EE032A9B
:101B600000EE10CAB7EE003AB8EE400A81EE000A65
:101B700032EE031A20EE010A01EE100AB8EE411A05
:101B800080EE010ABCEEC00A10EE100A704700BFDA
:101B90000024744A001BB74B0024744C0000003929
:101BA00070B3F0B581B00446007844F20046C00737
:101BB000C5F6020626D1207880076ED5306910F070
:101BC0003801B06A46D0182908BF5FEA807041D05A
:101BD000E0683168002800F0318121F019010843E4
:101BE0003060FEF7C1FD0546306840074ED4FEF771
:101BF000BBFD401B0228F7D9032001B0F0BD00BF98
:101C000001207047306900F03801B06A102905D012
:101C100018290BD100F00300022807D13068800397
:101C2000C9D560680028C6D1AEE000BF6068002852
:101C300000F03A81B0F5A02F00F04E81B0F5803F62
:101C400000F04E81306820F480303060306820F43D
:101C5000802048E130684007E06802D5002800F0A5
:101C60009380316821F0190108433060FEF77CFD54
:101C7000054600BF3068400708D4FEF775FD401BDD
:101C800002284FF00300F5D901B0F0BD706821695A
:101C900020F0FE4040EA016070602078C0061AD54E
:101CA000306900F03801B06A082907D0182940F0DF
:101CB000858000F00300012840F080803068C00576
:101CC00002D5E06980285FD1F068216A20F07C505D
:101CD00040EA0160F060207800073FD42078800659
:101CE00056D42078400700F18180656A9DB3306941
:101CF00000F03800182840F01981012DB16A306BCE
:101D000042D001F00302A36A9A423DD1C1F305110A
:101D1000E26A914238D10146226B6FF35F21013AAA
:101D2000914231D1C0F34622616B01398A422BD1F5
:101D3000C0F30642A16B01398A4225D1C0F3066087
:101D4000E16B013988421FD1706BA16CC0F3CC00EC
:101D5000814240F0A181002001B0F0BD60690028FF
:101D6000706F59D040F001007067FEF7FDFC05462A
:101D7000706F8007B2D4FEF7F7FC401B0228F7D93A
:101D8000032001B0F0BD00BF012001B0F0BD00BFD5
:101D9000A0690028306875D040F480503060FEF7AC
:101DA000E3FC0546306880049BD4FEF7DDFC401B55
:101DB0000228F7D9032001B0F0BD00BFE069002878
:101DC000306800F0A18040F080003060FEF7CCFC6D
:101DD000054600BF3068C0053FF576AFFEF7C4FC8E
:101DE000401B02284FF00300F4D94DE7D6F8000459
:101DF00040F48070C6F80004FEF7B6FC054600BF4C
:101E0000D6F80004C0052BD4FEF7AEFC401B6428B6
:101E1000F6D9032001B0F0BD20F001007067FEF795
:101E2000A3FC0546706F80077FF558AFFEF79CFC5A
:101E3000401B02284FF00300F4D925E721F00100F0
:101E40003060FEF791FC0546306840077FF525AF0E
:101E5000FEF78AFC401B02284FF00300F4D913E779
:101E6000A068002800F08480052800F09B800128ED
:101E700000F09C80306F20F001003067306F20F060
:101E8000040096E020F480503060FEF76DFC0546BB
:101E9000306880047FF525AFFEF766FC401B022802
:101EA0004FF00300F4D9EFE6306820F48030306062
:101EB000306820F480203060FEF756FC054600BFF5
:101EC000306880037FF577AEFEF74EFC401B642838
:101ED0004FF00300F4D9D7E6306840F4802030603A
:101EE000306840F480303060FEF73EFC054600BFAD
:101EF000306880033FF55FAEFEF736FC401B642878
:101F0000F6D9032001B0F0BD20F080003060FEF76C
:101F10002BFC05463068C0057FF5DDAEFEF724FCDE
:101F2000401B02284FF00300F4D9ADE6306820F0E2
:101F300080703060FEF718FC022D05460CD100BF02
:101F40003068800148D5FEF70FFC401B02284FF097
:101F50000300F5D998E600BF306880017FF5FBAE3D
:101F6000FEF702FC401B02284FF00300F4D98BE679
:101F7000306F20F001003067306F20F004003067D0
:101F8000FEF7F2FB054641F28837306F80077FF598
:101F9000ACAEFEF7E9FB401BB8424FF00300F4D9AA
:101FA00072E600BF306F40F004003067306F40F0E1
:101FB00001003067FEF7D8FB054641F2883700BFC5
:101FC000306F80073FF591AEFEF7CEFB401BB84265
:101FD0004FF00300F4D957E604F12807B06A40F245
:101FE000F33188438ECF0843591E40EA02104FF464
:101FF0007E426FF35F21B06202EB47204FF4FE0296
:1020000080B2E36B0844A16B02EB01414FF0FE424A
:1020100001F4FE0102EB0362084402F0FE410844B1
:102020003063F06A4FF6F87120F00100F062706BD7
:10203000A26C884340EAC2007063F06A216C20F011
:102040000C000843F062F06A616C20F00200084363
:10205000F062F06A40F48030F062F06A40F40030E0
:10206000F062F06A40F48020F062F06A40F0010013
:10207000F062306840F080703060FEF775FB044617
:10208000306880013FF567AEFEF76EFB001B02284B
:102090004FF00300F4D9F7E5F06A20F00100F06298
:1020A000FEF762FB0546FEF75FFBA842FBD0706BB4
:1020B0004FF6F871A26C884340EAC2007063F06A80
:1020C00040F00100F062002001B0F0BD000000000F
:1020D00000284DD02DE9F04F81B043F600010446B1
:1020E0000068C4F2000143F2000E43F6004C88423F
:1020F000C4F2010EC4F2000C4FF00002A26203D041
:10210000604518BF704541D1E36B0125E268884204
:1021100002F1080205EB53134FEAD20202FB03F36C
:1021200018BF704526D1102B33D894F8810028B9F8
:10213000002084F88000204600F0AAF8022084F8ED
:102140008100D4E90009D4F818800368B8F1806FE1
:1021500023F001030360836803F4F81E26D1B9F16C
:10216000000F1BD0B9F5800F20D1A36B23BB19E062
:1021700001207047604518BF082B0AD80CF5744140
:102180008842D0D06045CED0CFE700BFE3680F2BA8
:10219000BAD9012001B0BDE8F08F00BFA36BB3F145
:1021A000805F06D1036843F4805303605FEA4923EC
:1021B00002D44FF0010C0FE0E368072B0AD3056847
:1021C00025F4807C256D45EA0C0505604FF0000C78
:1021D00007E000BF4FF0000C036823F48073036036
:1021E000E368E769A26A47EA0E07E16B3A43A7682A
:1021F0001143B9F1000FD4E904BA41EA0301816047
:10220000616BA56B626A41EA0201226A41EA05013B
:1022100041EA0B0141EA0A01D4E9126341EA0201F1
:10222000A26D41EA030141EA070141EA060141EAE0
:10223000020141EA080141EA0901C1600ED0016DC5
:10224000BCF1000F21F00101016515D1C168626D7B
:1022500021F000411143C1600EE000BF81680122FE
:1022600062F3CC2181608168022262F34A2181609D
:10227000016D21F0010101650020C4F884000121F5
:1022800084F8811001B0BDE8F08F0000000000006C
:10229000B0B5B4B00446684641F200450830B021FC
:1022A000C5F60005FEF710F92068A84202D034B048
:1022B000B0BD00BF4FF480400090684600240194F8
:1022C000FEF7D2FC08B1FEF76BF944F2E040C5F628
:1022D0000200416941F020014161416901F02001A2
:1022E0002F912F99016841F00101016000682FA929
:1022F00000F001002F902F98A0202F900220CDE910
:1023000030040820339005F5F6303294FEF750F98A
:1023100034B0B0BD00000000411E0020B0EB116FD2
:1023200002D00120704700BF4EF21002F023CEF21F
:10233000000251604EF62351CEF200010B700721CE
:10234000906011607047000090F88410012901D15D
:10235000022070472421C0F88810026813681168B1
:1023600023F0005321F00101116000214166136048
:102370002022C0F8882080F88410084670470000AA
:1023800090F88420012A01D10220704770B52422E0
:10239000C0F888200268D0F864E0BEF1000FD2F8DF
:1023A00000C0136823F001031360936823F0606397
:1023B00041EA0301916019D0916843F2DC5E9368B1
:1023C000C0F6000E5B0F43F2E455C1F34266C0F65F
:1023D00000051EF80340E95C2301B3FBF1F11EF890
:1023E0000630AE5D1B01B3FBF6F301E001210123D2
:1023F000A0F86A102021A0F86830C2F800C0C0F828
:102400008810002180F88410BDE8704008467047AD
:1024100090F88420012A01D10220704770B524224F
:10242000C0F888200268D0F864E0BEF1000FD2F84E
:1024300000C0136823F001031360936823F0604326
:1024400041EA0301916019D0916843F2DC5E936820
:10245000C0F6000E5B0F43F2E455C1F34266C0F6CE
:1024600000051EF80340E95C2301B3FBF1F11EF8FF
:102470000630AE5D1B01B3FBF6F301E00121012341
:10248000A0F86A102021A0F86830C2F800C0C0F897
:102490008810002180F88410BDE87040084670471D
:1024A00010B5D8B10446D0F8880028B9002084F8C7
:1024B0008400204600F028F82420C4F88800206812
:1024C000A16A0268002922F00101016002D02046C1
:1024D00000F012FB204600F03BFC08B1012010BDCB
:1024E0002068416821F490414160816821F02A010F
:1024F0008160016841F0010101602046BDE81040A3
:1025000000F06ABB0000000010B5B4B06946044694
:1025100001F10800B021FDF7D7FF41F2000120686A
:10252000C4F20101884201D034B010BD01200090F6
:10253000684600240194FEF797FB08B1FEF730F8D7
:1025400044F2E040C5F60200016941F0100101616A
:10255000016901F010012F912F99016841F00101EB
:10256000016000682FA900F001002F902F984FF410
:10257000C0602F900220CDE9300407203390002066
:102580003294C5F60200FEF713F834B010BD000017
:10259000FEE700000000000070B586B044F2E040A5
:1025A0000025C5F60200059540F6000401220168E9
:1025B000C5F6020441F0040101600168012601F042
:1025C000040100910099016841F0800101600168F7
:1025D00001F0800100910099016841F00101016062
:1025E00000684FF4204100F0010000900098204660
:1025F000FEF7B2F84FF4804100222046FEF7ACF817
:102600004FF4604001A9CDE901062046CDE903550C
:10261000FDF7CEFF06B070BD10B540F2700441F278
:102620000040C2F20044C5F600004FF08071206007
:102630004FF4800060604FF40030A0600720E0603D
:102640000020206161614FF08061A1614FF08051F5
:10265000C4E90710C4E90900E0624FF080406063FC
:1026600004F138002421FDF72FFF2046FFF730FD4D
:10267000002808BF10BDBDE81040FDF791BF000065
:1026800080B540F2F80041F20001C2F20040C4F20D
:1026900001010C2201604FF4612141600021C0E979
:1026A00002110161C0E90521C0E90711C0E9091162
:1026B000FFF7F6FE08B1FDF773FF40F2F8000021C6
:1026C000C2F20040FFF7A4FE08B1FDF769FF40F237
:1026D000F8000021C2F20040FFF752FE08B1FDF7FA
:1026E0005FFF40F2F800C2F20040FFF72DFE002825
:1026F00008BF80BDBDE88040FDF752BF000000006C
:10270000FEE7000000000000FEE7000000000000FF
:102710007047000000000000F0B581B044F22C4783
:10272000C5F6020757F8042C02F00302032A03D16E
:10273000012001B0F0BD00BF054657F82C0C0C4637
:1027400020F0806047F82C0CFEF70EF8064600BF1C
:1027500057F82C0C000105D5FEF706F8801B02285F
:10276000F6D964E057F8040CEE6895E80E0020F402
:102770007C30012C40EA0130A2F101016FF35F21AE
:102780004FF47E4202EB432247F8040C92B24FF022
:10279000FE4302EB01004FF4FE012A6901EB064102
:1027A00001F4FE0103EB0262084402F0FE4108441A
:1027B000F8603868696920F0C00040EA01003860BC
:1027C0003868A96920F0200040EA010038603868C4
:1027D0004FF6F87120F0100038603869EA6920EA95
:1027E00001004FF4001140EAC2003861386808BFA8
:1027F0004FF4801140F01000002C386008BF4FF4F7
:10280000002138680843386057F82C0C40F080608D
:1028100047F82C0CFDF7A8FF044600BF57F82C0C16
:10282000000107D4FDF7A0FF001B0328F6D3032007
:1028300001B0F0BD002001B0F0BD000000000000BC
:10284000F0B581B044F22C47C5F6020757F8042CC6
:1028500002F00302032A03D1012001B0F0BD00BF42
:10286000054657F82C0C0C4620F0805047F82C0CED
:10287000FDF77AFF064600BF57F82C0C800005D5FF
:10288000FDF772FF801B0228F6D964E057F8040CAC
:10289000EE6895E80E0020F07C70012C40EA0150B3
:1028A000A2F101016FF35F214FF47E4202EB43225C
:1028B00047F8040C92B24FF0FE4302EB01004FF4D4
:1028C000FE012A6901EB064101F4FE0103EB0262FD
:1028D000084402F0FE41084478613868696920F4D0
:1028E000406040EA010038603868A96920F400704F
:1028F00040EA0100386038684FF6F87120F48070C3
:102900003860B869EA6920EA01004FF0807140EA56
:10291000C200B861386808BF4FF4000140F480700D
:10292000002C386008BF4FF48001386808433860D5
:1029300057F82C0C40F0805047F82C0CFDF714FF92
:10294000044600BF57F82C0C800007D4FDF70CFF9D
:10295000001B0328F6D3032001B0F0BD002001B016
:10296000F0BD000000000000704700000000000003
:10297000FDF702BF00000000B0B59CB044F618049B
:10298000022000251195CDE90F55CDE90D55CDE972
:102990000B550895C5F60204CDE90655CDE9045559
:1029A000CDE902550195FDF7F3FF0095206820F46D
:1029B00040402060206800F440400090009820686B
:1029C000800409D4206880045CBF20685FEA8040EE
:1029D00002D420688004F2D50120099028224FF407
:1029E0008031CDE915200C20199009A80A91022107
:1029F0001491CDE91211CDE917110024CDE91A4443
:102A0000FFF7CEF820B1EFF3108072B6FEE700BFFB
:102A10003F20019003204FF48061CDE9020408209B
:102A200004904020CDE90500CDE9071001A803215D
:102A3000FEF76EFE20B1EFF3108072B6FEE700BF26
:102A40001CB0B0BD000000004EF6885042F2000CF1
:102A5000CEF20000C5F2002C026842F4700202605F
:102A6000DCF8000000F00F00062806D8DCF80000B3
:102A7000072262F30300CCF8000044F200404EF657
:102A80007F51C5F60200CEF6F621026842F001023F
:102A9000026000220261036819400160DCF8001046
:102AA000090706D5DCF80010072363F30301CCF80F
:102AB000001040F200218261C261C0F20221026274
:102AC00081620021C0F2FF11C16240F28021C0F298
:102AD0000111016342638163C2630164426401685E
:102AE00021F480210160026644F20000C5F200205A
:102AF00043F2D20101607047816A0A070CD4CA0709
:102B000015D18A071ED44A0727D4CA0630D48A06AC
:102B100039D44A0642D454E00268D0F838C0536829
:102B200023F4004343EA0C035360CA07E9D0026868
:102B3000D0F82CC0536823F4003343EA0C035360ED
:102B40008A07E0D50268D0F830C0536823F4803398
:102B500043EA0C0353604A07D7D50268D0F834C063
:102B6000536823F4802343EA0C035360CA06CED58E
:102B70000268D0F83CC0936823F4805343EA0C0306
:102B800093608A06C5D50268D0F840C0936823F4E4
:102B9000005343EA0C0393604A0612D50268D0F84A
:102BA00044C0BCF5801F536823F4801343EA0C0330
:102BB000536006D1536823F4C00C836C43EA0C03C2
:102BC0005360090658BF70470168C06C4A6822F418
:102BD0000022104348607047B0B582B00446002020
:102BE000C4F89000FDF7C0FD216805460A68120789
:102BF00037D54FF4001100226FF07E400090204640
:102C00002B4600F0F5FA58B3206850E8000F216811
:102C100020F0800041E80002F2B1206850E8000F87
:102C2000216820F0800041E80002002A1FBF2068D0
:102C300050E8000F216820F080001CBF41E800022E
:102C4000002A09D0206850E8000F216820F0800099
:102C500041E80002002AD7D12020C4F8880062E0B1
:102C600021680868400765D54FF4800100226FF0A5
:102C70007E40009020462B4600F0BAFA002859D03A
:102C8000206850E8000F216820F4907041E80002AD
:102C9000F2B1206850E8000F216820F4907041E8FC
:102CA0000002002A1FBF206850E8000F216820F4AE
:102CB00090701CBF41E80002002A09D0206850E84B
:102CC000000F216820F4907041E80002002AD7D15B
:102CD000206850E8020F216820F0010041E802025C
:102CE000F2B1206850E8020F216820F0010041E8AD
:102CF0000202002A1FBF206850E8020F216820F05E
:102D000001001CBF41E80202002A09D0206850E8F7
:102D1000020F216820F0010041E80202002AD7D109
:102D20002020C4F88C000320002184F8841002B015
:102D3000B0BD00BF2020C4F88800C4F88C0000207B
:102D4000E0662067002184F8841002B0B0BD000066
:102D5000F0B583B00446006846F6F31640F6004E20
:102D600022696569D4E902130A43E7690168CCF670
:102D7000FF762A4331401143C5F6000E3943016006
:102D80004168704521F4405144F2544C41EA03013A
:102D90004160A2694FF2FF431CBF216A0A43816868
:102DA000C1F2FF131940C5F6020C1143816047F6CA
:102DB000FF32C16AC4F2000221F00F01656A90423D
:102DC0004FF0800341EA0501C16219DD41F2FF7154
:102DD000C4F20101884229DC47F60041C4F2000137
:102DE000884253D041F20001C4F20101884235D03B
:102DF00041F20041C4F2010188422FD052E000BFED
:102E000044F6FF31C4F20001884233DD44F600414C
:102E1000C4F20001884239D045F20001C4F2000139
:102E2000884233D047F600012CE000BF41F6000194
:102E3000C4F20101884211D041F60041C4F20101FF
:102E400088420BD070452DD1DCF8041001F0070248
:102E5000062A27D20FF28C3122E000BFDCF80010E6
:102E6000C1F3C202062A1DD243F2AE51C0F60001E0
:102E700016E000BF44F20041C4F20001884205D0D0
:102E800044F60001C4F2000188420BD1DCF80010C6
:102E900001F00702062A05D243F2A851C0F600014C
:102EA0008B181B78704540F60010C0F23D0000F012
:102EB0005380B7F5004F40F07B80402B4FF001016D
:102EC00000F28781DFE813F042000C0185018501E3
:102ED00010018501850185011601850185018501A6
:102EE00085018501850185011E0185018501850119
:102EF00085018501850185018501850185018501A2
:102F000085018501850185012E01850185018501E8
:102F10008501850185018501850185018501850181
:102F20008501850185018501850185018501850171
:102F30008501850185018501850185018501850161
:102F400085018501850185012C0100BFFEF73CFD4F
:102F5000002840F0D58038E19A1E01211E2A00F297
:102F60007580DFE812F01F00360179003601360166
:102F700036017F0036013601360136013601360151
:102F80003601890036013601360136013601360137
:102F90003601360136013601360136013601360179
:102FA00036019600FDF71CFD002840F062800CE120
:102FB000402B4FF0010100F20C81DFE813F04100DB
:102FC000CF000A010A01D3000A010A010A01D9004F
:102FD0000A010A010A010A010A010A010A01E100C3
:102FE0000A010A010A010A010A010A010A010A0189
:102FF0000A010A010A010A010A010A010A01F10093
:103000000A010A010A010A010A010A010A010A0168
:103010000A010A010A010A010A010A010A010A0158
:103020000A010A010A010A010A010A010A010A0148
:103030000A010A010A010A010A010A010A01EF0054
:10304000FEF7C2FC002840F09880BEE0402B40F024
:10305000C0804FF400401CE06846FDF7D5FC0198A5
:1030600038B9B2E06846FDF767FD0198002800F026
:10307000AC80656A0DE000BF5CF8540C800649F234
:103080000000C0F2D03004D55CF8541CC1F3C1017B
:10309000C84043F2C4516268C0F6000131F815100F
:1030A000B0FBF1F002EB420188424FF00101C0F0A9
:1030B00090801303984200F28C80010E00230002DE
:1030C00010EB520041F10001FDF786F94FF6005276
:1030D000A0F54071C0F20F02914274D378E000BFB6
:1030E000FEF7A2FC60B970E06846FDF78DFC019820
:1030F00030B96AE06846FDF71FFD0198002864D0EA
:10310000656A0FE05CF8540C800649F20000C0F2DA
:10311000D03007D55CF8541CC1F3C101C84001E0B0
:103120004FF4004043F2C451C0F6000131F81510CD
:10313000B0FBF1F061684A0802EB40004FF6EF7215
:10314000B0FBF1F0A0F11001914241D84FF6F071BF
:103150000140C0F34200084435E000BFFEF764FCC4
:1031600058B932E06846FDF74FFC019828B92CE0C9
:103170006846FDF7E1FC019838B3656A10E000BFCE
:103180005CF8540C800649F20000C0F2D03007D53C
:103190005CF8541CC1F3C101C84001E04FF4004089
:1031A00043F2C4516268C0F6000131F81510B0FB5B
:1031B000F1F000EB5200B0FBF2F0A0F110014FF67D
:1031C000EF72914204D82168C860002101E000BF7D
:1031D00001214FF00110A0660020C4E91D0008463F
:1031E00003B0F0BD02040810204000000000000001
:1031F0002DE9F041804600680D46C7693940491BFA
:10320000B1FA81F14909914225D1069C34B31646A1
:10321000611C29D1C1692940491BB1FA81F14909D1
:10322000B14218D1C1692940491BB1FA81F149095C
:10323000B14201BFC1692940491BB1FA81F104BF04
:103240004909B14207D1C1692940491BB1FA81F14D
:103250004909B142DED00020BDE8F081FDF784FAD3
:103260000320BDE8F08100BF1F4607E0C069284089
:10327000401BB0FA80F04009B042ECD1FDF774FA7F
:10328000C01BA04200F2B680D8F8000001684907D0
:10329000ECD5402D18BF802DE8D0C169090700F199
:1032A000AD80C1690905E1D54FF400610162D8F82C
:1032B000000050E8000FD8F8001020F4907041E8AA
:1032C000000222B3D8F8000050E8000FD8F8001030
:1032D00020F4907041E80002002A1FBFD8F80000D7
:1032E00050E8000FD8F8001020F490701CBF41E89F
:1032F0000002002A0BD0D8F8000050E8000FD8F8E0
:10330000001020F4907041E80002002ACFD14FF65F
:10331000FE70CEF6FF70D8F8001051E8021FD8F802
:103320000020014042E802130BB3D8F8001051E826
:10333000021FD8F80020014042E80213002B1FBFF3
:10334000D8F8001051E8021FD8F8002001401CBF37
:1033500042E80213002B0AD0D8F8001051E8021FEF
:10336000D8F80020014042E80213002BD3D1D8F84E
:103370006C0001282FD1D8F8000050E8000FD8F8D1
:10338000001020F0100041E8000222B3D8F800003D
:1033900050E8000FD8F8001020F0100041E80002BB
:1033A000002A1FBFD8F8000050E8000FD8F800101E
:1033B00020F010001CBF41E80002002A0BD0D8F812
:1033C000000050E8000FD8F8001020F0100041E88D
:1033D0000002002ACFD12020C8F88C000021C8F8B4
:1033E0006C10C8F87410C8F89000032088F8841096
:1033F000BDE8F0810320BDE8F08100BF0821016233
:10340000D8F8000050E8000FD8F8001020F49070B1
:1034100041E8000222B3D8F8000050E8000FD8F8C5
:10342000001020F4907041E80002002A1FBFD8F875
:10343000000050E8000FD8F8001020F490701CBF76
:1034400041E80002002A0BD0D8F8000050E8000F35
:10345000D8F8001020F4907041E80002002ACFD183
:103460004FF6FE70CEF6FF70D8F8001051E8021F3C
:10347000D8F80020014042E802130BB3D8F800103E
:1034800051E8021FD8F80020014042E80213002B47
:103490001FBFD8F8001051E8021FD8F800200140E3
:1034A0001CBF42E80213002B0AD0D8F8001051E8E4
:1034B000021FD8F80020014042E80213002BD3D1AC
:1034C000D8F86C0001282FD1D8F8000050E8000F80
:1034D000D8F8001020F0100041E8000222B3D8F81C
:1034E000000050E8000FD8F8001020F0100041E86C
:1034F0000002002A1FBFD8F8000050E8000FD8F8DB
:10350000001020F010001CBF41E80002002A0BD080
:10351000D8F8000050E8000FD8F8001020F0100094
:1035200041E80002002ACFD12020C8F88C000020FA
:10353000C8F86C00C8F874000821C8F8901088F822
:1035400084000120BDE8F081FEE7000000000000DB
:1035500084B001200090FDF7ABF90020019048F203
:103560001F70029040F2011003906846FDF770F959
:103570000420FDF7ADF9FDF70FF9FFF7FDF9FFF7AF
:103580000BF8FFF749F8FFF77BF800BFFEE7F1EE15
:10359000100A4FF6FF71C0F2C03120EA010040F07E
:1035A0004070E1EE100A704700040810204001044A
:1035B000081020400000000001020304010203047F
:1035C00006070809010002000400060008000A00BE
:1035D0000C001000200040008000000101010103E8
:1035E0000701000008040204080101011036000868
:1035F00000000024100000003003000820360008FE
:1036000010000024800700005003000800000000A4
:1036100001000000100000000090D0030090D003D3
:04000005080002CD20
:00000001FF
